{"contracts/Raffle.sol":{"Raffle":{"abi":[{"inputs":[{"internalType":"uint256","name":"enteranceFee","type":"uint256"},{"internalType":"uint256","name":"interval","type":"uint256"},{"internalType":"address","name":"vrfCoordinatorV2","type":"address"},{"internalType":"uint64","name":"subscriptionId","type":"uint64"},{"internalType":"uint32","name":"callbackGasLimit","type":"uint32"},{"internalType":"bytes32","name":"gasLane","type":"bytes32"}],"stateMutability":"nonpayable","type":"constructor"},{"inputs":[{"internalType":"address","name":"have","type":"address"},{"internalType":"address","name":"want","type":"address"}],"name":"OnlyCoordinatorCanFulfill","type":"error"},{"inputs":[],"name":"Raffle__NotOpen","type":"error"},{"inputs":[],"name":"Raffle__TransferFailed","type":"error"},{"inputs":[{"internalType":"uint256","name":"currentBalance","type":"uint256"},{"internalType":"uint256","name":"numPlayers","type":"uint256"},{"internalType":"uint256","name":"raffleState","type":"uint256"}],"name":"Raffle__UpkeepNotNeeded","type":"error"},{"inputs":[],"name":"Raffle__notEnoughEthSent","type":"error"},{"anonymous":false,"inputs":[{"indexed":true,"internalType":"address","name":"players","type":"address"}],"name":"RaffleEnter","type":"event"},{"anonymous":false,"inputs":[{"indexed":true,"internalType":"uint256","name":"requestId","type":"uint256"}],"name":"RequestedRaffleWinner","type":"event"},{"anonymous":false,"inputs":[{"indexed":true,"internalType":"address","name":"winner","type":"address"}],"name":"WinnerPicked","type":"event"},{"inputs":[{"internalType":"bytes","name":"","type":"bytes"}],"name":"checkUpkeep","outputs":[{"internalType":"bool","name":"upkeepNeeded","type":"bool"},{"internalType":"bytes","name":"","type":"bytes"}],"stateMutability":"nonpayable","type":"function"},{"inputs":[],"name":"enterRaffle","outputs":[],"stateMutability":"payable","type":"function"},{"inputs":[],"name":"getEntranceFee","outputs":[{"internalType":"uint256","name":"","type":"uint256"}],"stateMutability":"view","type":"function"},{"inputs":[],"name":"getLatestTimeStamp","outputs":[{"internalType":"uint256","name":"","type":"uint256"}],"stateMutability":"view","type":"function"},{"inputs":[],"name":"getNumWords","outputs":[{"internalType":"uint256","name":"","type":"uint256"}],"stateMutability":"pure","type":"function"},{"inputs":[],"name":"getOwner","outputs":[{"internalType":"address","name":"","type":"address"}],"stateMutability":"view","type":"function"},{"inputs":[{"internalType":"uint256","name":"index","type":"uint256"}],"name":"getPlayers","outputs":[{"internalType":"address","name":"","type":"address"}],"stateMutability":"view","type":"function"},{"inputs":[],"name":"getRaffleState","outputs":[{"internalType":"enum Raffle.RaffleState","name":"","type":"uint8"}],"stateMutability":"view","type":"function"},{"inputs":[],"name":"getRecentWinner","outputs":[{"internalType":"address","name":"","type":"address"}],"stateMutability":"view","type":"function"},{"inputs":[],"name":"getRequestConfirmation","outputs":[{"internalType":"uint16","name":"","type":"uint16"}],"stateMutability":"pure","type":"function"},{"inputs":[],"name":"getVRFCoordinator","outputs":[{"internalType":"contract VRFCoordinatorV2Interface","name":"","type":"address"}],"stateMutability":"view","type":"function"},{"inputs":[{"internalType":"bytes","name":"","type":"bytes"}],"name":"performUpkeep","outputs":[],"stateMutability":"nonpayable","type":"function"},{"inputs":[{"internalType":"uint256","name":"requestId","type":"uint256"},{"internalType":"uint256[]","name":"randomWords","type":"uint256[]"}],"name":"rawFulfillRandomWords","outputs":[],"stateMutability":"nonpayable","type":"function"},{"inputs":[],"name":"s_recentWinner","outputs":[{"internalType":"address","name":"","type":"address"}],"stateMutability":"view","type":"function"}],"devdoc":{"author":"Harshit Raizada","details":"This implements ChainlinkVRF2 and Chainlink Keepers","kind":"dev","methods":{"checkUpkeep(bytes)":{"details":"This is the function that the Chainlink Keeper nodes call they look for `upkeepNeeded` to return True. the following should be true for this to return true: 1. The time interval has passed between raffle runs. 2. The lottery is open. 3. The contract has ETH. 4. Implicity, your subscription is funded with LINK."},"performUpkeep(bytes)":{"details":"Once `checkUpkeep` is returning `true`, this function is called and it kicks off a Chainlink VRF call to get a random winner."}},"title":"Raffle Contract","version":1},"evm":{"bytecode":{"linkReferences":{},"object":"6101806040523480156200001257600080fd5b5060405162001991380380620019918339818101604052810190620000389190620002d8565b838073ffffffffffffffffffffffffffffffffffffffff1660808173ffffffffffffffffffffffffffffffffffffffff1660601b81525050508560e081815250503373ffffffffffffffffffffffffffffffffffffffff1660a08173ffffffffffffffffffffffffffffffffffffffff1660601b815250508373ffffffffffffffffffffffffffffffffffffffff1660c08173ffffffffffffffffffffffffffffffffffffffff1660601b815250508267ffffffffffffffff166101008167ffffffffffffffff1660c01b815250508163ffffffff166101208163ffffffff1660e01b815250508061014081815250506000600160146101000a81548160ff0219169083600181111562000151576200015062000374565b5b021790555042600281905550846101608181525050505050505050620003a3565b600080fd5b6000819050919050565b6200018c8162000177565b81146200019857600080fd5b50565b600081519050620001ac8162000181565b92915050565b600073ffffffffffffffffffffffffffffffffffffffff82169050919050565b6000620001df82620001b2565b9050919050565b620001f181620001d2565b8114620001fd57600080fd5b50565b6000815190506200021181620001e6565b92915050565b600067ffffffffffffffff82169050919050565b620002368162000217565b81146200024257600080fd5b50565b60008151905062000256816200022b565b92915050565b600063ffffffff82169050919050565b62000277816200025c565b81146200028357600080fd5b50565b60008151905062000297816200026c565b92915050565b6000819050919050565b620002b2816200029d565b8114620002be57600080fd5b50565b600081519050620002d281620002a7565b92915050565b60008060008060008060c08789031215620002f857620002f762000172565b5b60006200030889828a016200019b565b96505060206200031b89828a016200019b565b95505060406200032e89828a0162000200565b94505060606200034189828a0162000245565b93505060806200035489828a0162000286565b92505060a06200036789828a01620002c1565b9150509295509295509295565b7f4e487b7100000000000000000000000000000000000000000000000000000000600052602160045260246000fd5b60805160601c60a05160601c60c05160601c60e0516101005160c01c6101205160e01c61014051610160516115646200042d6000396000610875015260006106a6015260006106ea015260006106c7015260008181610340015261043d01526000818161066a01526109310152600061090901526000818161037d01526103d101526115646000f3fe6080604052600436106100dd5760003560e01c8063473f1ddc1161007f5780638638b0c6116100595780638638b0c614610290578063893d20e8146102bb578063a378f371146102e6578063ca6a9ef814610311576100dd565b8063473f1ddc146101fc57806353a2c19a146102275780636e04ff0d14610252576100dd565b80632cfcc539116100bb5780632cfcc53914610161578063320229eb1461016b5780634585e33b14610196578063460e2049146101bf576100dd565b806309bc33a7146100e2578063115cbaf51461010d5780631fe543e314610138575b600080fd5b3480156100ee57600080fd5b506100f761033c565b6040516101049190610c50565b60405180910390f35b34801561011957600080fd5b50610122610364565b60405161012f9190610ce2565b60405180910390f35b34801561014457600080fd5b5061015f600480360381019061015a9190610e96565b61037b565b005b61016961043b565b005b34801561017757600080fd5b506101806105a9565b60405161018d9190610c50565b60405180910390f35b3480156101a257600080fd5b506101bd60048036038101906101b89190610f4d565b6105b3565b005b3480156101cb57600080fd5b506101e660048036038101906101e19190610f9a565b6107b2565b6040516101f39190611008565b60405180910390f35b34801561020857600080fd5b506102116107f9565b60405161021e9190611008565b60405180910390f35b34801561023357600080fd5b5061023c610823565b6040516102499190610c50565b60405180910390f35b34801561025e57600080fd5b50610279600480360381019061027491906110d8565b610832565b6040516102879291906111c4565b60405180910390f35b34801561029c57600080fd5b506102a56108df565b6040516102b29190611008565b60405180910390f35b3480156102c757600080fd5b506102d0610905565b6040516102dd9190611008565b60405180910390f35b3480156102f257600080fd5b506102fb61092d565b6040516103089190611253565b60405180910390f35b34801561031d57600080fd5b50610326610955565b604051610333919061128b565b60405180910390f35b60007f0000000000000000000000000000000000000000000000000000000000000000905090565b6000600160149054906101000a900460ff16905090565b7f000000000000000000000000000000000000000000000000000000000000000073ffffffffffffffffffffffffffffffffffffffff163373ffffffffffffffffffffffffffffffffffffffff161461042d57337f00000000000000000000000000000000000000000000000000000000000000006040517f1cf993f40000000000000000000000000000000000000000000000000000000081526004016104249291906112a6565b60405180910390fd5b610437828261095e565b5050565b7f00000000000000000000000000000000000000000000000000000000000000003411610494576040517f93a0491300000000000000000000000000000000000000000000000000000000815260040160405180910390fd5b6000339080600181540180825580915050600190039060005260206000200160009091909190916101000a81548173ffffffffffffffffffffffffffffffffffffffff021916908373ffffffffffffffffffffffffffffffffffffffff1602179055506000600181111561050b5761050a610c6b565b5b600160149054906101000a900460ff16600181111561052d5761052c610c6b565b5b14610564576040517f1425571c00000000000000000000000000000000000000000000000000000000815260040160405180910390fd5b3373ffffffffffffffffffffffffffffffffffffffff167f0805e1d667bddb8a95f0f09880cf94f403fb596ce79928d9f29b74203ba284d460405160405180910390a2565b6000600254905090565b60006105cd60405180602001604052806000815250610832565b5090508061063c5747600080549050600160149054906101000a900460ff1660018111156105fe576105fd610c6b565b5b6040517f584327aa000000000000000000000000000000000000000000000000000000008152600401610633939291906112cf565b60405180910390fd5b60018060146101000a81548160ff0219169083600181111561066157610660610c6b565b5b021790555060007f000000000000000000000000000000000000000000000000000000000000000073ffffffffffffffffffffffffffffffffffffffff16635d3b1d307f00000000000000000000000000000000000000000000000000000000000000007f000000000000000000000000000000000000000000000000000000000000000060037f000000000000000000000000000000000000000000000000000000000000000060016040518663ffffffff1660e01b815260040161072b959493929190611361565b602060405180830381600087803b15801561074557600080fd5b505af1158015610759573d6000803e3d6000fd5b505050506040513d601f19601f8201168201806040525081019061077d91906113c9565b9050807fcd6e45c8998311cab7e9d4385596cac867e20a0587194b954fa3a731c93ce78b60405160405180910390a250505050565b60008082815481106107c7576107c66113f6565b5b9060005260206000200160009054906101000a900473ffffffffffffffffffffffffffffffffffffffff169050919050565b6000600160009054906101000a900473ffffffffffffffffffffffffffffffffffffffff16905090565b6000600163ffffffff16905090565b600060606000600160149054906101000a900460ff16600181111561085a57610859610c6b565b5b6000600181111561086e5761086d610c6b565b5b14905060007f0000000000000000000000000000000000000000000000000000000000000000600254426108a29190611454565b119050600080600080549050119050600080471190508280156108c25750815b80156108cb5750805b80156108d45750835b955050505050915091565b600160009054906101000a900473ffffffffffffffffffffffffffffffffffffffff1681565b60007f0000000000000000000000000000000000000000000000000000000000000000905090565b60007f0000000000000000000000000000000000000000000000000000000000000000905090565b60006003905090565b6000808054905082600081518110610979576109786113f6565b5b602002602001015161098b91906114b7565b905060008082815481106109a2576109a16113f6565b5b9060005260206000200160009054906101000a900473ffffffffffffffffffffffffffffffffffffffff16905080600160006101000a81548173ffffffffffffffffffffffffffffffffffffffff021916908373ffffffffffffffffffffffffffffffffffffffff1602179055506000600160146101000a81548160ff02191690836001811115610a3657610a35610c6b565b5b0217905550600067ffffffffffffffff811115610a5657610a55610d53565b5b604051908082528060200260200182016040528015610a845781602001602082028036833780820191505090505b5060009080519060200190610a9a929190610b90565b50600060028190555060008173ffffffffffffffffffffffffffffffffffffffff1647604051610ac990611519565b60006040518083038185875af1925050503d8060008114610b06576040519150601f19603f3d011682016040523d82523d6000602084013e610b0b565b606091505b5050905080610b46576040517fa1d04b3900000000000000000000000000000000000000000000000000000000815260040160405180910390fd5b8173ffffffffffffffffffffffffffffffffffffffff167f5b690ec4a06fe979403046eaeea5b3ce38524683c3001f662c8b5a829632f7df60405160405180910390a25050505050565b828054828255906000526020600020908101928215610c09579160200282015b82811115610c085782518260006101000a81548173ffffffffffffffffffffffffffffffffffffffff021916908373ffffffffffffffffffffffffffffffffffffffff16021790555091602001919060010190610bb0565b5b509050610c169190610c1a565b5090565b5b80821115610c33576000816000905550600101610c1b565b5090565b6000819050919050565b610c4a81610c37565b82525050565b6000602082019050610c656000830184610c41565b92915050565b7f4e487b7100000000000000000000000000000000000000000000000000000000600052602160045260246000fd5b60028110610cab57610caa610c6b565b5b50565b6000819050610cbc82610c9a565b919050565b6000610ccc82610cae565b9050919050565b610cdc81610cc1565b82525050565b6000602082019050610cf76000830184610cd3565b92915050565b6000604051905090565b600080fd5b600080fd5b610d1a81610c37565b8114610d2557600080fd5b50565b600081359050610d3781610d11565b92915050565b600080fd5b6000601f19601f8301169050919050565b7f4e487b7100000000000000000000000000000000000000000000000000000000600052604160045260246000fd5b610d8b82610d42565b810181811067ffffffffffffffff82111715610daa57610da9610d53565b5b80604052505050565b6000610dbd610cfd565b9050610dc98282610d82565b919050565b600067ffffffffffffffff821115610de957610de8610d53565b5b602082029050602081019050919050565b600080fd5b6000610e12610e0d84610dce565b610db3565b90508083825260208201905060208402830185811115610e3557610e34610dfa565b5b835b81811015610e5e5780610e4a8882610d28565b845260208401935050602081019050610e37565b5050509392505050565b600082601f830112610e7d57610e7c610d3d565b5b8135610e8d848260208601610dff565b91505092915050565b60008060408385031215610ead57610eac610d07565b5b6000610ebb85828601610d28565b925050602083013567ffffffffffffffff811115610edc57610edb610d0c565b5b610ee885828601610e68565b9150509250929050565b600080fd5b60008083601f840112610f0d57610f0c610d3d565b5b8235905067ffffffffffffffff811115610f2a57610f29610ef2565b5b602083019150836001820283011115610f4657610f45610dfa565b5b9250929050565b60008060208385031215610f6457610f63610d07565b5b600083013567ffffffffffffffff811115610f8257610f81610d0c565b5b610f8e85828601610ef7565b92509250509250929050565b600060208284031215610fb057610faf610d07565b5b6000610fbe84828501610d28565b91505092915050565b600073ffffffffffffffffffffffffffffffffffffffff82169050919050565b6000610ff282610fc7565b9050919050565b61100281610fe7565b82525050565b600060208201905061101d6000830184610ff9565b92915050565b600080fd5b600067ffffffffffffffff82111561104357611042610d53565b5b61104c82610d42565b9050602081019050919050565b82818337600083830152505050565b600061107b61107684611028565b610db3565b90508281526020810184848401111561109757611096611023565b5b6110a2848285611059565b509392505050565b600082601f8301126110bf576110be610d3d565b5b81356110cf848260208601611068565b91505092915050565b6000602082840312156110ee576110ed610d07565b5b600082013567ffffffffffffffff81111561110c5761110b610d0c565b5b611118848285016110aa565b91505092915050565b60008115159050919050565b61113681611121565b82525050565b600081519050919050565b600082825260208201905092915050565b60005b8381101561117657808201518184015260208101905061115b565b83811115611185576000848401525b50505050565b60006111968261113c565b6111a08185611147565b93506111b0818560208601611158565b6111b981610d42565b840191505092915050565b60006040820190506111d9600083018561112d565b81810360208301526111eb818461118b565b90509392505050565b6000819050919050565b600061121961121461120f84610fc7565b6111f4565b610fc7565b9050919050565b600061122b826111fe565b9050919050565b600061123d82611220565b9050919050565b61124d81611232565b82525050565b60006020820190506112686000830184611244565b92915050565b600061ffff82169050919050565b6112858161126e565b82525050565b60006020820190506112a0600083018461127c565b92915050565b60006040820190506112bb6000830185610ff9565b6112c86020830184610ff9565b9392505050565b60006060820190506112e46000830186610c41565b6112f16020830185610c41565b6112fe6040830184610c41565b949350505050565b6000819050919050565b61131981611306565b82525050565b600067ffffffffffffffff82169050919050565b61133c8161131f565b82525050565b600063ffffffff82169050919050565b61135b81611342565b82525050565b600060a0820190506113766000830188611310565b6113836020830187611333565b611390604083018661127c565b61139d6060830185611352565b6113aa6080830184611352565b9695505050505050565b6000815190506113c381610d11565b92915050565b6000602082840312156113df576113de610d07565b5b60006113ed848285016113b4565b91505092915050565b7f4e487b7100000000000000000000000000000000000000000000000000000000600052603260045260246000fd5b7f4e487b7100000000000000000000000000000000000000000000000000000000600052601160045260246000fd5b600061145f82610c37565b915061146a83610c37565b92508282101561147d5761147c611425565b5b828203905092915050565b7f4e487b7100000000000000000000000000000000000000000000000000000000600052601260045260246000fd5b60006114c282610c37565b91506114cd83610c37565b9250826114dd576114dc611488565b5b828206905092915050565b600081905092915050565b50565b60006115036000836114e8565b915061150e826114f3565b600082019050919050565b6000611524826114f6565b915081905091905056fea26469706673582212202722b0d4d37f3f4d718bc581ac3f737d755a829ae8ecc71e5308d8798ece260e64736f6c63430008080033","opcodes":"PUSH2 0x180 PUSH1 0x40 MSTORE CALLVALUE DUP1 ISZERO PUSH3 0x12 JUMPI PUSH1 0x0 DUP1 REVERT JUMPDEST POP PUSH1 0x40 MLOAD PUSH3 0x1991 CODESIZE SUB DUP1 PUSH3 0x1991 DUP4 CODECOPY DUP2 DUP2 ADD PUSH1 0x40 MSTORE DUP2 ADD SWAP1 PUSH3 0x38 SWAP2 SWAP1 PUSH3 0x2D8 JUMP JUMPDEST DUP4 DUP1 PUSH20 0xFFFFFFFFFFFFFFFFFFFFFFFFFFFFFFFFFFFFFFFF AND PUSH1 0x80 DUP2 PUSH20 0xFFFFFFFFFFFFFFFFFFFFFFFFFFFFFFFFFFFFFFFF AND PUSH1 0x60 SHL DUP2 MSTORE POP POP POP DUP6 PUSH1 0xE0 DUP2 DUP2 MSTORE POP POP CALLER PUSH20 0xFFFFFFFFFFFFFFFFFFFFFFFFFFFFFFFFFFFFFFFF AND PUSH1 0xA0 DUP2 PUSH20 0xFFFFFFFFFFFFFFFFFFFFFFFFFFFFFFFFFFFFFFFF AND PUSH1 0x60 SHL DUP2 MSTORE POP POP DUP4 PUSH20 0xFFFFFFFFFFFFFFFFFFFFFFFFFFFFFFFFFFFFFFFF AND PUSH1 0xC0 DUP2 PUSH20 0xFFFFFFFFFFFFFFFFFFFFFFFFFFFFFFFFFFFFFFFF AND PUSH1 0x60 SHL DUP2 MSTORE POP POP DUP3 PUSH8 0xFFFFFFFFFFFFFFFF AND PUSH2 0x100 DUP2 PUSH8 0xFFFFFFFFFFFFFFFF AND PUSH1 0xC0 SHL DUP2 MSTORE POP POP DUP2 PUSH4 0xFFFFFFFF AND PUSH2 0x120 DUP2 PUSH4 0xFFFFFFFF AND PUSH1 0xE0 SHL DUP2 MSTORE POP POP DUP1 PUSH2 0x140 DUP2 DUP2 MSTORE POP POP PUSH1 0x0 PUSH1 0x1 PUSH1 0x14 PUSH2 0x100 EXP DUP2 SLOAD DUP2 PUSH1 0xFF MUL NOT AND SWAP1 DUP4 PUSH1 0x1 DUP2 GT ISZERO PUSH3 0x151 JUMPI PUSH3 0x150 PUSH3 0x374 JUMP JUMPDEST JUMPDEST MUL OR SWAP1 SSTORE POP TIMESTAMP PUSH1 0x2 DUP2 SWAP1 SSTORE POP DUP5 PUSH2 0x160 DUP2 DUP2 MSTORE POP POP POP POP POP POP POP POP PUSH3 0x3A3 JUMP JUMPDEST PUSH1 0x0 DUP1 REVERT JUMPDEST PUSH1 0x0 DUP2 SWAP1 POP SWAP2 SWAP1 POP JUMP JUMPDEST PUSH3 0x18C DUP2 PUSH3 0x177 JUMP JUMPDEST DUP2 EQ PUSH3 0x198 JUMPI PUSH1 0x0 DUP1 REVERT JUMPDEST POP JUMP JUMPDEST PUSH1 0x0 DUP2 MLOAD SWAP1 POP PUSH3 0x1AC DUP2 PUSH3 0x181 JUMP JUMPDEST SWAP3 SWAP2 POP POP JUMP JUMPDEST PUSH1 0x0 PUSH20 0xFFFFFFFFFFFFFFFFFFFFFFFFFFFFFFFFFFFFFFFF DUP3 AND SWAP1 POP SWAP2 SWAP1 POP JUMP JUMPDEST PUSH1 0x0 PUSH3 0x1DF DUP3 PUSH3 0x1B2 JUMP JUMPDEST SWAP1 POP SWAP2 SWAP1 POP JUMP JUMPDEST PUSH3 0x1F1 DUP2 PUSH3 0x1D2 JUMP JUMPDEST DUP2 EQ PUSH3 0x1FD JUMPI PUSH1 0x0 DUP1 REVERT JUMPDEST POP JUMP JUMPDEST PUSH1 0x0 DUP2 MLOAD SWAP1 POP PUSH3 0x211 DUP2 PUSH3 0x1E6 JUMP JUMPDEST SWAP3 SWAP2 POP POP JUMP JUMPDEST PUSH1 0x0 PUSH8 0xFFFFFFFFFFFFFFFF DUP3 AND SWAP1 POP SWAP2 SWAP1 POP JUMP JUMPDEST PUSH3 0x236 DUP2 PUSH3 0x217 JUMP JUMPDEST DUP2 EQ PUSH3 0x242 JUMPI PUSH1 0x0 DUP1 REVERT JUMPDEST POP JUMP JUMPDEST PUSH1 0x0 DUP2 MLOAD SWAP1 POP PUSH3 0x256 DUP2 PUSH3 0x22B JUMP JUMPDEST SWAP3 SWAP2 POP POP JUMP JUMPDEST PUSH1 0x0 PUSH4 0xFFFFFFFF DUP3 AND SWAP1 POP SWAP2 SWAP1 POP JUMP JUMPDEST PUSH3 0x277 DUP2 PUSH3 0x25C JUMP JUMPDEST DUP2 EQ PUSH3 0x283 JUMPI PUSH1 0x0 DUP1 REVERT JUMPDEST POP JUMP JUMPDEST PUSH1 0x0 DUP2 MLOAD SWAP1 POP PUSH3 0x297 DUP2 PUSH3 0x26C JUMP JUMPDEST SWAP3 SWAP2 POP POP JUMP JUMPDEST PUSH1 0x0 DUP2 SWAP1 POP SWAP2 SWAP1 POP JUMP JUMPDEST PUSH3 0x2B2 DUP2 PUSH3 0x29D JUMP JUMPDEST DUP2 EQ PUSH3 0x2BE JUMPI PUSH1 0x0 DUP1 REVERT JUMPDEST POP JUMP JUMPDEST PUSH1 0x0 DUP2 MLOAD SWAP1 POP PUSH3 0x2D2 DUP2 PUSH3 0x2A7 JUMP JUMPDEST SWAP3 SWAP2 POP POP JUMP JUMPDEST PUSH1 0x0 DUP1 PUSH1 0x0 DUP1 PUSH1 0x0 DUP1 PUSH1 0xC0 DUP8 DUP10 SUB SLT ISZERO PUSH3 0x2F8 JUMPI PUSH3 0x2F7 PUSH3 0x172 JUMP JUMPDEST JUMPDEST PUSH1 0x0 PUSH3 0x308 DUP10 DUP3 DUP11 ADD PUSH3 0x19B JUMP JUMPDEST SWAP7 POP POP PUSH1 0x20 PUSH3 0x31B DUP10 DUP3 DUP11 ADD PUSH3 0x19B JUMP JUMPDEST SWAP6 POP POP PUSH1 0x40 PUSH3 0x32E DUP10 DUP3 DUP11 ADD PUSH3 0x200 JUMP JUMPDEST SWAP5 POP POP PUSH1 0x60 PUSH3 0x341 DUP10 DUP3 DUP11 ADD PUSH3 0x245 JUMP JUMPDEST SWAP4 POP POP PUSH1 0x80 PUSH3 0x354 DUP10 DUP3 DUP11 ADD PUSH3 0x286 JUMP JUMPDEST SWAP3 POP POP PUSH1 0xA0 PUSH3 0x367 DUP10 DUP3 DUP11 ADD PUSH3 0x2C1 JUMP JUMPDEST SWAP2 POP POP SWAP3 SWAP6 POP SWAP3 SWAP6 POP SWAP3 SWAP6 JUMP JUMPDEST PUSH32 0x4E487B7100000000000000000000000000000000000000000000000000000000 PUSH1 0x0 MSTORE PUSH1 0x21 PUSH1 0x4 MSTORE PUSH1 0x24 PUSH1 0x0 REVERT JUMPDEST PUSH1 0x80 MLOAD PUSH1 0x60 SHR PUSH1 0xA0 MLOAD PUSH1 0x60 SHR PUSH1 0xC0 MLOAD PUSH1 0x60 SHR PUSH1 0xE0 MLOAD PUSH2 0x100 MLOAD PUSH1 0xC0 SHR PUSH2 0x120 MLOAD PUSH1 0xE0 SHR PUSH2 0x140 MLOAD PUSH2 0x160 MLOAD PUSH2 0x1564 PUSH3 0x42D PUSH1 0x0 CODECOPY PUSH1 0x0 PUSH2 0x875 ADD MSTORE PUSH1 0x0 PUSH2 0x6A6 ADD MSTORE PUSH1 0x0 PUSH2 0x6EA ADD MSTORE PUSH1 0x0 PUSH2 0x6C7 ADD MSTORE PUSH1 0x0 DUP2 DUP2 PUSH2 0x340 ADD MSTORE PUSH2 0x43D ADD MSTORE PUSH1 0x0 DUP2 DUP2 PUSH2 0x66A ADD MSTORE PUSH2 0x931 ADD MSTORE PUSH1 0x0 PUSH2 0x909 ADD MSTORE PUSH1 0x0 DUP2 DUP2 PUSH2 0x37D ADD MSTORE PUSH2 0x3D1 ADD MSTORE PUSH2 0x1564 PUSH1 0x0 RETURN INVALID PUSH1 0x80 PUSH1 0x40 MSTORE PUSH1 0x4 CALLDATASIZE LT PUSH2 0xDD JUMPI PUSH1 0x0 CALLDATALOAD PUSH1 0xE0 SHR DUP1 PUSH4 0x473F1DDC GT PUSH2 0x7F JUMPI DUP1 PUSH4 0x8638B0C6 GT PUSH2 0x59 JUMPI DUP1 PUSH4 0x8638B0C6 EQ PUSH2 0x290 JUMPI DUP1 PUSH4 0x893D20E8 EQ PUSH2 0x2BB JUMPI DUP1 PUSH4 0xA378F371 EQ PUSH2 0x2E6 JUMPI DUP1 PUSH4 0xCA6A9EF8 EQ PUSH2 0x311 JUMPI PUSH2 0xDD JUMP JUMPDEST DUP1 PUSH4 0x473F1DDC EQ PUSH2 0x1FC JUMPI DUP1 PUSH4 0x53A2C19A EQ PUSH2 0x227 JUMPI DUP1 PUSH4 0x6E04FF0D EQ PUSH2 0x252 JUMPI PUSH2 0xDD JUMP JUMPDEST DUP1 PUSH4 0x2CFCC539 GT PUSH2 0xBB JUMPI DUP1 PUSH4 0x2CFCC539 EQ PUSH2 0x161 JUMPI DUP1 PUSH4 0x320229EB EQ PUSH2 0x16B JUMPI DUP1 PUSH4 0x4585E33B EQ PUSH2 0x196 JUMPI DUP1 PUSH4 0x460E2049 EQ PUSH2 0x1BF JUMPI PUSH2 0xDD JUMP JUMPDEST DUP1 PUSH4 0x9BC33A7 EQ PUSH2 0xE2 JUMPI DUP1 PUSH4 0x115CBAF5 EQ PUSH2 0x10D JUMPI DUP1 PUSH4 0x1FE543E3 EQ PUSH2 0x138 JUMPI JUMPDEST PUSH1 0x0 DUP1 REVERT JUMPDEST CALLVALUE DUP1 ISZERO PUSH2 0xEE JUMPI PUSH1 0x0 DUP1 REVERT JUMPDEST POP PUSH2 0xF7 PUSH2 0x33C JUMP JUMPDEST PUSH1 0x40 MLOAD PUSH2 0x104 SWAP2 SWAP1 PUSH2 0xC50 JUMP JUMPDEST PUSH1 0x40 MLOAD DUP1 SWAP2 SUB SWAP1 RETURN JUMPDEST CALLVALUE DUP1 ISZERO PUSH2 0x119 JUMPI PUSH1 0x0 DUP1 REVERT JUMPDEST POP PUSH2 0x122 PUSH2 0x364 JUMP JUMPDEST PUSH1 0x40 MLOAD PUSH2 0x12F SWAP2 SWAP1 PUSH2 0xCE2 JUMP JUMPDEST PUSH1 0x40 MLOAD DUP1 SWAP2 SUB SWAP1 RETURN JUMPDEST CALLVALUE DUP1 ISZERO PUSH2 0x144 JUMPI PUSH1 0x0 DUP1 REVERT JUMPDEST POP PUSH2 0x15F PUSH1 0x4 DUP1 CALLDATASIZE SUB DUP2 ADD SWAP1 PUSH2 0x15A SWAP2 SWAP1 PUSH2 0xE96 JUMP JUMPDEST PUSH2 0x37B JUMP JUMPDEST STOP JUMPDEST PUSH2 0x169 PUSH2 0x43B JUMP JUMPDEST STOP JUMPDEST CALLVALUE DUP1 ISZERO PUSH2 0x177 JUMPI PUSH1 0x0 DUP1 REVERT JUMPDEST POP PUSH2 0x180 PUSH2 0x5A9 JUMP JUMPDEST PUSH1 0x40 MLOAD PUSH2 0x18D SWAP2 SWAP1 PUSH2 0xC50 JUMP JUMPDEST PUSH1 0x40 MLOAD DUP1 SWAP2 SUB SWAP1 RETURN JUMPDEST CALLVALUE DUP1 ISZERO PUSH2 0x1A2 JUMPI PUSH1 0x0 DUP1 REVERT JUMPDEST POP PUSH2 0x1BD PUSH1 0x4 DUP1 CALLDATASIZE SUB DUP2 ADD SWAP1 PUSH2 0x1B8 SWAP2 SWAP1 PUSH2 0xF4D JUMP JUMPDEST PUSH2 0x5B3 JUMP JUMPDEST STOP JUMPDEST CALLVALUE DUP1 ISZERO PUSH2 0x1CB JUMPI PUSH1 0x0 DUP1 REVERT JUMPDEST POP PUSH2 0x1E6 PUSH1 0x4 DUP1 CALLDATASIZE SUB DUP2 ADD SWAP1 PUSH2 0x1E1 SWAP2 SWAP1 PUSH2 0xF9A JUMP JUMPDEST PUSH2 0x7B2 JUMP JUMPDEST PUSH1 0x40 MLOAD PUSH2 0x1F3 SWAP2 SWAP1 PUSH2 0x1008 JUMP JUMPDEST PUSH1 0x40 MLOAD DUP1 SWAP2 SUB SWAP1 RETURN JUMPDEST CALLVALUE DUP1 ISZERO PUSH2 0x208 JUMPI PUSH1 0x0 DUP1 REVERT JUMPDEST POP PUSH2 0x211 PUSH2 0x7F9 JUMP JUMPDEST PUSH1 0x40 MLOAD PUSH2 0x21E SWAP2 SWAP1 PUSH2 0x1008 JUMP JUMPDEST PUSH1 0x40 MLOAD DUP1 SWAP2 SUB SWAP1 RETURN JUMPDEST CALLVALUE DUP1 ISZERO PUSH2 0x233 JUMPI PUSH1 0x0 DUP1 REVERT JUMPDEST POP PUSH2 0x23C PUSH2 0x823 JUMP JUMPDEST PUSH1 0x40 MLOAD PUSH2 0x249 SWAP2 SWAP1 PUSH2 0xC50 JUMP JUMPDEST PUSH1 0x40 MLOAD DUP1 SWAP2 SUB SWAP1 RETURN JUMPDEST CALLVALUE DUP1 ISZERO PUSH2 0x25E JUMPI PUSH1 0x0 DUP1 REVERT JUMPDEST POP PUSH2 0x279 PUSH1 0x4 DUP1 CALLDATASIZE SUB DUP2 ADD SWAP1 PUSH2 0x274 SWAP2 SWAP1 PUSH2 0x10D8 JUMP JUMPDEST PUSH2 0x832 JUMP JUMPDEST PUSH1 0x40 MLOAD PUSH2 0x287 SWAP3 SWAP2 SWAP1 PUSH2 0x11C4 JUMP JUMPDEST PUSH1 0x40 MLOAD DUP1 SWAP2 SUB SWAP1 RETURN JUMPDEST CALLVALUE DUP1 ISZERO PUSH2 0x29C JUMPI PUSH1 0x0 DUP1 REVERT JUMPDEST POP PUSH2 0x2A5 PUSH2 0x8DF JUMP JUMPDEST PUSH1 0x40 MLOAD PUSH2 0x2B2 SWAP2 SWAP1 PUSH2 0x1008 JUMP JUMPDEST PUSH1 0x40 MLOAD DUP1 SWAP2 SUB SWAP1 RETURN JUMPDEST CALLVALUE DUP1 ISZERO PUSH2 0x2C7 JUMPI PUSH1 0x0 DUP1 REVERT JUMPDEST POP PUSH2 0x2D0 PUSH2 0x905 JUMP JUMPDEST PUSH1 0x40 MLOAD PUSH2 0x2DD SWAP2 SWAP1 PUSH2 0x1008 JUMP JUMPDEST PUSH1 0x40 MLOAD DUP1 SWAP2 SUB SWAP1 RETURN JUMPDEST CALLVALUE DUP1 ISZERO PUSH2 0x2F2 JUMPI PUSH1 0x0 DUP1 REVERT JUMPDEST POP PUSH2 0x2FB PUSH2 0x92D JUMP JUMPDEST PUSH1 0x40 MLOAD PUSH2 0x308 SWAP2 SWAP1 PUSH2 0x1253 JUMP JUMPDEST PUSH1 0x40 MLOAD DUP1 SWAP2 SUB SWAP1 RETURN JUMPDEST CALLVALUE DUP1 ISZERO PUSH2 0x31D JUMPI PUSH1 0x0 DUP1 REVERT JUMPDEST POP PUSH2 0x326 PUSH2 0x955 JUMP JUMPDEST PUSH1 0x40 MLOAD PUSH2 0x333 SWAP2 SWAP1 PUSH2 0x128B JUMP JUMPDEST PUSH1 0x40 MLOAD DUP1 SWAP2 SUB SWAP1 RETURN JUMPDEST PUSH1 0x0 PUSH32 0x0 SWAP1 POP SWAP1 JUMP JUMPDEST PUSH1 0x0 PUSH1 0x1 PUSH1 0x14 SWAP1 SLOAD SWAP1 PUSH2 0x100 EXP SWAP1 DIV PUSH1 0xFF AND SWAP1 POP SWAP1 JUMP JUMPDEST PUSH32 0x0 PUSH20 0xFFFFFFFFFFFFFFFFFFFFFFFFFFFFFFFFFFFFFFFF AND CALLER PUSH20 0xFFFFFFFFFFFFFFFFFFFFFFFFFFFFFFFFFFFFFFFF AND EQ PUSH2 0x42D JUMPI CALLER PUSH32 0x0 PUSH1 0x40 MLOAD PUSH32 0x1CF993F400000000000000000000000000000000000000000000000000000000 DUP2 MSTORE PUSH1 0x4 ADD PUSH2 0x424 SWAP3 SWAP2 SWAP1 PUSH2 0x12A6 JUMP JUMPDEST PUSH1 0x40 MLOAD DUP1 SWAP2 SUB SWAP1 REVERT JUMPDEST PUSH2 0x437 DUP3 DUP3 PUSH2 0x95E JUMP JUMPDEST POP POP JUMP JUMPDEST PUSH32 0x0 CALLVALUE GT PUSH2 0x494 JUMPI PUSH1 0x40 MLOAD PUSH32 0x93A0491300000000000000000000000000000000000000000000000000000000 DUP2 MSTORE PUSH1 0x4 ADD PUSH1 0x40 MLOAD DUP1 SWAP2 SUB SWAP1 REVERT JUMPDEST PUSH1 0x0 CALLER SWAP1 DUP1 PUSH1 0x1 DUP2 SLOAD ADD DUP1 DUP3 SSTORE DUP1 SWAP2 POP POP PUSH1 0x1 SWAP1 SUB SWAP1 PUSH1 0x0 MSTORE PUSH1 0x20 PUSH1 0x0 KECCAK256 ADD PUSH1 0x0 SWAP1 SWAP2 SWAP1 SWAP2 SWAP1 SWAP2 PUSH2 0x100 EXP DUP2 SLOAD DUP2 PUSH20 0xFFFFFFFFFFFFFFFFFFFFFFFFFFFFFFFFFFFFFFFF MUL NOT AND SWAP1 DUP4 PUSH20 0xFFFFFFFFFFFFFFFFFFFFFFFFFFFFFFFFFFFFFFFF AND MUL OR SWAP1 SSTORE POP PUSH1 0x0 PUSH1 0x1 DUP2 GT ISZERO PUSH2 0x50B JUMPI PUSH2 0x50A PUSH2 0xC6B JUMP JUMPDEST JUMPDEST PUSH1 0x1 PUSH1 0x14 SWAP1 SLOAD SWAP1 PUSH2 0x100 EXP SWAP1 DIV PUSH1 0xFF AND PUSH1 0x1 DUP2 GT ISZERO PUSH2 0x52D JUMPI PUSH2 0x52C PUSH2 0xC6B JUMP JUMPDEST JUMPDEST EQ PUSH2 0x564 JUMPI PUSH1 0x40 MLOAD PUSH32 0x1425571C00000000000000000000000000000000000000000000000000000000 DUP2 MSTORE PUSH1 0x4 ADD PUSH1 0x40 MLOAD DUP1 SWAP2 SUB SWAP1 REVERT JUMPDEST CALLER PUSH20 0xFFFFFFFFFFFFFFFFFFFFFFFFFFFFFFFFFFFFFFFF AND PUSH32 0x805E1D667BDDB8A95F0F09880CF94F403FB596CE79928D9F29B74203BA284D4 PUSH1 0x40 MLOAD PUSH1 0x40 MLOAD DUP1 SWAP2 SUB SWAP1 LOG2 JUMP JUMPDEST PUSH1 0x0 PUSH1 0x2 SLOAD SWAP1 POP SWAP1 JUMP JUMPDEST PUSH1 0x0 PUSH2 0x5CD PUSH1 0x40 MLOAD DUP1 PUSH1 0x20 ADD PUSH1 0x40 MSTORE DUP1 PUSH1 0x0 DUP2 MSTORE POP PUSH2 0x832 JUMP JUMPDEST POP SWAP1 POP DUP1 PUSH2 0x63C JUMPI SELFBALANCE PUSH1 0x0 DUP1 SLOAD SWAP1 POP PUSH1 0x1 PUSH1 0x14 SWAP1 SLOAD SWAP1 PUSH2 0x100 EXP SWAP1 DIV PUSH1 0xFF AND PUSH1 0x1 DUP2 GT ISZERO PUSH2 0x5FE JUMPI PUSH2 0x5FD PUSH2 0xC6B JUMP JUMPDEST JUMPDEST PUSH1 0x40 MLOAD PUSH32 0x584327AA00000000000000000000000000000000000000000000000000000000 DUP2 MSTORE PUSH1 0x4 ADD PUSH2 0x633 SWAP4 SWAP3 SWAP2 SWAP1 PUSH2 0x12CF JUMP JUMPDEST PUSH1 0x40 MLOAD DUP1 SWAP2 SUB SWAP1 REVERT JUMPDEST PUSH1 0x1 DUP1 PUSH1 0x14 PUSH2 0x100 EXP DUP2 SLOAD DUP2 PUSH1 0xFF MUL NOT AND SWAP1 DUP4 PUSH1 0x1 DUP2 GT ISZERO PUSH2 0x661 JUMPI PUSH2 0x660 PUSH2 0xC6B JUMP JUMPDEST JUMPDEST MUL OR SWAP1 SSTORE POP PUSH1 0x0 PUSH32 0x0 PUSH20 0xFFFFFFFFFFFFFFFFFFFFFFFFFFFFFFFFFFFFFFFF AND PUSH4 0x5D3B1D30 PUSH32 0x0 PUSH32 0x0 PUSH1 0x3 PUSH32 0x0 PUSH1 0x1 PUSH1 0x40 MLOAD DUP7 PUSH4 0xFFFFFFFF AND PUSH1 0xE0 SHL DUP2 MSTORE PUSH1 0x4 ADD PUSH2 0x72B SWAP6 SWAP5 SWAP4 SWAP3 SWAP2 SWAP1 PUSH2 0x1361 JUMP JUMPDEST PUSH1 0x20 PUSH1 0x40 MLOAD DUP1 DUP4 SUB DUP2 PUSH1 0x0 DUP8 DUP1 EXTCODESIZE ISZERO DUP1 ISZERO PUSH2 0x745 JUMPI PUSH1 0x0 DUP1 REVERT JUMPDEST POP GAS CALL ISZERO DUP1 ISZERO PUSH2 0x759 JUMPI RETURNDATASIZE PUSH1 0x0 DUP1 RETURNDATACOPY RETURNDATASIZE PUSH1 0x0 REVERT JUMPDEST POP POP POP POP PUSH1 0x40 MLOAD RETURNDATASIZE PUSH1 0x1F NOT PUSH1 0x1F DUP3 ADD AND DUP3 ADD DUP1 PUSH1 0x40 MSTORE POP DUP2 ADD SWAP1 PUSH2 0x77D SWAP2 SWAP1 PUSH2 0x13C9 JUMP JUMPDEST SWAP1 POP DUP1 PUSH32 0xCD6E45C8998311CAB7E9D4385596CAC867E20A0587194B954FA3A731C93CE78B PUSH1 0x40 MLOAD PUSH1 0x40 MLOAD DUP1 SWAP2 SUB SWAP1 LOG2 POP POP POP POP JUMP JUMPDEST PUSH1 0x0 DUP1 DUP3 DUP2 SLOAD DUP2 LT PUSH2 0x7C7 JUMPI PUSH2 0x7C6 PUSH2 0x13F6 JUMP JUMPDEST JUMPDEST SWAP1 PUSH1 0x0 MSTORE PUSH1 0x20 PUSH1 0x0 KECCAK256 ADD PUSH1 0x0 SWAP1 SLOAD SWAP1 PUSH2 0x100 EXP SWAP1 DIV PUSH20 0xFFFFFFFFFFFFFFFFFFFFFFFFFFFFFFFFFFFFFFFF AND SWAP1 POP SWAP2 SWAP1 POP JUMP JUMPDEST PUSH1 0x0 PUSH1 0x1 PUSH1 0x0 SWAP1 SLOAD SWAP1 PUSH2 0x100 EXP SWAP1 DIV PUSH20 0xFFFFFFFFFFFFFFFFFFFFFFFFFFFFFFFFFFFFFFFF AND SWAP1 POP SWAP1 JUMP JUMPDEST PUSH1 0x0 PUSH1 0x1 PUSH4 0xFFFFFFFF AND SWAP1 POP SWAP1 JUMP JUMPDEST PUSH1 0x0 PUSH1 0x60 PUSH1 0x0 PUSH1 0x1 PUSH1 0x14 SWAP1 SLOAD SWAP1 PUSH2 0x100 EXP SWAP1 DIV PUSH1 0xFF AND PUSH1 0x1 DUP2 GT ISZERO PUSH2 0x85A JUMPI PUSH2 0x859 PUSH2 0xC6B JUMP JUMPDEST JUMPDEST PUSH1 0x0 PUSH1 0x1 DUP2 GT ISZERO PUSH2 0x86E JUMPI PUSH2 0x86D PUSH2 0xC6B JUMP JUMPDEST JUMPDEST EQ SWAP1 POP PUSH1 0x0 PUSH32 0x0 PUSH1 0x2 SLOAD TIMESTAMP PUSH2 0x8A2 SWAP2 SWAP1 PUSH2 0x1454 JUMP JUMPDEST GT SWAP1 POP PUSH1 0x0 DUP1 PUSH1 0x0 DUP1 SLOAD SWAP1 POP GT SWAP1 POP PUSH1 0x0 DUP1 SELFBALANCE GT SWAP1 POP DUP3 DUP1 ISZERO PUSH2 0x8C2 JUMPI POP DUP2 JUMPDEST DUP1 ISZERO PUSH2 0x8CB JUMPI POP DUP1 JUMPDEST DUP1 ISZERO PUSH2 0x8D4 JUMPI POP DUP4 JUMPDEST SWAP6 POP POP POP POP POP SWAP2 POP SWAP2 JUMP JUMPDEST PUSH1 0x1 PUSH1 0x0 SWAP1 SLOAD SWAP1 PUSH2 0x100 EXP SWAP1 DIV PUSH20 0xFFFFFFFFFFFFFFFFFFFFFFFFFFFFFFFFFFFFFFFF AND DUP2 JUMP JUMPDEST PUSH1 0x0 PUSH32 0x0 SWAP1 POP SWAP1 JUMP JUMPDEST PUSH1 0x0 PUSH32 0x0 SWAP1 POP SWAP1 JUMP JUMPDEST PUSH1 0x0 PUSH1 0x3 SWAP1 POP SWAP1 JUMP JUMPDEST PUSH1 0x0 DUP1 DUP1 SLOAD SWAP1 POP DUP3 PUSH1 0x0 DUP2 MLOAD DUP2 LT PUSH2 0x979 JUMPI PUSH2 0x978 PUSH2 0x13F6 JUMP JUMPDEST JUMPDEST PUSH1 0x20 MUL PUSH1 0x20 ADD ADD MLOAD PUSH2 0x98B SWAP2 SWAP1 PUSH2 0x14B7 JUMP JUMPDEST SWAP1 POP PUSH1 0x0 DUP1 DUP3 DUP2 SLOAD DUP2 LT PUSH2 0x9A2 JUMPI PUSH2 0x9A1 PUSH2 0x13F6 JUMP JUMPDEST JUMPDEST SWAP1 PUSH1 0x0 MSTORE PUSH1 0x20 PUSH1 0x0 KECCAK256 ADD PUSH1 0x0 SWAP1 SLOAD SWAP1 PUSH2 0x100 EXP SWAP1 DIV PUSH20 0xFFFFFFFFFFFFFFFFFFFFFFFFFFFFFFFFFFFFFFFF AND SWAP1 POP DUP1 PUSH1 0x1 PUSH1 0x0 PUSH2 0x100 EXP DUP2 SLOAD DUP2 PUSH20 0xFFFFFFFFFFFFFFFFFFFFFFFFFFFFFFFFFFFFFFFF MUL NOT AND SWAP1 DUP4 PUSH20 0xFFFFFFFFFFFFFFFFFFFFFFFFFFFFFFFFFFFFFFFF AND MUL OR SWAP1 SSTORE POP PUSH1 0x0 PUSH1 0x1 PUSH1 0x14 PUSH2 0x100 EXP DUP2 SLOAD DUP2 PUSH1 0xFF MUL NOT AND SWAP1 DUP4 PUSH1 0x1 DUP2 GT ISZERO PUSH2 0xA36 JUMPI PUSH2 0xA35 PUSH2 0xC6B JUMP JUMPDEST JUMPDEST MUL OR SWAP1 SSTORE POP PUSH1 0x0 PUSH8 0xFFFFFFFFFFFFFFFF DUP2 GT ISZERO PUSH2 0xA56 JUMPI PUSH2 0xA55 PUSH2 0xD53 JUMP JUMPDEST JUMPDEST PUSH1 0x40 MLOAD SWAP1 DUP1 DUP3 MSTORE DUP1 PUSH1 0x20 MUL PUSH1 0x20 ADD DUP3 ADD PUSH1 0x40 MSTORE DUP1 ISZERO PUSH2 0xA84 JUMPI DUP2 PUSH1 0x20 ADD PUSH1 0x20 DUP3 MUL DUP1 CALLDATASIZE DUP4 CALLDATACOPY DUP1 DUP3 ADD SWAP2 POP POP SWAP1 POP JUMPDEST POP PUSH1 0x0 SWAP1 DUP1 MLOAD SWAP1 PUSH1 0x20 ADD SWAP1 PUSH2 0xA9A SWAP3 SWAP2 SWAP1 PUSH2 0xB90 JUMP JUMPDEST POP PUSH1 0x0 PUSH1 0x2 DUP2 SWAP1 SSTORE POP PUSH1 0x0 DUP2 PUSH20 0xFFFFFFFFFFFFFFFFFFFFFFFFFFFFFFFFFFFFFFFF AND SELFBALANCE PUSH1 0x40 MLOAD PUSH2 0xAC9 SWAP1 PUSH2 0x1519 JUMP JUMPDEST PUSH1 0x0 PUSH1 0x40 MLOAD DUP1 DUP4 SUB DUP2 DUP6 DUP8 GAS CALL SWAP3 POP POP POP RETURNDATASIZE DUP1 PUSH1 0x0 DUP2 EQ PUSH2 0xB06 JUMPI PUSH1 0x40 MLOAD SWAP2 POP PUSH1 0x1F NOT PUSH1 0x3F RETURNDATASIZE ADD AND DUP3 ADD PUSH1 0x40 MSTORE RETURNDATASIZE DUP3 MSTORE RETURNDATASIZE PUSH1 0x0 PUSH1 0x20 DUP5 ADD RETURNDATACOPY PUSH2 0xB0B JUMP JUMPDEST PUSH1 0x60 SWAP2 POP JUMPDEST POP POP SWAP1 POP DUP1 PUSH2 0xB46 JUMPI PUSH1 0x40 MLOAD PUSH32 0xA1D04B3900000000000000000000000000000000000000000000000000000000 DUP2 MSTORE PUSH1 0x4 ADD PUSH1 0x40 MLOAD DUP1 SWAP2 SUB SWAP1 REVERT JUMPDEST DUP2 PUSH20 0xFFFFFFFFFFFFFFFFFFFFFFFFFFFFFFFFFFFFFFFF AND PUSH32 0x5B690EC4A06FE979403046EAEEA5B3CE38524683C3001F662C8B5A829632F7DF PUSH1 0x40 MLOAD PUSH1 0x40 MLOAD DUP1 SWAP2 SUB SWAP1 LOG2 POP POP POP POP POP JUMP JUMPDEST DUP3 DUP1 SLOAD DUP3 DUP3 SSTORE SWAP1 PUSH1 0x0 MSTORE PUSH1 0x20 PUSH1 0x0 KECCAK256 SWAP1 DUP2 ADD SWAP3 DUP3 ISZERO PUSH2 0xC09 JUMPI SWAP2 PUSH1 0x20 MUL DUP3 ADD JUMPDEST DUP3 DUP2 GT ISZERO PUSH2 0xC08 JUMPI DUP3 MLOAD DUP3 PUSH1 0x0 PUSH2 0x100 EXP DUP2 SLOAD DUP2 PUSH20 0xFFFFFFFFFFFFFFFFFFFFFFFFFFFFFFFFFFFFFFFF MUL NOT AND SWAP1 DUP4 PUSH20 0xFFFFFFFFFFFFFFFFFFFFFFFFFFFFFFFFFFFFFFFF AND MUL OR SWAP1 SSTORE POP SWAP2 PUSH1 0x20 ADD SWAP2 SWAP1 PUSH1 0x1 ADD SWAP1 PUSH2 0xBB0 JUMP JUMPDEST JUMPDEST POP SWAP1 POP PUSH2 0xC16 SWAP2 SWAP1 PUSH2 0xC1A JUMP JUMPDEST POP SWAP1 JUMP JUMPDEST JUMPDEST DUP1 DUP3 GT ISZERO PUSH2 0xC33 JUMPI PUSH1 0x0 DUP2 PUSH1 0x0 SWAP1 SSTORE POP PUSH1 0x1 ADD PUSH2 0xC1B JUMP JUMPDEST POP SWAP1 JUMP JUMPDEST PUSH1 0x0 DUP2 SWAP1 POP SWAP2 SWAP1 POP JUMP JUMPDEST PUSH2 0xC4A DUP2 PUSH2 0xC37 JUMP JUMPDEST DUP3 MSTORE POP POP JUMP JUMPDEST PUSH1 0x0 PUSH1 0x20 DUP3 ADD SWAP1 POP PUSH2 0xC65 PUSH1 0x0 DUP4 ADD DUP5 PUSH2 0xC41 JUMP JUMPDEST SWAP3 SWAP2 POP POP JUMP JUMPDEST PUSH32 0x4E487B7100000000000000000000000000000000000000000000000000000000 PUSH1 0x0 MSTORE PUSH1 0x21 PUSH1 0x4 MSTORE PUSH1 0x24 PUSH1 0x0 REVERT JUMPDEST PUSH1 0x2 DUP2 LT PUSH2 0xCAB JUMPI PUSH2 0xCAA PUSH2 0xC6B JUMP JUMPDEST JUMPDEST POP JUMP JUMPDEST PUSH1 0x0 DUP2 SWAP1 POP PUSH2 0xCBC DUP3 PUSH2 0xC9A JUMP JUMPDEST SWAP2 SWAP1 POP JUMP JUMPDEST PUSH1 0x0 PUSH2 0xCCC DUP3 PUSH2 0xCAE JUMP JUMPDEST SWAP1 POP SWAP2 SWAP1 POP JUMP JUMPDEST PUSH2 0xCDC DUP2 PUSH2 0xCC1 JUMP JUMPDEST DUP3 MSTORE POP POP JUMP JUMPDEST PUSH1 0x0 PUSH1 0x20 DUP3 ADD SWAP1 POP PUSH2 0xCF7 PUSH1 0x0 DUP4 ADD DUP5 PUSH2 0xCD3 JUMP JUMPDEST SWAP3 SWAP2 POP POP JUMP JUMPDEST PUSH1 0x0 PUSH1 0x40 MLOAD SWAP1 POP SWAP1 JUMP JUMPDEST PUSH1 0x0 DUP1 REVERT JUMPDEST PUSH1 0x0 DUP1 REVERT JUMPDEST PUSH2 0xD1A DUP2 PUSH2 0xC37 JUMP JUMPDEST DUP2 EQ PUSH2 0xD25 JUMPI PUSH1 0x0 DUP1 REVERT JUMPDEST POP JUMP JUMPDEST PUSH1 0x0 DUP2 CALLDATALOAD SWAP1 POP PUSH2 0xD37 DUP2 PUSH2 0xD11 JUMP JUMPDEST SWAP3 SWAP2 POP POP JUMP JUMPDEST PUSH1 0x0 DUP1 REVERT JUMPDEST PUSH1 0x0 PUSH1 0x1F NOT PUSH1 0x1F DUP4 ADD AND SWAP1 POP SWAP2 SWAP1 POP JUMP JUMPDEST PUSH32 0x4E487B7100000000000000000000000000000000000000000000000000000000 PUSH1 0x0 MSTORE PUSH1 0x41 PUSH1 0x4 MSTORE PUSH1 0x24 PUSH1 0x0 REVERT JUMPDEST PUSH2 0xD8B DUP3 PUSH2 0xD42 JUMP JUMPDEST DUP2 ADD DUP2 DUP2 LT PUSH8 0xFFFFFFFFFFFFFFFF DUP3 GT OR ISZERO PUSH2 0xDAA JUMPI PUSH2 0xDA9 PUSH2 0xD53 JUMP JUMPDEST JUMPDEST DUP1 PUSH1 0x40 MSTORE POP POP POP JUMP JUMPDEST PUSH1 0x0 PUSH2 0xDBD PUSH2 0xCFD JUMP JUMPDEST SWAP1 POP PUSH2 0xDC9 DUP3 DUP3 PUSH2 0xD82 JUMP JUMPDEST SWAP2 SWAP1 POP JUMP JUMPDEST PUSH1 0x0 PUSH8 0xFFFFFFFFFFFFFFFF DUP3 GT ISZERO PUSH2 0xDE9 JUMPI PUSH2 0xDE8 PUSH2 0xD53 JUMP JUMPDEST JUMPDEST PUSH1 0x20 DUP3 MUL SWAP1 POP PUSH1 0x20 DUP2 ADD SWAP1 POP SWAP2 SWAP1 POP JUMP JUMPDEST PUSH1 0x0 DUP1 REVERT JUMPDEST PUSH1 0x0 PUSH2 0xE12 PUSH2 0xE0D DUP5 PUSH2 0xDCE JUMP JUMPDEST PUSH2 0xDB3 JUMP JUMPDEST SWAP1 POP DUP1 DUP4 DUP3 MSTORE PUSH1 0x20 DUP3 ADD SWAP1 POP PUSH1 0x20 DUP5 MUL DUP4 ADD DUP6 DUP2 GT ISZERO PUSH2 0xE35 JUMPI PUSH2 0xE34 PUSH2 0xDFA JUMP JUMPDEST JUMPDEST DUP4 JUMPDEST DUP2 DUP2 LT ISZERO PUSH2 0xE5E JUMPI DUP1 PUSH2 0xE4A DUP9 DUP3 PUSH2 0xD28 JUMP JUMPDEST DUP5 MSTORE PUSH1 0x20 DUP5 ADD SWAP4 POP POP PUSH1 0x20 DUP2 ADD SWAP1 POP PUSH2 0xE37 JUMP JUMPDEST POP POP POP SWAP4 SWAP3 POP POP POP JUMP JUMPDEST PUSH1 0x0 DUP3 PUSH1 0x1F DUP4 ADD SLT PUSH2 0xE7D JUMPI PUSH2 0xE7C PUSH2 0xD3D JUMP JUMPDEST JUMPDEST DUP2 CALLDATALOAD PUSH2 0xE8D DUP5 DUP3 PUSH1 0x20 DUP7 ADD PUSH2 0xDFF JUMP JUMPDEST SWAP2 POP POP SWAP3 SWAP2 POP POP JUMP JUMPDEST PUSH1 0x0 DUP1 PUSH1 0x40 DUP4 DUP6 SUB SLT ISZERO PUSH2 0xEAD JUMPI PUSH2 0xEAC PUSH2 0xD07 JUMP JUMPDEST JUMPDEST PUSH1 0x0 PUSH2 0xEBB DUP6 DUP3 DUP7 ADD PUSH2 0xD28 JUMP JUMPDEST SWAP3 POP POP PUSH1 0x20 DUP4 ADD CALLDATALOAD PUSH8 0xFFFFFFFFFFFFFFFF DUP2 GT ISZERO PUSH2 0xEDC JUMPI PUSH2 0xEDB PUSH2 0xD0C JUMP JUMPDEST JUMPDEST PUSH2 0xEE8 DUP6 DUP3 DUP7 ADD PUSH2 0xE68 JUMP JUMPDEST SWAP2 POP POP SWAP3 POP SWAP3 SWAP1 POP JUMP JUMPDEST PUSH1 0x0 DUP1 REVERT JUMPDEST PUSH1 0x0 DUP1 DUP4 PUSH1 0x1F DUP5 ADD SLT PUSH2 0xF0D JUMPI PUSH2 0xF0C PUSH2 0xD3D JUMP JUMPDEST JUMPDEST DUP3 CALLDATALOAD SWAP1 POP PUSH8 0xFFFFFFFFFFFFFFFF DUP2 GT ISZERO PUSH2 0xF2A JUMPI PUSH2 0xF29 PUSH2 0xEF2 JUMP JUMPDEST JUMPDEST PUSH1 0x20 DUP4 ADD SWAP2 POP DUP4 PUSH1 0x1 DUP3 MUL DUP4 ADD GT ISZERO PUSH2 0xF46 JUMPI PUSH2 0xF45 PUSH2 0xDFA JUMP JUMPDEST JUMPDEST SWAP3 POP SWAP3 SWAP1 POP JUMP JUMPDEST PUSH1 0x0 DUP1 PUSH1 0x20 DUP4 DUP6 SUB SLT ISZERO PUSH2 0xF64 JUMPI PUSH2 0xF63 PUSH2 0xD07 JUMP JUMPDEST JUMPDEST PUSH1 0x0 DUP4 ADD CALLDATALOAD PUSH8 0xFFFFFFFFFFFFFFFF DUP2 GT ISZERO PUSH2 0xF82 JUMPI PUSH2 0xF81 PUSH2 0xD0C JUMP JUMPDEST JUMPDEST PUSH2 0xF8E DUP6 DUP3 DUP7 ADD PUSH2 0xEF7 JUMP JUMPDEST SWAP3 POP SWAP3 POP POP SWAP3 POP SWAP3 SWAP1 POP JUMP JUMPDEST PUSH1 0x0 PUSH1 0x20 DUP3 DUP5 SUB SLT ISZERO PUSH2 0xFB0 JUMPI PUSH2 0xFAF PUSH2 0xD07 JUMP JUMPDEST JUMPDEST PUSH1 0x0 PUSH2 0xFBE DUP5 DUP3 DUP6 ADD PUSH2 0xD28 JUMP JUMPDEST SWAP2 POP POP SWAP3 SWAP2 POP POP JUMP JUMPDEST PUSH1 0x0 PUSH20 0xFFFFFFFFFFFFFFFFFFFFFFFFFFFFFFFFFFFFFFFF DUP3 AND SWAP1 POP SWAP2 SWAP1 POP JUMP JUMPDEST PUSH1 0x0 PUSH2 0xFF2 DUP3 PUSH2 0xFC7 JUMP JUMPDEST SWAP1 POP SWAP2 SWAP1 POP JUMP JUMPDEST PUSH2 0x1002 DUP2 PUSH2 0xFE7 JUMP JUMPDEST DUP3 MSTORE POP POP JUMP JUMPDEST PUSH1 0x0 PUSH1 0x20 DUP3 ADD SWAP1 POP PUSH2 0x101D PUSH1 0x0 DUP4 ADD DUP5 PUSH2 0xFF9 JUMP JUMPDEST SWAP3 SWAP2 POP POP JUMP JUMPDEST PUSH1 0x0 DUP1 REVERT JUMPDEST PUSH1 0x0 PUSH8 0xFFFFFFFFFFFFFFFF DUP3 GT ISZERO PUSH2 0x1043 JUMPI PUSH2 0x1042 PUSH2 0xD53 JUMP JUMPDEST JUMPDEST PUSH2 0x104C DUP3 PUSH2 0xD42 JUMP JUMPDEST SWAP1 POP PUSH1 0x20 DUP2 ADD SWAP1 POP SWAP2 SWAP1 POP JUMP JUMPDEST DUP3 DUP2 DUP4 CALLDATACOPY PUSH1 0x0 DUP4 DUP4 ADD MSTORE POP POP POP JUMP JUMPDEST PUSH1 0x0 PUSH2 0x107B PUSH2 0x1076 DUP5 PUSH2 0x1028 JUMP JUMPDEST PUSH2 0xDB3 JUMP JUMPDEST SWAP1 POP DUP3 DUP2 MSTORE PUSH1 0x20 DUP2 ADD DUP5 DUP5 DUP5 ADD GT ISZERO PUSH2 0x1097 JUMPI PUSH2 0x1096 PUSH2 0x1023 JUMP JUMPDEST JUMPDEST PUSH2 0x10A2 DUP5 DUP3 DUP6 PUSH2 0x1059 JUMP JUMPDEST POP SWAP4 SWAP3 POP POP POP JUMP JUMPDEST PUSH1 0x0 DUP3 PUSH1 0x1F DUP4 ADD SLT PUSH2 0x10BF JUMPI PUSH2 0x10BE PUSH2 0xD3D JUMP JUMPDEST JUMPDEST DUP2 CALLDATALOAD PUSH2 0x10CF DUP5 DUP3 PUSH1 0x20 DUP7 ADD PUSH2 0x1068 JUMP JUMPDEST SWAP2 POP POP SWAP3 SWAP2 POP POP JUMP JUMPDEST PUSH1 0x0 PUSH1 0x20 DUP3 DUP5 SUB SLT ISZERO PUSH2 0x10EE JUMPI PUSH2 0x10ED PUSH2 0xD07 JUMP JUMPDEST JUMPDEST PUSH1 0x0 DUP3 ADD CALLDATALOAD PUSH8 0xFFFFFFFFFFFFFFFF DUP2 GT ISZERO PUSH2 0x110C JUMPI PUSH2 0x110B PUSH2 0xD0C JUMP JUMPDEST JUMPDEST PUSH2 0x1118 DUP5 DUP3 DUP6 ADD PUSH2 0x10AA JUMP JUMPDEST SWAP2 POP POP SWAP3 SWAP2 POP POP JUMP JUMPDEST PUSH1 0x0 DUP2 ISZERO ISZERO SWAP1 POP SWAP2 SWAP1 POP JUMP JUMPDEST PUSH2 0x1136 DUP2 PUSH2 0x1121 JUMP JUMPDEST DUP3 MSTORE POP POP JUMP JUMPDEST PUSH1 0x0 DUP2 MLOAD SWAP1 POP SWAP2 SWAP1 POP JUMP JUMPDEST PUSH1 0x0 DUP3 DUP3 MSTORE PUSH1 0x20 DUP3 ADD SWAP1 POP SWAP3 SWAP2 POP POP JUMP JUMPDEST PUSH1 0x0 JUMPDEST DUP4 DUP2 LT ISZERO PUSH2 0x1176 JUMPI DUP1 DUP3 ADD MLOAD DUP2 DUP5 ADD MSTORE PUSH1 0x20 DUP2 ADD SWAP1 POP PUSH2 0x115B JUMP JUMPDEST DUP4 DUP2 GT ISZERO PUSH2 0x1185 JUMPI PUSH1 0x0 DUP5 DUP5 ADD MSTORE JUMPDEST POP POP POP POP JUMP JUMPDEST PUSH1 0x0 PUSH2 0x1196 DUP3 PUSH2 0x113C JUMP JUMPDEST PUSH2 0x11A0 DUP2 DUP6 PUSH2 0x1147 JUMP JUMPDEST SWAP4 POP PUSH2 0x11B0 DUP2 DUP6 PUSH1 0x20 DUP7 ADD PUSH2 0x1158 JUMP JUMPDEST PUSH2 0x11B9 DUP2 PUSH2 0xD42 JUMP JUMPDEST DUP5 ADD SWAP2 POP POP SWAP3 SWAP2 POP POP JUMP JUMPDEST PUSH1 0x0 PUSH1 0x40 DUP3 ADD SWAP1 POP PUSH2 0x11D9 PUSH1 0x0 DUP4 ADD DUP6 PUSH2 0x112D JUMP JUMPDEST DUP2 DUP2 SUB PUSH1 0x20 DUP4 ADD MSTORE PUSH2 0x11EB DUP2 DUP5 PUSH2 0x118B JUMP JUMPDEST SWAP1 POP SWAP4 SWAP3 POP POP POP JUMP JUMPDEST PUSH1 0x0 DUP2 SWAP1 POP SWAP2 SWAP1 POP JUMP JUMPDEST PUSH1 0x0 PUSH2 0x1219 PUSH2 0x1214 PUSH2 0x120F DUP5 PUSH2 0xFC7 JUMP JUMPDEST PUSH2 0x11F4 JUMP JUMPDEST PUSH2 0xFC7 JUMP JUMPDEST SWAP1 POP SWAP2 SWAP1 POP JUMP JUMPDEST PUSH1 0x0 PUSH2 0x122B DUP3 PUSH2 0x11FE JUMP JUMPDEST SWAP1 POP SWAP2 SWAP1 POP JUMP JUMPDEST PUSH1 0x0 PUSH2 0x123D DUP3 PUSH2 0x1220 JUMP JUMPDEST SWAP1 POP SWAP2 SWAP1 POP JUMP JUMPDEST PUSH2 0x124D DUP2 PUSH2 0x1232 JUMP JUMPDEST DUP3 MSTORE POP POP JUMP JUMPDEST PUSH1 0x0 PUSH1 0x20 DUP3 ADD SWAP1 POP PUSH2 0x1268 PUSH1 0x0 DUP4 ADD DUP5 PUSH2 0x1244 JUMP JUMPDEST SWAP3 SWAP2 POP POP JUMP JUMPDEST PUSH1 0x0 PUSH2 0xFFFF DUP3 AND SWAP1 POP SWAP2 SWAP1 POP JUMP JUMPDEST PUSH2 0x1285 DUP2 PUSH2 0x126E JUMP JUMPDEST DUP3 MSTORE POP POP JUMP JUMPDEST PUSH1 0x0 PUSH1 0x20 DUP3 ADD SWAP1 POP PUSH2 0x12A0 PUSH1 0x0 DUP4 ADD DUP5 PUSH2 0x127C JUMP JUMPDEST SWAP3 SWAP2 POP POP JUMP JUMPDEST PUSH1 0x0 PUSH1 0x40 DUP3 ADD SWAP1 POP PUSH2 0x12BB PUSH1 0x0 DUP4 ADD DUP6 PUSH2 0xFF9 JUMP JUMPDEST PUSH2 0x12C8 PUSH1 0x20 DUP4 ADD DUP5 PUSH2 0xFF9 JUMP JUMPDEST SWAP4 SWAP3 POP POP POP JUMP JUMPDEST PUSH1 0x0 PUSH1 0x60 DUP3 ADD SWAP1 POP PUSH2 0x12E4 PUSH1 0x0 DUP4 ADD DUP7 PUSH2 0xC41 JUMP JUMPDEST PUSH2 0x12F1 PUSH1 0x20 DUP4 ADD DUP6 PUSH2 0xC41 JUMP JUMPDEST PUSH2 0x12FE PUSH1 0x40 DUP4 ADD DUP5 PUSH2 0xC41 JUMP JUMPDEST SWAP5 SWAP4 POP POP POP POP JUMP JUMPDEST PUSH1 0x0 DUP2 SWAP1 POP SWAP2 SWAP1 POP JUMP JUMPDEST PUSH2 0x1319 DUP2 PUSH2 0x1306 JUMP JUMPDEST DUP3 MSTORE POP POP JUMP JUMPDEST PUSH1 0x0 PUSH8 0xFFFFFFFFFFFFFFFF DUP3 AND SWAP1 POP SWAP2 SWAP1 POP JUMP JUMPDEST PUSH2 0x133C DUP2 PUSH2 0x131F JUMP JUMPDEST DUP3 MSTORE POP POP JUMP JUMPDEST PUSH1 0x0 PUSH4 0xFFFFFFFF DUP3 AND SWAP1 POP SWAP2 SWAP1 POP JUMP JUMPDEST PUSH2 0x135B DUP2 PUSH2 0x1342 JUMP JUMPDEST DUP3 MSTORE POP POP JUMP JUMPDEST PUSH1 0x0 PUSH1 0xA0 DUP3 ADD SWAP1 POP PUSH2 0x1376 PUSH1 0x0 DUP4 ADD DUP9 PUSH2 0x1310 JUMP JUMPDEST PUSH2 0x1383 PUSH1 0x20 DUP4 ADD DUP8 PUSH2 0x1333 JUMP JUMPDEST PUSH2 0x1390 PUSH1 0x40 DUP4 ADD DUP7 PUSH2 0x127C JUMP JUMPDEST PUSH2 0x139D PUSH1 0x60 DUP4 ADD DUP6 PUSH2 0x1352 JUMP JUMPDEST PUSH2 0x13AA PUSH1 0x80 DUP4 ADD DUP5 PUSH2 0x1352 JUMP JUMPDEST SWAP7 SWAP6 POP POP POP POP POP POP JUMP JUMPDEST PUSH1 0x0 DUP2 MLOAD SWAP1 POP PUSH2 0x13C3 DUP2 PUSH2 0xD11 JUMP JUMPDEST SWAP3 SWAP2 POP POP JUMP JUMPDEST PUSH1 0x0 PUSH1 0x20 DUP3 DUP5 SUB SLT ISZERO PUSH2 0x13DF JUMPI PUSH2 0x13DE PUSH2 0xD07 JUMP JUMPDEST JUMPDEST PUSH1 0x0 PUSH2 0x13ED DUP5 DUP3 DUP6 ADD PUSH2 0x13B4 JUMP JUMPDEST SWAP2 POP POP SWAP3 SWAP2 POP POP JUMP JUMPDEST PUSH32 0x4E487B7100000000000000000000000000000000000000000000000000000000 PUSH1 0x0 MSTORE PUSH1 0x32 PUSH1 0x4 MSTORE PUSH1 0x24 PUSH1 0x0 REVERT JUMPDEST PUSH32 0x4E487B7100000000000000000000000000000000000000000000000000000000 PUSH1 0x0 MSTORE PUSH1 0x11 PUSH1 0x4 MSTORE PUSH1 0x24 PUSH1 0x0 REVERT JUMPDEST PUSH1 0x0 PUSH2 0x145F DUP3 PUSH2 0xC37 JUMP JUMPDEST SWAP2 POP PUSH2 0x146A DUP4 PUSH2 0xC37 JUMP JUMPDEST SWAP3 POP DUP3 DUP3 LT ISZERO PUSH2 0x147D JUMPI PUSH2 0x147C PUSH2 0x1425 JUMP JUMPDEST JUMPDEST DUP3 DUP3 SUB SWAP1 POP SWAP3 SWAP2 POP POP JUMP JUMPDEST PUSH32 0x4E487B7100000000000000000000000000000000000000000000000000000000 PUSH1 0x0 MSTORE PUSH1 0x12 PUSH1 0x4 MSTORE PUSH1 0x24 PUSH1 0x0 REVERT JUMPDEST PUSH1 0x0 PUSH2 0x14C2 DUP3 PUSH2 0xC37 JUMP JUMPDEST SWAP2 POP PUSH2 0x14CD DUP4 PUSH2 0xC37 JUMP JUMPDEST SWAP3 POP DUP3 PUSH2 0x14DD JUMPI PUSH2 0x14DC PUSH2 0x1488 JUMP JUMPDEST JUMPDEST DUP3 DUP3 MOD SWAP1 POP SWAP3 SWAP2 POP POP JUMP JUMPDEST PUSH1 0x0 DUP2 SWAP1 POP SWAP3 SWAP2 POP POP JUMP JUMPDEST POP JUMP JUMPDEST PUSH1 0x0 PUSH2 0x1503 PUSH1 0x0 DUP4 PUSH2 0x14E8 JUMP JUMPDEST SWAP2 POP PUSH2 0x150E DUP3 PUSH2 0x14F3 JUMP JUMPDEST PUSH1 0x0 DUP3 ADD SWAP1 POP SWAP2 SWAP1 POP JUMP JUMPDEST PUSH1 0x0 PUSH2 0x1524 DUP3 PUSH2 0x14F6 JUMP JUMPDEST SWAP2 POP DUP2 SWAP1 POP SWAP2 SWAP1 POP JUMP INVALID LOG2 PUSH5 0x6970667358 0x22 SLT KECCAK256 0x27 0x22 0xB0 0xD4 0xD3 PUSH32 0x3F4D718BC581AC3F737D755A829AE8ECC71E5308D8798ECE260E64736F6C6343 STOP ADDMOD ADDMOD STOP CALLER "},"gasEstimates":{"creation":{"codeDepositCost":"1095200","executionCost":"infinite","totalCost":"infinite"},"external":{"checkUpkeep(bytes)":"infinite","enterRaffle()":"infinite","getEntranceFee()":"infinite","getLatestTimeStamp()":"2482","getNumWords()":"388","getOwner()":"infinite","getPlayers(uint256)":"5056","getRaffleState()":"2664","getRecentWinner()":"2545","getRequestConfirmation()":"431","getVRFCoordinator()":"infinite","performUpkeep(bytes)":"infinite","rawFulfillRandomWords(uint256,uint256[])":"infinite","s_recentWinner()":"2536"},"internal":{"fulfillRandomWords(uint256,uint256[] memory)":"infinite"}},"methodIdentifiers":{"checkUpkeep(bytes)":"6e04ff0d","enterRaffle()":"2cfcc539","getEntranceFee()":"09bc33a7","getLatestTimeStamp()":"320229eb","getNumWords()":"53a2c19a","getOwner()":"893d20e8","getPlayers(uint256)":"460e2049","getRaffleState()":"115cbaf5","getRecentWinner()":"473f1ddc","getRequestConfirmation()":"ca6a9ef8","getVRFCoordinator()":"a378f371","performUpkeep(bytes)":"4585e33b","rawFulfillRandomWords(uint256,uint256[])":"1fe543e3","s_recentWinner()":"8638b0c6"}},"storageLayout":{"storage":[{"astId":243,"contract":"contracts/Raffle.sol:Raffle","label":"s_players","offset":0,"slot":"0","type":"t_array(t_address_payable)dyn_storage"},{"astId":264,"contract":"contracts/Raffle.sol:Raffle","label":"s_recentWinner","offset":0,"slot":"1","type":"t_address"},{"astId":267,"contract":"contracts/Raffle.sol:Raffle","label":"s_raffleState","offset":20,"slot":"1","type":"t_enum(RaffleState)240"},{"astId":269,"contract":"contracts/Raffle.sol:Raffle","label":"s_lastTimeStamp","offset":0,"slot":"2","type":"t_uint256"}],"types":{"t_address":{"encoding":"inplace","label":"address","numberOfBytes":"20"},"t_address_payable":{"encoding":"inplace","label":"address payable","numberOfBytes":"20"},"t_array(t_address_payable)dyn_storage":{"base":"t_address_payable","encoding":"dynamic_array","label":"address payable[]","numberOfBytes":"32"},"t_enum(RaffleState)240":{"encoding":"inplace","label":"enum Raffle.RaffleState","numberOfBytes":"1"},"t_uint256":{"encoding":"inplace","label":"uint256","numberOfBytes":"32"}}},"userdoc":{"kind":"user","methods":{},"notice":"This contract is for creating an umtamperable decentralized smart contract","version":1}}}}