{"contracts/Raffle.sol":{"Raffle":{"abi":[{"inputs":[{"internalType":"uint256","name":"enteranceFee","type":"uint256"}],"stateMutability":"nonpayable","type":"constructor"},{"inputs":[],"name":"Raffle__notEnoughEthSent","type":"error"},{"anonymous":false,"inputs":[{"indexed":true,"internalType":"address","name":"players","type":"address"}],"name":"RaffleEnter","type":"event"},{"inputs":[{"internalType":"address","name":"","type":"address"}],"name":"addressToAmount","outputs":[{"internalType":"uint256","name":"","type":"uint256"}],"stateMutability":"view","type":"function"},{"inputs":[],"name":"enterRaffle","outputs":[],"stateMutability":"payable","type":"function"},{"inputs":[],"name":"getEntranceFee","outputs":[{"internalType":"uint256","name":"","type":"uint256"}],"stateMutability":"view","type":"function"},{"inputs":[],"name":"getOwner","outputs":[{"internalType":"address","name":"","type":"address"}],"stateMutability":"view","type":"function"},{"inputs":[{"internalType":"uint256","name":"index","type":"uint256"}],"name":"getPlayers","outputs":[{"internalType":"address","name":"","type":"address"}],"stateMutability":"view","type":"function"}],"devdoc":{"kind":"dev","methods":{},"version":1},"evm":{"bytecode":{"linkReferences":{},"object":"60c060405234801561001057600080fd5b5060405161076438038061076483398181016040528101906100329190610103565b61004c678b148bcb767c1b4f60c01b6100c560201b60201c565b61006667571284187555459960c01b6100c560201b60201c565b8060808181525050610088679dd622a8b4a59ea860c01b6100c560201b60201c565b3373ffffffffffffffffffffffffffffffffffffffff1660a08173ffffffffffffffffffffffffffffffffffffffff1660601b8152505050610130565b50565b600080fd5b6000819050919050565b6100e0816100cd565b81146100eb57600080fd5b50565b6000815190506100fd816100d7565b92915050565b600060208284031215610119576101186100c8565b5b6000610127848285016100ee565b91505092915050565b60805160a05160601c61060561015f600039600061043201526000818161016901526101cb01526106056000f3fe60806040526004361061004a5760003560e01c806309bc33a71461004f5780632cfcc5391461007a5780633c7e7d2814610084578063460e2049146100c1578063893d20e8146100fe575b600080fd5b34801561005b57600080fd5b50610064610129565b6040516100719190610472565b60405180910390f35b61008261018d565b005b34801561009057600080fd5b506100ab60048036038101906100a691906104f0565b610356565b6040516100b89190610472565b60405180910390f35b3480156100cd57600080fd5b506100e860048036038101906100e39190610549565b61036e565b6040516100f59190610585565b60405180910390f35b34801561010a57600080fd5b506101136103f2565b6040516101209190610585565b60405180910390f35b600061013f67eaef822582e517e060c01b610456565b61015367af836f44d8512aa760c01b610456565b61016767545ea0219fb997ad60c01b610456565b7f0000000000000000000000000000000000000000000000000000000000000000905090565b6101a1672ef87b383742810a60c01b610456565b6101b567049ce7af430e5f9560c01b610456565b6101c9673bc0227e563feb1e60c01b610456565b7f0000000000000000000000000000000000000000000000000000000000000000341161024a5761020467312359bfe3538afa60c01b610456565b61021867d27fceb4a30f8e9260c01b610456565b6040517f93a0491300000000000000000000000000000000000000000000000000000000815260040160405180910390fd5b61025e67fddf99bbeb13263760c01b610456565b6102726720ddc66da9f1695060c01b610456565b6102866771f034d2495827bd60c01b610456565b6001339080600181540180825580915050600190039060005260206000200160009091909190916101000a81548173ffffffffffffffffffffffffffffffffffffffff021916908373ffffffffffffffffffffffffffffffffffffffff1602179055506102fd673201ace6fbcb421a60c01b610456565b6103116762d3efb11a32887760c01b610456565b3373ffffffffffffffffffffffffffffffffffffffff167f0805e1d667bddb8a95f0f09880cf94f403fb596ce79928d9f29b74203ba284d460405160405180910390a2565b60006020528060005260406000206000915090505481565b6000610384678d821252c458292260c01b610456565b61039867ac209d6671265a6760c01b610456565b6103ac67ab6d1da6b9cc89cf60c01b610456565b600182815481106103c0576103bf6105a0565b5b9060005260206000200160009054906101000a900473ffffffffffffffffffffffffffffffffffffffff169050919050565b600061040867991802e238c5927260c01b610456565b61041c679092d30a956f98f860c01b610456565b6104306732085ce86596d02d60c01b610456565b7f0000000000000000000000000000000000000000000000000000000000000000905090565b50565b6000819050919050565b61046c81610459565b82525050565b60006020820190506104876000830184610463565b92915050565b600080fd5b600073ffffffffffffffffffffffffffffffffffffffff82169050919050565b60006104bd82610492565b9050919050565b6104cd816104b2565b81146104d857600080fd5b50565b6000813590506104ea816104c4565b92915050565b6000602082840312156105065761050561048d565b5b6000610514848285016104db565b91505092915050565b61052681610459565b811461053157600080fd5b50565b6000813590506105438161051d565b92915050565b60006020828403121561055f5761055e61048d565b5b600061056d84828501610534565b91505092915050565b61057f816104b2565b82525050565b600060208201905061059a6000830184610576565b92915050565b7f4e487b7100000000000000000000000000000000000000000000000000000000600052603260045260246000fdfea264697066735822122026539263bf27a74c51be7a0f39ff3d79b66dd2f3784e8d458bf87af4690a009464736f6c63430008080033","opcodes":"PUSH1 0xC0 PUSH1 0x40 MSTORE CALLVALUE DUP1 ISZERO PUSH2 0x10 JUMPI PUSH1 0x0 DUP1 REVERT JUMPDEST POP PUSH1 0x40 MLOAD PUSH2 0x764 CODESIZE SUB DUP1 PUSH2 0x764 DUP4 CODECOPY DUP2 DUP2 ADD PUSH1 0x40 MSTORE DUP2 ADD SWAP1 PUSH2 0x32 SWAP2 SWAP1 PUSH2 0x103 JUMP JUMPDEST PUSH2 0x4C PUSH8 0x8B148BCB767C1B4F PUSH1 0xC0 SHL PUSH2 0xC5 PUSH1 0x20 SHL PUSH1 0x20 SHR JUMP JUMPDEST PUSH2 0x66 PUSH8 0x5712841875554599 PUSH1 0xC0 SHL PUSH2 0xC5 PUSH1 0x20 SHL PUSH1 0x20 SHR JUMP JUMPDEST DUP1 PUSH1 0x80 DUP2 DUP2 MSTORE POP POP PUSH2 0x88 PUSH8 0x9DD622A8B4A59EA8 PUSH1 0xC0 SHL PUSH2 0xC5 PUSH1 0x20 SHL PUSH1 0x20 SHR JUMP JUMPDEST CALLER PUSH20 0xFFFFFFFFFFFFFFFFFFFFFFFFFFFFFFFFFFFFFFFF AND PUSH1 0xA0 DUP2 PUSH20 0xFFFFFFFFFFFFFFFFFFFFFFFFFFFFFFFFFFFFFFFF AND PUSH1 0x60 SHL DUP2 MSTORE POP POP POP PUSH2 0x130 JUMP JUMPDEST POP JUMP JUMPDEST PUSH1 0x0 DUP1 REVERT JUMPDEST PUSH1 0x0 DUP2 SWAP1 POP SWAP2 SWAP1 POP JUMP JUMPDEST PUSH2 0xE0 DUP2 PUSH2 0xCD JUMP JUMPDEST DUP2 EQ PUSH2 0xEB JUMPI PUSH1 0x0 DUP1 REVERT JUMPDEST POP JUMP JUMPDEST PUSH1 0x0 DUP2 MLOAD SWAP1 POP PUSH2 0xFD DUP2 PUSH2 0xD7 JUMP JUMPDEST SWAP3 SWAP2 POP POP JUMP JUMPDEST PUSH1 0x0 PUSH1 0x20 DUP3 DUP5 SUB SLT ISZERO PUSH2 0x119 JUMPI PUSH2 0x118 PUSH2 0xC8 JUMP JUMPDEST JUMPDEST PUSH1 0x0 PUSH2 0x127 DUP5 DUP3 DUP6 ADD PUSH2 0xEE JUMP JUMPDEST SWAP2 POP POP SWAP3 SWAP2 POP POP JUMP JUMPDEST PUSH1 0x80 MLOAD PUSH1 0xA0 MLOAD PUSH1 0x60 SHR PUSH2 0x605 PUSH2 0x15F PUSH1 0x0 CODECOPY PUSH1 0x0 PUSH2 0x432 ADD MSTORE PUSH1 0x0 DUP2 DUP2 PUSH2 0x169 ADD MSTORE PUSH2 0x1CB ADD MSTORE PUSH2 0x605 PUSH1 0x0 RETURN INVALID PUSH1 0x80 PUSH1 0x40 MSTORE PUSH1 0x4 CALLDATASIZE LT PUSH2 0x4A JUMPI PUSH1 0x0 CALLDATALOAD PUSH1 0xE0 SHR DUP1 PUSH4 0x9BC33A7 EQ PUSH2 0x4F JUMPI DUP1 PUSH4 0x2CFCC539 EQ PUSH2 0x7A JUMPI DUP1 PUSH4 0x3C7E7D28 EQ PUSH2 0x84 JUMPI DUP1 PUSH4 0x460E2049 EQ PUSH2 0xC1 JUMPI DUP1 PUSH4 0x893D20E8 EQ PUSH2 0xFE JUMPI JUMPDEST PUSH1 0x0 DUP1 REVERT JUMPDEST CALLVALUE DUP1 ISZERO PUSH2 0x5B JUMPI PUSH1 0x0 DUP1 REVERT JUMPDEST POP PUSH2 0x64 PUSH2 0x129 JUMP JUMPDEST PUSH1 0x40 MLOAD PUSH2 0x71 SWAP2 SWAP1 PUSH2 0x472 JUMP JUMPDEST PUSH1 0x40 MLOAD DUP1 SWAP2 SUB SWAP1 RETURN JUMPDEST PUSH2 0x82 PUSH2 0x18D JUMP JUMPDEST STOP JUMPDEST CALLVALUE DUP1 ISZERO PUSH2 0x90 JUMPI PUSH1 0x0 DUP1 REVERT JUMPDEST POP PUSH2 0xAB PUSH1 0x4 DUP1 CALLDATASIZE SUB DUP2 ADD SWAP1 PUSH2 0xA6 SWAP2 SWAP1 PUSH2 0x4F0 JUMP JUMPDEST PUSH2 0x356 JUMP JUMPDEST PUSH1 0x40 MLOAD PUSH2 0xB8 SWAP2 SWAP1 PUSH2 0x472 JUMP JUMPDEST PUSH1 0x40 MLOAD DUP1 SWAP2 SUB SWAP1 RETURN JUMPDEST CALLVALUE DUP1 ISZERO PUSH2 0xCD JUMPI PUSH1 0x0 DUP1 REVERT JUMPDEST POP PUSH2 0xE8 PUSH1 0x4 DUP1 CALLDATASIZE SUB DUP2 ADD SWAP1 PUSH2 0xE3 SWAP2 SWAP1 PUSH2 0x549 JUMP JUMPDEST PUSH2 0x36E JUMP JUMPDEST PUSH1 0x40 MLOAD PUSH2 0xF5 SWAP2 SWAP1 PUSH2 0x585 JUMP JUMPDEST PUSH1 0x40 MLOAD DUP1 SWAP2 SUB SWAP1 RETURN JUMPDEST CALLVALUE DUP1 ISZERO PUSH2 0x10A JUMPI PUSH1 0x0 DUP1 REVERT JUMPDEST POP PUSH2 0x113 PUSH2 0x3F2 JUMP JUMPDEST PUSH1 0x40 MLOAD PUSH2 0x120 SWAP2 SWAP1 PUSH2 0x585 JUMP JUMPDEST PUSH1 0x40 MLOAD DUP1 SWAP2 SUB SWAP1 RETURN JUMPDEST PUSH1 0x0 PUSH2 0x13F PUSH8 0xEAEF822582E517E0 PUSH1 0xC0 SHL PUSH2 0x456 JUMP JUMPDEST PUSH2 0x153 PUSH8 0xAF836F44D8512AA7 PUSH1 0xC0 SHL PUSH2 0x456 JUMP JUMPDEST PUSH2 0x167 PUSH8 0x545EA0219FB997AD PUSH1 0xC0 SHL PUSH2 0x456 JUMP JUMPDEST PUSH32 0x0 SWAP1 POP SWAP1 JUMP JUMPDEST PUSH2 0x1A1 PUSH8 0x2EF87B383742810A PUSH1 0xC0 SHL PUSH2 0x456 JUMP JUMPDEST PUSH2 0x1B5 PUSH8 0x49CE7AF430E5F95 PUSH1 0xC0 SHL PUSH2 0x456 JUMP JUMPDEST PUSH2 0x1C9 PUSH8 0x3BC0227E563FEB1E PUSH1 0xC0 SHL PUSH2 0x456 JUMP JUMPDEST PUSH32 0x0 CALLVALUE GT PUSH2 0x24A JUMPI PUSH2 0x204 PUSH8 0x312359BFE3538AFA PUSH1 0xC0 SHL PUSH2 0x456 JUMP JUMPDEST PUSH2 0x218 PUSH8 0xD27FCEB4A30F8E92 PUSH1 0xC0 SHL PUSH2 0x456 JUMP JUMPDEST PUSH1 0x40 MLOAD PUSH32 0x93A0491300000000000000000000000000000000000000000000000000000000 DUP2 MSTORE PUSH1 0x4 ADD PUSH1 0x40 MLOAD DUP1 SWAP2 SUB SWAP1 REVERT JUMPDEST PUSH2 0x25E PUSH8 0xFDDF99BBEB132637 PUSH1 0xC0 SHL PUSH2 0x456 JUMP JUMPDEST PUSH2 0x272 PUSH8 0x20DDC66DA9F16950 PUSH1 0xC0 SHL PUSH2 0x456 JUMP JUMPDEST PUSH2 0x286 PUSH8 0x71F034D2495827BD PUSH1 0xC0 SHL PUSH2 0x456 JUMP JUMPDEST PUSH1 0x1 CALLER SWAP1 DUP1 PUSH1 0x1 DUP2 SLOAD ADD DUP1 DUP3 SSTORE DUP1 SWAP2 POP POP PUSH1 0x1 SWAP1 SUB SWAP1 PUSH1 0x0 MSTORE PUSH1 0x20 PUSH1 0x0 KECCAK256 ADD PUSH1 0x0 SWAP1 SWAP2 SWAP1 SWAP2 SWAP1 SWAP2 PUSH2 0x100 EXP DUP2 SLOAD DUP2 PUSH20 0xFFFFFFFFFFFFFFFFFFFFFFFFFFFFFFFFFFFFFFFF MUL NOT AND SWAP1 DUP4 PUSH20 0xFFFFFFFFFFFFFFFFFFFFFFFFFFFFFFFFFFFFFFFF AND MUL OR SWAP1 SSTORE POP PUSH2 0x2FD PUSH8 0x3201ACE6FBCB421A PUSH1 0xC0 SHL PUSH2 0x456 JUMP JUMPDEST PUSH2 0x311 PUSH8 0x62D3EFB11A328877 PUSH1 0xC0 SHL PUSH2 0x456 JUMP JUMPDEST CALLER PUSH20 0xFFFFFFFFFFFFFFFFFFFFFFFFFFFFFFFFFFFFFFFF AND PUSH32 0x805E1D667BDDB8A95F0F09880CF94F403FB596CE79928D9F29B74203BA284D4 PUSH1 0x40 MLOAD PUSH1 0x40 MLOAD DUP1 SWAP2 SUB SWAP1 LOG2 JUMP JUMPDEST PUSH1 0x0 PUSH1 0x20 MSTORE DUP1 PUSH1 0x0 MSTORE PUSH1 0x40 PUSH1 0x0 KECCAK256 PUSH1 0x0 SWAP2 POP SWAP1 POP SLOAD DUP2 JUMP JUMPDEST PUSH1 0x0 PUSH2 0x384 PUSH8 0x8D821252C4582922 PUSH1 0xC0 SHL PUSH2 0x456 JUMP JUMPDEST PUSH2 0x398 PUSH8 0xAC209D6671265A67 PUSH1 0xC0 SHL PUSH2 0x456 JUMP JUMPDEST PUSH2 0x3AC PUSH8 0xAB6D1DA6B9CC89CF PUSH1 0xC0 SHL PUSH2 0x456 JUMP JUMPDEST PUSH1 0x1 DUP3 DUP2 SLOAD DUP2 LT PUSH2 0x3C0 JUMPI PUSH2 0x3BF PUSH2 0x5A0 JUMP JUMPDEST JUMPDEST SWAP1 PUSH1 0x0 MSTORE PUSH1 0x20 PUSH1 0x0 KECCAK256 ADD PUSH1 0x0 SWAP1 SLOAD SWAP1 PUSH2 0x100 EXP SWAP1 DIV PUSH20 0xFFFFFFFFFFFFFFFFFFFFFFFFFFFFFFFFFFFFFFFF AND SWAP1 POP SWAP2 SWAP1 POP JUMP JUMPDEST PUSH1 0x0 PUSH2 0x408 PUSH8 0x991802E238C59272 PUSH1 0xC0 SHL PUSH2 0x456 JUMP JUMPDEST PUSH2 0x41C PUSH8 0x9092D30A956F98F8 PUSH1 0xC0 SHL PUSH2 0x456 JUMP JUMPDEST PUSH2 0x430 PUSH8 0x32085CE86596D02D PUSH1 0xC0 SHL PUSH2 0x456 JUMP JUMPDEST PUSH32 0x0 SWAP1 POP SWAP1 JUMP JUMPDEST POP JUMP JUMPDEST PUSH1 0x0 DUP2 SWAP1 POP SWAP2 SWAP1 POP JUMP JUMPDEST PUSH2 0x46C DUP2 PUSH2 0x459 JUMP JUMPDEST DUP3 MSTORE POP POP JUMP JUMPDEST PUSH1 0x0 PUSH1 0x20 DUP3 ADD SWAP1 POP PUSH2 0x487 PUSH1 0x0 DUP4 ADD DUP5 PUSH2 0x463 JUMP JUMPDEST SWAP3 SWAP2 POP POP JUMP JUMPDEST PUSH1 0x0 DUP1 REVERT JUMPDEST PUSH1 0x0 PUSH20 0xFFFFFFFFFFFFFFFFFFFFFFFFFFFFFFFFFFFFFFFF DUP3 AND SWAP1 POP SWAP2 SWAP1 POP JUMP JUMPDEST PUSH1 0x0 PUSH2 0x4BD DUP3 PUSH2 0x492 JUMP JUMPDEST SWAP1 POP SWAP2 SWAP1 POP JUMP JUMPDEST PUSH2 0x4CD DUP2 PUSH2 0x4B2 JUMP JUMPDEST DUP2 EQ PUSH2 0x4D8 JUMPI PUSH1 0x0 DUP1 REVERT JUMPDEST POP JUMP JUMPDEST PUSH1 0x0 DUP2 CALLDATALOAD SWAP1 POP PUSH2 0x4EA DUP2 PUSH2 0x4C4 JUMP JUMPDEST SWAP3 SWAP2 POP POP JUMP JUMPDEST PUSH1 0x0 PUSH1 0x20 DUP3 DUP5 SUB SLT ISZERO PUSH2 0x506 JUMPI PUSH2 0x505 PUSH2 0x48D JUMP JUMPDEST JUMPDEST PUSH1 0x0 PUSH2 0x514 DUP5 DUP3 DUP6 ADD PUSH2 0x4DB JUMP JUMPDEST SWAP2 POP POP SWAP3 SWAP2 POP POP JUMP JUMPDEST PUSH2 0x526 DUP2 PUSH2 0x459 JUMP JUMPDEST DUP2 EQ PUSH2 0x531 JUMPI PUSH1 0x0 DUP1 REVERT JUMPDEST POP JUMP JUMPDEST PUSH1 0x0 DUP2 CALLDATALOAD SWAP1 POP PUSH2 0x543 DUP2 PUSH2 0x51D JUMP JUMPDEST SWAP3 SWAP2 POP POP JUMP JUMPDEST PUSH1 0x0 PUSH1 0x20 DUP3 DUP5 SUB SLT ISZERO PUSH2 0x55F JUMPI PUSH2 0x55E PUSH2 0x48D JUMP JUMPDEST JUMPDEST PUSH1 0x0 PUSH2 0x56D DUP5 DUP3 DUP6 ADD PUSH2 0x534 JUMP JUMPDEST SWAP2 POP POP SWAP3 SWAP2 POP POP JUMP JUMPDEST PUSH2 0x57F DUP2 PUSH2 0x4B2 JUMP JUMPDEST DUP3 MSTORE POP POP JUMP JUMPDEST PUSH1 0x0 PUSH1 0x20 DUP3 ADD SWAP1 POP PUSH2 0x59A PUSH1 0x0 DUP4 ADD DUP5 PUSH2 0x576 JUMP JUMPDEST SWAP3 SWAP2 POP POP JUMP JUMPDEST PUSH32 0x4E487B7100000000000000000000000000000000000000000000000000000000 PUSH1 0x0 MSTORE PUSH1 0x32 PUSH1 0x4 MSTORE PUSH1 0x24 PUSH1 0x0 REVERT INVALID LOG2 PUSH5 0x6970667358 0x22 SLT KECCAK256 0x26 MSTORE8 SWAP3 PUSH4 0xBF27A74C MLOAD 0xBE PUSH27 0xF39FF3D79B66DD2F3784E8D458BF87AF4690A009464736F6C6343 STOP ADDMOD ADDMOD STOP CALLER "},"gasEstimates":{"creation":{"codeDepositCost":"308200","executionCost":"infinite","totalCost":"infinite"},"external":{"addressToAmount(address)":"2836","enterRaffle()":"infinite","getEntranceFee()":"infinite","getOwner()":"infinite","getPlayers(uint256)":"infinite"},"internal":{"c_4191d1c7(bytes8)":"11","c_false4191d1c7(bytes8)":"infinite","c_true4191d1c7(bytes8)":"infinite"}},"methodIdentifiers":{"addressToAmount(address)":"3c7e7d28","enterRaffle()":"2cfcc539","getEntranceFee()":"09bc33a7","getOwner()":"893d20e8","getPlayers(uint256)":"460e2049"}},"storageLayout":{"storage":[{"astId":65,"contract":"contracts/Raffle.sol:Raffle","label":"addressToAmount","offset":0,"slot":"0","type":"t_mapping(t_address,t_uint256)"},{"astId":68,"contract":"contracts/Raffle.sol:Raffle","label":"s_players","offset":0,"slot":"1","type":"t_array(t_address_payable)dyn_storage"}],"types":{"t_address":{"encoding":"inplace","label":"address","numberOfBytes":"20"},"t_address_payable":{"encoding":"inplace","label":"address payable","numberOfBytes":"20"},"t_array(t_address_payable)dyn_storage":{"base":"t_address_payable","encoding":"dynamic_array","label":"address payable[]","numberOfBytes":"32"},"t_mapping(t_address,t_uint256)":{"encoding":"mapping","key":"t_address","label":"mapping(address => uint256)","numberOfBytes":"32","value":"t_uint256"},"t_uint256":{"encoding":"inplace","label":"uint256","numberOfBytes":"32"}}},"userdoc":{"kind":"user","methods":{},"version":1}}}}