{"contracts/Raffle.sol":{"Raffle":{"abi":[{"inputs":[{"internalType":"uint256","name":"enteranceFee","type":"uint256"},{"internalType":"address","name":"vrfCoordinatorV2","type":"address"},{"internalType":"uint64","name":"subscriptionId","type":"uint64"},{"internalType":"uint32","name":"callbackGasLimit","type":"uint32"},{"internalType":"uint32","name":"numWords","type":"uint32"},{"internalType":"uint16","name":"requestConfirmations","type":"uint16"},{"internalType":"bytes32","name":"gasLane","type":"bytes32"}],"stateMutability":"nonpayable","type":"constructor"},{"inputs":[{"internalType":"address","name":"have","type":"address"},{"internalType":"address","name":"want","type":"address"}],"name":"OnlyCoordinatorCanFulfill","type":"error"},{"inputs":[],"name":"Raffle__notEnoughEthSent","type":"error"},{"anonymous":false,"inputs":[{"indexed":true,"internalType":"address","name":"players","type":"address"}],"name":"RaffleEnter","type":"event"},{"inputs":[{"internalType":"address","name":"","type":"address"}],"name":"addressToAmount","outputs":[{"internalType":"uint256","name":"","type":"uint256"}],"stateMutability":"view","type":"function"},{"inputs":[],"name":"enterRaffle","outputs":[],"stateMutability":"payable","type":"function"},{"inputs":[],"name":"getEntranceFee","outputs":[{"internalType":"uint256","name":"","type":"uint256"}],"stateMutability":"view","type":"function"},{"inputs":[],"name":"getOwner","outputs":[{"internalType":"address","name":"","type":"address"}],"stateMutability":"view","type":"function"},{"inputs":[{"internalType":"uint256","name":"index","type":"uint256"}],"name":"getPlayers","outputs":[{"internalType":"address","name":"","type":"address"}],"stateMutability":"view","type":"function"},{"inputs":[],"name":"getVRFCoordinator","outputs":[{"internalType":"contract VRFCoordinatorV2Interface","name":"","type":"address"}],"stateMutability":"view","type":"function"},{"inputs":[],"name":"pickRandomWinner","outputs":[],"stateMutability":"nonpayable","type":"function"},{"inputs":[{"internalType":"uint256","name":"requestId","type":"uint256"},{"internalType":"uint256[]","name":"randomWords","type":"uint256[]"}],"name":"rawFulfillRandomWords","outputs":[],"stateMutability":"nonpayable","type":"function"}],"devdoc":{"kind":"dev","methods":{},"version":1},"evm":{"bytecode":{"linkReferences":{},"object":"6101a06040523480156200001257600080fd5b5060405162000f2c38038062000f2c833981810160405281019062000038919062000306565b858073ffffffffffffffffffffffffffffffffffffffff1660808173ffffffffffffffffffffffffffffffffffffffff1660601b81525050508660e081815250503373ffffffffffffffffffffffffffffffffffffffff1660a08173ffffffffffffffffffffffffffffffffffffffff1660601b815250508573ffffffffffffffffffffffffffffffffffffffff1660c08173ffffffffffffffffffffffffffffffffffffffff1660601b815250508467ffffffffffffffff166101008167ffffffffffffffff1660c01b815250508363ffffffff166101208163ffffffff1660e01b815250508263ffffffff166101408163ffffffff1660e01b815250508161ffff166101608161ffff1660f01b8152505080610180818152505050505050505050620003b9565b600080fd5b6000819050919050565b6200017b8162000166565b81146200018757600080fd5b50565b6000815190506200019b8162000170565b92915050565b600073ffffffffffffffffffffffffffffffffffffffff82169050919050565b6000620001ce82620001a1565b9050919050565b620001e081620001c1565b8114620001ec57600080fd5b50565b6000815190506200020081620001d5565b92915050565b600067ffffffffffffffff82169050919050565b620002258162000206565b81146200023157600080fd5b50565b60008151905062000245816200021a565b92915050565b600063ffffffff82169050919050565b62000266816200024b565b81146200027257600080fd5b50565b60008151905062000286816200025b565b92915050565b600061ffff82169050919050565b620002a5816200028c565b8114620002b157600080fd5b50565b600081519050620002c5816200029a565b92915050565b6000819050919050565b620002e081620002cb565b8114620002ec57600080fd5b50565b6000815190506200030081620002d5565b92915050565b600080600080600080600060e0888a03121562000328576200032762000161565b5b6000620003388a828b016200018a565b97505060206200034b8a828b01620001ef565b96505060406200035e8a828b0162000234565b9550506060620003718a828b0162000275565b9450506080620003848a828b0162000275565b93505060a0620003978a828b01620002b4565b92505060c0620003aa8a828b01620002ef565b91505092959891949750929550565b60805160601c60a05160601c60c05160601c60e0516101005160c01c6101205160e01c6101405160e01c6101605160f01c61018051610ad8620004546000396000610474015260006104b6015260006104f8015260006104d7015260006104950152600081816101c901526102af0152600081816104380152610590015260006104120152600081816101ef01526102430152610ad86000f3fe60806040526004361061007b5760003560e01c8063460e20491161004e578063460e20491461011b578063893d20e814610158578063898da22914610183578063a378f3711461019a5761007b565b806309bc33a7146100805780631fe543e3146100ab5780632cfcc539146100d45780633c7e7d28146100de575b600080fd5b34801561008c57600080fd5b506100956101c5565b6040516100a291906105d1565b60405180910390f35b3480156100b757600080fd5b506100d260048036038101906100cd9190610785565b6101ed565b005b6100dc6102ad565b005b3480156100ea57600080fd5b506101056004803603810190610100919061083f565b6103ae565b60405161011291906105d1565b60405180910390f35b34801561012757600080fd5b50610142600480360381019061013d919061086c565b6103c6565b60405161014f91906108a8565b60405180910390f35b34801561016457600080fd5b5061016d61040e565b60405161017a91906108a8565b60405180910390f35b34801561018f57600080fd5b50610198610436565b005b3480156101a657600080fd5b506101af61058c565b6040516101bc9190610922565b60405180910390f35b60007f0000000000000000000000000000000000000000000000000000000000000000905090565b7f000000000000000000000000000000000000000000000000000000000000000073ffffffffffffffffffffffffffffffffffffffff163373ffffffffffffffffffffffffffffffffffffffff161461029f57337f00000000000000000000000000000000000000000000000000000000000000006040517f1cf993f400000000000000000000000000000000000000000000000000000000815260040161029692919061093d565b60405180910390fd5b6102a982826105b4565b5050565b7f00000000000000000000000000000000000000000000000000000000000000003411610306576040517f93a0491300000000000000000000000000000000000000000000000000000000815260040160405180910390fd5b6001339080600181540180825580915050600190039060005260206000200160009091909190916101000a81548173ffffffffffffffffffffffffffffffffffffffff021916908373ffffffffffffffffffffffffffffffffffffffff1602179055503373ffffffffffffffffffffffffffffffffffffffff167f0805e1d667bddb8a95f0f09880cf94f403fb596ce79928d9f29b74203ba284d460405160405180910390a2565b60006020528060005260406000206000915090505481565b6000600182815481106103dc576103db610966565b5b9060005260206000200160009054906101000a900473ffffffffffffffffffffffffffffffffffffffff169050919050565b60007f0000000000000000000000000000000000000000000000000000000000000000905090565b7f000000000000000000000000000000000000000000000000000000000000000073ffffffffffffffffffffffffffffffffffffffff16635d3b1d307f00000000000000000000000000000000000000000000000000000000000000007f00000000000000000000000000000000000000000000000000000000000000007f00000000000000000000000000000000000000000000000000000000000000007f00000000000000000000000000000000000000000000000000000000000000007f00000000000000000000000000000000000000000000000000000000000000006040518663ffffffff1660e01b8152600401610537959493929190610a0d565b602060405180830381600087803b15801561055157600080fd5b505af1158015610565573d6000803e3d6000fd5b505050506040513d601f19601f820116820180604052508101906105899190610a75565b50565b60007f0000000000000000000000000000000000000000000000000000000000000000905090565b5050565b6000819050919050565b6105cb816105b8565b82525050565b60006020820190506105e660008301846105c2565b92915050565b6000604051905090565b600080fd5b600080fd5b610609816105b8565b811461061457600080fd5b50565b60008135905061062681610600565b92915050565b600080fd5b6000601f19601f8301169050919050565b7f4e487b7100000000000000000000000000000000000000000000000000000000600052604160045260246000fd5b61067a82610631565b810181811067ffffffffffffffff8211171561069957610698610642565b5b80604052505050565b60006106ac6105ec565b90506106b88282610671565b919050565b600067ffffffffffffffff8211156106d8576106d7610642565b5b602082029050602081019050919050565b600080fd5b60006107016106fc846106bd565b6106a2565b90508083825260208201905060208402830185811115610724576107236106e9565b5b835b8181101561074d57806107398882610617565b845260208401935050602081019050610726565b5050509392505050565b600082601f83011261076c5761076b61062c565b5b813561077c8482602086016106ee565b91505092915050565b6000806040838503121561079c5761079b6105f6565b5b60006107aa85828601610617565b925050602083013567ffffffffffffffff8111156107cb576107ca6105fb565b5b6107d785828601610757565b9150509250929050565b600073ffffffffffffffffffffffffffffffffffffffff82169050919050565b600061080c826107e1565b9050919050565b61081c81610801565b811461082757600080fd5b50565b60008135905061083981610813565b92915050565b600060208284031215610855576108546105f6565b5b60006108638482850161082a565b91505092915050565b600060208284031215610882576108816105f6565b5b600061089084828501610617565b91505092915050565b6108a281610801565b82525050565b60006020820190506108bd6000830184610899565b92915050565b6000819050919050565b60006108e86108e36108de846107e1565b6108c3565b6107e1565b9050919050565b60006108fa826108cd565b9050919050565b600061090c826108ef565b9050919050565b61091c81610901565b82525050565b60006020820190506109376000830184610913565b92915050565b60006040820190506109526000830185610899565b61095f6020830184610899565b9392505050565b7f4e487b7100000000000000000000000000000000000000000000000000000000600052603260045260246000fd5b6000819050919050565b6109a881610995565b82525050565b600067ffffffffffffffff82169050919050565b6109cb816109ae565b82525050565b600061ffff82169050919050565b6109e8816109d1565b82525050565b600063ffffffff82169050919050565b610a07816109ee565b82525050565b600060a082019050610a22600083018861099f565b610a2f60208301876109c2565b610a3c60408301866109df565b610a4960608301856109fe565b610a5660808301846109fe565b9695505050505050565b600081519050610a6f81610600565b92915050565b600060208284031215610a8b57610a8a6105f6565b5b6000610a9984828501610a60565b9150509291505056fea26469706673582212203e0b94bd6251a9e0e1a21d4f0ec825da0f94fb3b6606a1d57d1d3f93fcea03a864736f6c63430008080033","opcodes":"PUSH2 0x1A0 PUSH1 0x40 MSTORE CALLVALUE DUP1 ISZERO PUSH3 0x12 JUMPI PUSH1 0x0 DUP1 REVERT JUMPDEST POP PUSH1 0x40 MLOAD PUSH3 0xF2C CODESIZE SUB DUP1 PUSH3 0xF2C DUP4 CODECOPY DUP2 DUP2 ADD PUSH1 0x40 MSTORE DUP2 ADD SWAP1 PUSH3 0x38 SWAP2 SWAP1 PUSH3 0x306 JUMP JUMPDEST DUP6 DUP1 PUSH20 0xFFFFFFFFFFFFFFFFFFFFFFFFFFFFFFFFFFFFFFFF AND PUSH1 0x80 DUP2 PUSH20 0xFFFFFFFFFFFFFFFFFFFFFFFFFFFFFFFFFFFFFFFF AND PUSH1 0x60 SHL DUP2 MSTORE POP POP POP DUP7 PUSH1 0xE0 DUP2 DUP2 MSTORE POP POP CALLER PUSH20 0xFFFFFFFFFFFFFFFFFFFFFFFFFFFFFFFFFFFFFFFF AND PUSH1 0xA0 DUP2 PUSH20 0xFFFFFFFFFFFFFFFFFFFFFFFFFFFFFFFFFFFFFFFF AND PUSH1 0x60 SHL DUP2 MSTORE POP POP DUP6 PUSH20 0xFFFFFFFFFFFFFFFFFFFFFFFFFFFFFFFFFFFFFFFF AND PUSH1 0xC0 DUP2 PUSH20 0xFFFFFFFFFFFFFFFFFFFFFFFFFFFFFFFFFFFFFFFF AND PUSH1 0x60 SHL DUP2 MSTORE POP POP DUP5 PUSH8 0xFFFFFFFFFFFFFFFF AND PUSH2 0x100 DUP2 PUSH8 0xFFFFFFFFFFFFFFFF AND PUSH1 0xC0 SHL DUP2 MSTORE POP POP DUP4 PUSH4 0xFFFFFFFF AND PUSH2 0x120 DUP2 PUSH4 0xFFFFFFFF AND PUSH1 0xE0 SHL DUP2 MSTORE POP POP DUP3 PUSH4 0xFFFFFFFF AND PUSH2 0x140 DUP2 PUSH4 0xFFFFFFFF AND PUSH1 0xE0 SHL DUP2 MSTORE POP POP DUP2 PUSH2 0xFFFF AND PUSH2 0x160 DUP2 PUSH2 0xFFFF AND PUSH1 0xF0 SHL DUP2 MSTORE POP POP DUP1 PUSH2 0x180 DUP2 DUP2 MSTORE POP POP POP POP POP POP POP POP POP PUSH3 0x3B9 JUMP JUMPDEST PUSH1 0x0 DUP1 REVERT JUMPDEST PUSH1 0x0 DUP2 SWAP1 POP SWAP2 SWAP1 POP JUMP JUMPDEST PUSH3 0x17B DUP2 PUSH3 0x166 JUMP JUMPDEST DUP2 EQ PUSH3 0x187 JUMPI PUSH1 0x0 DUP1 REVERT JUMPDEST POP JUMP JUMPDEST PUSH1 0x0 DUP2 MLOAD SWAP1 POP PUSH3 0x19B DUP2 PUSH3 0x170 JUMP JUMPDEST SWAP3 SWAP2 POP POP JUMP JUMPDEST PUSH1 0x0 PUSH20 0xFFFFFFFFFFFFFFFFFFFFFFFFFFFFFFFFFFFFFFFF DUP3 AND SWAP1 POP SWAP2 SWAP1 POP JUMP JUMPDEST PUSH1 0x0 PUSH3 0x1CE DUP3 PUSH3 0x1A1 JUMP JUMPDEST SWAP1 POP SWAP2 SWAP1 POP JUMP JUMPDEST PUSH3 0x1E0 DUP2 PUSH3 0x1C1 JUMP JUMPDEST DUP2 EQ PUSH3 0x1EC JUMPI PUSH1 0x0 DUP1 REVERT JUMPDEST POP JUMP JUMPDEST PUSH1 0x0 DUP2 MLOAD SWAP1 POP PUSH3 0x200 DUP2 PUSH3 0x1D5 JUMP JUMPDEST SWAP3 SWAP2 POP POP JUMP JUMPDEST PUSH1 0x0 PUSH8 0xFFFFFFFFFFFFFFFF DUP3 AND SWAP1 POP SWAP2 SWAP1 POP JUMP JUMPDEST PUSH3 0x225 DUP2 PUSH3 0x206 JUMP JUMPDEST DUP2 EQ PUSH3 0x231 JUMPI PUSH1 0x0 DUP1 REVERT JUMPDEST POP JUMP JUMPDEST PUSH1 0x0 DUP2 MLOAD SWAP1 POP PUSH3 0x245 DUP2 PUSH3 0x21A JUMP JUMPDEST SWAP3 SWAP2 POP POP JUMP JUMPDEST PUSH1 0x0 PUSH4 0xFFFFFFFF DUP3 AND SWAP1 POP SWAP2 SWAP1 POP JUMP JUMPDEST PUSH3 0x266 DUP2 PUSH3 0x24B JUMP JUMPDEST DUP2 EQ PUSH3 0x272 JUMPI PUSH1 0x0 DUP1 REVERT JUMPDEST POP JUMP JUMPDEST PUSH1 0x0 DUP2 MLOAD SWAP1 POP PUSH3 0x286 DUP2 PUSH3 0x25B JUMP JUMPDEST SWAP3 SWAP2 POP POP JUMP JUMPDEST PUSH1 0x0 PUSH2 0xFFFF DUP3 AND SWAP1 POP SWAP2 SWAP1 POP JUMP JUMPDEST PUSH3 0x2A5 DUP2 PUSH3 0x28C JUMP JUMPDEST DUP2 EQ PUSH3 0x2B1 JUMPI PUSH1 0x0 DUP1 REVERT JUMPDEST POP JUMP JUMPDEST PUSH1 0x0 DUP2 MLOAD SWAP1 POP PUSH3 0x2C5 DUP2 PUSH3 0x29A JUMP JUMPDEST SWAP3 SWAP2 POP POP JUMP JUMPDEST PUSH1 0x0 DUP2 SWAP1 POP SWAP2 SWAP1 POP JUMP JUMPDEST PUSH3 0x2E0 DUP2 PUSH3 0x2CB JUMP JUMPDEST DUP2 EQ PUSH3 0x2EC JUMPI PUSH1 0x0 DUP1 REVERT JUMPDEST POP JUMP JUMPDEST PUSH1 0x0 DUP2 MLOAD SWAP1 POP PUSH3 0x300 DUP2 PUSH3 0x2D5 JUMP JUMPDEST SWAP3 SWAP2 POP POP JUMP JUMPDEST PUSH1 0x0 DUP1 PUSH1 0x0 DUP1 PUSH1 0x0 DUP1 PUSH1 0x0 PUSH1 0xE0 DUP9 DUP11 SUB SLT ISZERO PUSH3 0x328 JUMPI PUSH3 0x327 PUSH3 0x161 JUMP JUMPDEST JUMPDEST PUSH1 0x0 PUSH3 0x338 DUP11 DUP3 DUP12 ADD PUSH3 0x18A JUMP JUMPDEST SWAP8 POP POP PUSH1 0x20 PUSH3 0x34B DUP11 DUP3 DUP12 ADD PUSH3 0x1EF JUMP JUMPDEST SWAP7 POP POP PUSH1 0x40 PUSH3 0x35E DUP11 DUP3 DUP12 ADD PUSH3 0x234 JUMP JUMPDEST SWAP6 POP POP PUSH1 0x60 PUSH3 0x371 DUP11 DUP3 DUP12 ADD PUSH3 0x275 JUMP JUMPDEST SWAP5 POP POP PUSH1 0x80 PUSH3 0x384 DUP11 DUP3 DUP12 ADD PUSH3 0x275 JUMP JUMPDEST SWAP4 POP POP PUSH1 0xA0 PUSH3 0x397 DUP11 DUP3 DUP12 ADD PUSH3 0x2B4 JUMP JUMPDEST SWAP3 POP POP PUSH1 0xC0 PUSH3 0x3AA DUP11 DUP3 DUP12 ADD PUSH3 0x2EF JUMP JUMPDEST SWAP2 POP POP SWAP3 SWAP6 SWAP9 SWAP2 SWAP5 SWAP8 POP SWAP3 SWAP6 POP JUMP JUMPDEST PUSH1 0x80 MLOAD PUSH1 0x60 SHR PUSH1 0xA0 MLOAD PUSH1 0x60 SHR PUSH1 0xC0 MLOAD PUSH1 0x60 SHR PUSH1 0xE0 MLOAD PUSH2 0x100 MLOAD PUSH1 0xC0 SHR PUSH2 0x120 MLOAD PUSH1 0xE0 SHR PUSH2 0x140 MLOAD PUSH1 0xE0 SHR PUSH2 0x160 MLOAD PUSH1 0xF0 SHR PUSH2 0x180 MLOAD PUSH2 0xAD8 PUSH3 0x454 PUSH1 0x0 CODECOPY PUSH1 0x0 PUSH2 0x474 ADD MSTORE PUSH1 0x0 PUSH2 0x4B6 ADD MSTORE PUSH1 0x0 PUSH2 0x4F8 ADD MSTORE PUSH1 0x0 PUSH2 0x4D7 ADD MSTORE PUSH1 0x0 PUSH2 0x495 ADD MSTORE PUSH1 0x0 DUP2 DUP2 PUSH2 0x1C9 ADD MSTORE PUSH2 0x2AF ADD MSTORE PUSH1 0x0 DUP2 DUP2 PUSH2 0x438 ADD MSTORE PUSH2 0x590 ADD MSTORE PUSH1 0x0 PUSH2 0x412 ADD MSTORE PUSH1 0x0 DUP2 DUP2 PUSH2 0x1EF ADD MSTORE PUSH2 0x243 ADD MSTORE PUSH2 0xAD8 PUSH1 0x0 RETURN INVALID PUSH1 0x80 PUSH1 0x40 MSTORE PUSH1 0x4 CALLDATASIZE LT PUSH2 0x7B JUMPI PUSH1 0x0 CALLDATALOAD PUSH1 0xE0 SHR DUP1 PUSH4 0x460E2049 GT PUSH2 0x4E JUMPI DUP1 PUSH4 0x460E2049 EQ PUSH2 0x11B JUMPI DUP1 PUSH4 0x893D20E8 EQ PUSH2 0x158 JUMPI DUP1 PUSH4 0x898DA229 EQ PUSH2 0x183 JUMPI DUP1 PUSH4 0xA378F371 EQ PUSH2 0x19A JUMPI PUSH2 0x7B JUMP JUMPDEST DUP1 PUSH4 0x9BC33A7 EQ PUSH2 0x80 JUMPI DUP1 PUSH4 0x1FE543E3 EQ PUSH2 0xAB JUMPI DUP1 PUSH4 0x2CFCC539 EQ PUSH2 0xD4 JUMPI DUP1 PUSH4 0x3C7E7D28 EQ PUSH2 0xDE JUMPI JUMPDEST PUSH1 0x0 DUP1 REVERT JUMPDEST CALLVALUE DUP1 ISZERO PUSH2 0x8C JUMPI PUSH1 0x0 DUP1 REVERT JUMPDEST POP PUSH2 0x95 PUSH2 0x1C5 JUMP JUMPDEST PUSH1 0x40 MLOAD PUSH2 0xA2 SWAP2 SWAP1 PUSH2 0x5D1 JUMP JUMPDEST PUSH1 0x40 MLOAD DUP1 SWAP2 SUB SWAP1 RETURN JUMPDEST CALLVALUE DUP1 ISZERO PUSH2 0xB7 JUMPI PUSH1 0x0 DUP1 REVERT JUMPDEST POP PUSH2 0xD2 PUSH1 0x4 DUP1 CALLDATASIZE SUB DUP2 ADD SWAP1 PUSH2 0xCD SWAP2 SWAP1 PUSH2 0x785 JUMP JUMPDEST PUSH2 0x1ED JUMP JUMPDEST STOP JUMPDEST PUSH2 0xDC PUSH2 0x2AD JUMP JUMPDEST STOP JUMPDEST CALLVALUE DUP1 ISZERO PUSH2 0xEA JUMPI PUSH1 0x0 DUP1 REVERT JUMPDEST POP PUSH2 0x105 PUSH1 0x4 DUP1 CALLDATASIZE SUB DUP2 ADD SWAP1 PUSH2 0x100 SWAP2 SWAP1 PUSH2 0x83F JUMP JUMPDEST PUSH2 0x3AE JUMP JUMPDEST PUSH1 0x40 MLOAD PUSH2 0x112 SWAP2 SWAP1 PUSH2 0x5D1 JUMP JUMPDEST PUSH1 0x40 MLOAD DUP1 SWAP2 SUB SWAP1 RETURN JUMPDEST CALLVALUE DUP1 ISZERO PUSH2 0x127 JUMPI PUSH1 0x0 DUP1 REVERT JUMPDEST POP PUSH2 0x142 PUSH1 0x4 DUP1 CALLDATASIZE SUB DUP2 ADD SWAP1 PUSH2 0x13D SWAP2 SWAP1 PUSH2 0x86C JUMP JUMPDEST PUSH2 0x3C6 JUMP JUMPDEST PUSH1 0x40 MLOAD PUSH2 0x14F SWAP2 SWAP1 PUSH2 0x8A8 JUMP JUMPDEST PUSH1 0x40 MLOAD DUP1 SWAP2 SUB SWAP1 RETURN JUMPDEST CALLVALUE DUP1 ISZERO PUSH2 0x164 JUMPI PUSH1 0x0 DUP1 REVERT JUMPDEST POP PUSH2 0x16D PUSH2 0x40E JUMP JUMPDEST PUSH1 0x40 MLOAD PUSH2 0x17A SWAP2 SWAP1 PUSH2 0x8A8 JUMP JUMPDEST PUSH1 0x40 MLOAD DUP1 SWAP2 SUB SWAP1 RETURN JUMPDEST CALLVALUE DUP1 ISZERO PUSH2 0x18F JUMPI PUSH1 0x0 DUP1 REVERT JUMPDEST POP PUSH2 0x198 PUSH2 0x436 JUMP JUMPDEST STOP JUMPDEST CALLVALUE DUP1 ISZERO PUSH2 0x1A6 JUMPI PUSH1 0x0 DUP1 REVERT JUMPDEST POP PUSH2 0x1AF PUSH2 0x58C JUMP JUMPDEST PUSH1 0x40 MLOAD PUSH2 0x1BC SWAP2 SWAP1 PUSH2 0x922 JUMP JUMPDEST PUSH1 0x40 MLOAD DUP1 SWAP2 SUB SWAP1 RETURN JUMPDEST PUSH1 0x0 PUSH32 0x0 SWAP1 POP SWAP1 JUMP JUMPDEST PUSH32 0x0 PUSH20 0xFFFFFFFFFFFFFFFFFFFFFFFFFFFFFFFFFFFFFFFF AND CALLER PUSH20 0xFFFFFFFFFFFFFFFFFFFFFFFFFFFFFFFFFFFFFFFF AND EQ PUSH2 0x29F JUMPI CALLER PUSH32 0x0 PUSH1 0x40 MLOAD PUSH32 0x1CF993F400000000000000000000000000000000000000000000000000000000 DUP2 MSTORE PUSH1 0x4 ADD PUSH2 0x296 SWAP3 SWAP2 SWAP1 PUSH2 0x93D JUMP JUMPDEST PUSH1 0x40 MLOAD DUP1 SWAP2 SUB SWAP1 REVERT JUMPDEST PUSH2 0x2A9 DUP3 DUP3 PUSH2 0x5B4 JUMP JUMPDEST POP POP JUMP JUMPDEST PUSH32 0x0 CALLVALUE GT PUSH2 0x306 JUMPI PUSH1 0x40 MLOAD PUSH32 0x93A0491300000000000000000000000000000000000000000000000000000000 DUP2 MSTORE PUSH1 0x4 ADD PUSH1 0x40 MLOAD DUP1 SWAP2 SUB SWAP1 REVERT JUMPDEST PUSH1 0x1 CALLER SWAP1 DUP1 PUSH1 0x1 DUP2 SLOAD ADD DUP1 DUP3 SSTORE DUP1 SWAP2 POP POP PUSH1 0x1 SWAP1 SUB SWAP1 PUSH1 0x0 MSTORE PUSH1 0x20 PUSH1 0x0 KECCAK256 ADD PUSH1 0x0 SWAP1 SWAP2 SWAP1 SWAP2 SWAP1 SWAP2 PUSH2 0x100 EXP DUP2 SLOAD DUP2 PUSH20 0xFFFFFFFFFFFFFFFFFFFFFFFFFFFFFFFFFFFFFFFF MUL NOT AND SWAP1 DUP4 PUSH20 0xFFFFFFFFFFFFFFFFFFFFFFFFFFFFFFFFFFFFFFFF AND MUL OR SWAP1 SSTORE POP CALLER PUSH20 0xFFFFFFFFFFFFFFFFFFFFFFFFFFFFFFFFFFFFFFFF AND PUSH32 0x805E1D667BDDB8A95F0F09880CF94F403FB596CE79928D9F29B74203BA284D4 PUSH1 0x40 MLOAD PUSH1 0x40 MLOAD DUP1 SWAP2 SUB SWAP1 LOG2 JUMP JUMPDEST PUSH1 0x0 PUSH1 0x20 MSTORE DUP1 PUSH1 0x0 MSTORE PUSH1 0x40 PUSH1 0x0 KECCAK256 PUSH1 0x0 SWAP2 POP SWAP1 POP SLOAD DUP2 JUMP JUMPDEST PUSH1 0x0 PUSH1 0x1 DUP3 DUP2 SLOAD DUP2 LT PUSH2 0x3DC JUMPI PUSH2 0x3DB PUSH2 0x966 JUMP JUMPDEST JUMPDEST SWAP1 PUSH1 0x0 MSTORE PUSH1 0x20 PUSH1 0x0 KECCAK256 ADD PUSH1 0x0 SWAP1 SLOAD SWAP1 PUSH2 0x100 EXP SWAP1 DIV PUSH20 0xFFFFFFFFFFFFFFFFFFFFFFFFFFFFFFFFFFFFFFFF AND SWAP1 POP SWAP2 SWAP1 POP JUMP JUMPDEST PUSH1 0x0 PUSH32 0x0 SWAP1 POP SWAP1 JUMP JUMPDEST PUSH32 0x0 PUSH20 0xFFFFFFFFFFFFFFFFFFFFFFFFFFFFFFFFFFFFFFFF AND PUSH4 0x5D3B1D30 PUSH32 0x0 PUSH32 0x0 PUSH32 0x0 PUSH32 0x0 PUSH32 0x0 PUSH1 0x40 MLOAD DUP7 PUSH4 0xFFFFFFFF AND PUSH1 0xE0 SHL DUP2 MSTORE PUSH1 0x4 ADD PUSH2 0x537 SWAP6 SWAP5 SWAP4 SWAP3 SWAP2 SWAP1 PUSH2 0xA0D JUMP JUMPDEST PUSH1 0x20 PUSH1 0x40 MLOAD DUP1 DUP4 SUB DUP2 PUSH1 0x0 DUP8 DUP1 EXTCODESIZE ISZERO DUP1 ISZERO PUSH2 0x551 JUMPI PUSH1 0x0 DUP1 REVERT JUMPDEST POP GAS CALL ISZERO DUP1 ISZERO PUSH2 0x565 JUMPI RETURNDATASIZE PUSH1 0x0 DUP1 RETURNDATACOPY RETURNDATASIZE PUSH1 0x0 REVERT JUMPDEST POP POP POP POP PUSH1 0x40 MLOAD RETURNDATASIZE PUSH1 0x1F NOT PUSH1 0x1F DUP3 ADD AND DUP3 ADD DUP1 PUSH1 0x40 MSTORE POP DUP2 ADD SWAP1 PUSH2 0x589 SWAP2 SWAP1 PUSH2 0xA75 JUMP JUMPDEST POP JUMP JUMPDEST PUSH1 0x0 PUSH32 0x0 SWAP1 POP SWAP1 JUMP JUMPDEST POP POP JUMP JUMPDEST PUSH1 0x0 DUP2 SWAP1 POP SWAP2 SWAP1 POP JUMP JUMPDEST PUSH2 0x5CB DUP2 PUSH2 0x5B8 JUMP JUMPDEST DUP3 MSTORE POP POP JUMP JUMPDEST PUSH1 0x0 PUSH1 0x20 DUP3 ADD SWAP1 POP PUSH2 0x5E6 PUSH1 0x0 DUP4 ADD DUP5 PUSH2 0x5C2 JUMP JUMPDEST SWAP3 SWAP2 POP POP JUMP JUMPDEST PUSH1 0x0 PUSH1 0x40 MLOAD SWAP1 POP SWAP1 JUMP JUMPDEST PUSH1 0x0 DUP1 REVERT JUMPDEST PUSH1 0x0 DUP1 REVERT JUMPDEST PUSH2 0x609 DUP2 PUSH2 0x5B8 JUMP JUMPDEST DUP2 EQ PUSH2 0x614 JUMPI PUSH1 0x0 DUP1 REVERT JUMPDEST POP JUMP JUMPDEST PUSH1 0x0 DUP2 CALLDATALOAD SWAP1 POP PUSH2 0x626 DUP2 PUSH2 0x600 JUMP JUMPDEST SWAP3 SWAP2 POP POP JUMP JUMPDEST PUSH1 0x0 DUP1 REVERT JUMPDEST PUSH1 0x0 PUSH1 0x1F NOT PUSH1 0x1F DUP4 ADD AND SWAP1 POP SWAP2 SWAP1 POP JUMP JUMPDEST PUSH32 0x4E487B7100000000000000000000000000000000000000000000000000000000 PUSH1 0x0 MSTORE PUSH1 0x41 PUSH1 0x4 MSTORE PUSH1 0x24 PUSH1 0x0 REVERT JUMPDEST PUSH2 0x67A DUP3 PUSH2 0x631 JUMP JUMPDEST DUP2 ADD DUP2 DUP2 LT PUSH8 0xFFFFFFFFFFFFFFFF DUP3 GT OR ISZERO PUSH2 0x699 JUMPI PUSH2 0x698 PUSH2 0x642 JUMP JUMPDEST JUMPDEST DUP1 PUSH1 0x40 MSTORE POP POP POP JUMP JUMPDEST PUSH1 0x0 PUSH2 0x6AC PUSH2 0x5EC JUMP JUMPDEST SWAP1 POP PUSH2 0x6B8 DUP3 DUP3 PUSH2 0x671 JUMP JUMPDEST SWAP2 SWAP1 POP JUMP JUMPDEST PUSH1 0x0 PUSH8 0xFFFFFFFFFFFFFFFF DUP3 GT ISZERO PUSH2 0x6D8 JUMPI PUSH2 0x6D7 PUSH2 0x642 JUMP JUMPDEST JUMPDEST PUSH1 0x20 DUP3 MUL SWAP1 POP PUSH1 0x20 DUP2 ADD SWAP1 POP SWAP2 SWAP1 POP JUMP JUMPDEST PUSH1 0x0 DUP1 REVERT JUMPDEST PUSH1 0x0 PUSH2 0x701 PUSH2 0x6FC DUP5 PUSH2 0x6BD JUMP JUMPDEST PUSH2 0x6A2 JUMP JUMPDEST SWAP1 POP DUP1 DUP4 DUP3 MSTORE PUSH1 0x20 DUP3 ADD SWAP1 POP PUSH1 0x20 DUP5 MUL DUP4 ADD DUP6 DUP2 GT ISZERO PUSH2 0x724 JUMPI PUSH2 0x723 PUSH2 0x6E9 JUMP JUMPDEST JUMPDEST DUP4 JUMPDEST DUP2 DUP2 LT ISZERO PUSH2 0x74D JUMPI DUP1 PUSH2 0x739 DUP9 DUP3 PUSH2 0x617 JUMP JUMPDEST DUP5 MSTORE PUSH1 0x20 DUP5 ADD SWAP4 POP POP PUSH1 0x20 DUP2 ADD SWAP1 POP PUSH2 0x726 JUMP JUMPDEST POP POP POP SWAP4 SWAP3 POP POP POP JUMP JUMPDEST PUSH1 0x0 DUP3 PUSH1 0x1F DUP4 ADD SLT PUSH2 0x76C JUMPI PUSH2 0x76B PUSH2 0x62C JUMP JUMPDEST JUMPDEST DUP2 CALLDATALOAD PUSH2 0x77C DUP5 DUP3 PUSH1 0x20 DUP7 ADD PUSH2 0x6EE JUMP JUMPDEST SWAP2 POP POP SWAP3 SWAP2 POP POP JUMP JUMPDEST PUSH1 0x0 DUP1 PUSH1 0x40 DUP4 DUP6 SUB SLT ISZERO PUSH2 0x79C JUMPI PUSH2 0x79B PUSH2 0x5F6 JUMP JUMPDEST JUMPDEST PUSH1 0x0 PUSH2 0x7AA DUP6 DUP3 DUP7 ADD PUSH2 0x617 JUMP JUMPDEST SWAP3 POP POP PUSH1 0x20 DUP4 ADD CALLDATALOAD PUSH8 0xFFFFFFFFFFFFFFFF DUP2 GT ISZERO PUSH2 0x7CB JUMPI PUSH2 0x7CA PUSH2 0x5FB JUMP JUMPDEST JUMPDEST PUSH2 0x7D7 DUP6 DUP3 DUP7 ADD PUSH2 0x757 JUMP JUMPDEST SWAP2 POP POP SWAP3 POP SWAP3 SWAP1 POP JUMP JUMPDEST PUSH1 0x0 PUSH20 0xFFFFFFFFFFFFFFFFFFFFFFFFFFFFFFFFFFFFFFFF DUP3 AND SWAP1 POP SWAP2 SWAP1 POP JUMP JUMPDEST PUSH1 0x0 PUSH2 0x80C DUP3 PUSH2 0x7E1 JUMP JUMPDEST SWAP1 POP SWAP2 SWAP1 POP JUMP JUMPDEST PUSH2 0x81C DUP2 PUSH2 0x801 JUMP JUMPDEST DUP2 EQ PUSH2 0x827 JUMPI PUSH1 0x0 DUP1 REVERT JUMPDEST POP JUMP JUMPDEST PUSH1 0x0 DUP2 CALLDATALOAD SWAP1 POP PUSH2 0x839 DUP2 PUSH2 0x813 JUMP JUMPDEST SWAP3 SWAP2 POP POP JUMP JUMPDEST PUSH1 0x0 PUSH1 0x20 DUP3 DUP5 SUB SLT ISZERO PUSH2 0x855 JUMPI PUSH2 0x854 PUSH2 0x5F6 JUMP JUMPDEST JUMPDEST PUSH1 0x0 PUSH2 0x863 DUP5 DUP3 DUP6 ADD PUSH2 0x82A JUMP JUMPDEST SWAP2 POP POP SWAP3 SWAP2 POP POP JUMP JUMPDEST PUSH1 0x0 PUSH1 0x20 DUP3 DUP5 SUB SLT ISZERO PUSH2 0x882 JUMPI PUSH2 0x881 PUSH2 0x5F6 JUMP JUMPDEST JUMPDEST PUSH1 0x0 PUSH2 0x890 DUP5 DUP3 DUP6 ADD PUSH2 0x617 JUMP JUMPDEST SWAP2 POP POP SWAP3 SWAP2 POP POP JUMP JUMPDEST PUSH2 0x8A2 DUP2 PUSH2 0x801 JUMP JUMPDEST DUP3 MSTORE POP POP JUMP JUMPDEST PUSH1 0x0 PUSH1 0x20 DUP3 ADD SWAP1 POP PUSH2 0x8BD PUSH1 0x0 DUP4 ADD DUP5 PUSH2 0x899 JUMP JUMPDEST SWAP3 SWAP2 POP POP JUMP JUMPDEST PUSH1 0x0 DUP2 SWAP1 POP SWAP2 SWAP1 POP JUMP JUMPDEST PUSH1 0x0 PUSH2 0x8E8 PUSH2 0x8E3 PUSH2 0x8DE DUP5 PUSH2 0x7E1 JUMP JUMPDEST PUSH2 0x8C3 JUMP JUMPDEST PUSH2 0x7E1 JUMP JUMPDEST SWAP1 POP SWAP2 SWAP1 POP JUMP JUMPDEST PUSH1 0x0 PUSH2 0x8FA DUP3 PUSH2 0x8CD JUMP JUMPDEST SWAP1 POP SWAP2 SWAP1 POP JUMP JUMPDEST PUSH1 0x0 PUSH2 0x90C DUP3 PUSH2 0x8EF JUMP JUMPDEST SWAP1 POP SWAP2 SWAP1 POP JUMP JUMPDEST PUSH2 0x91C DUP2 PUSH2 0x901 JUMP JUMPDEST DUP3 MSTORE POP POP JUMP JUMPDEST PUSH1 0x0 PUSH1 0x20 DUP3 ADD SWAP1 POP PUSH2 0x937 PUSH1 0x0 DUP4 ADD DUP5 PUSH2 0x913 JUMP JUMPDEST SWAP3 SWAP2 POP POP JUMP JUMPDEST PUSH1 0x0 PUSH1 0x40 DUP3 ADD SWAP1 POP PUSH2 0x952 PUSH1 0x0 DUP4 ADD DUP6 PUSH2 0x899 JUMP JUMPDEST PUSH2 0x95F PUSH1 0x20 DUP4 ADD DUP5 PUSH2 0x899 JUMP JUMPDEST SWAP4 SWAP3 POP POP POP JUMP JUMPDEST PUSH32 0x4E487B7100000000000000000000000000000000000000000000000000000000 PUSH1 0x0 MSTORE PUSH1 0x32 PUSH1 0x4 MSTORE PUSH1 0x24 PUSH1 0x0 REVERT JUMPDEST PUSH1 0x0 DUP2 SWAP1 POP SWAP2 SWAP1 POP JUMP JUMPDEST PUSH2 0x9A8 DUP2 PUSH2 0x995 JUMP JUMPDEST DUP3 MSTORE POP POP JUMP JUMPDEST PUSH1 0x0 PUSH8 0xFFFFFFFFFFFFFFFF DUP3 AND SWAP1 POP SWAP2 SWAP1 POP JUMP JUMPDEST PUSH2 0x9CB DUP2 PUSH2 0x9AE JUMP JUMPDEST DUP3 MSTORE POP POP JUMP JUMPDEST PUSH1 0x0 PUSH2 0xFFFF DUP3 AND SWAP1 POP SWAP2 SWAP1 POP JUMP JUMPDEST PUSH2 0x9E8 DUP2 PUSH2 0x9D1 JUMP JUMPDEST DUP3 MSTORE POP POP JUMP JUMPDEST PUSH1 0x0 PUSH4 0xFFFFFFFF DUP3 AND SWAP1 POP SWAP2 SWAP1 POP JUMP JUMPDEST PUSH2 0xA07 DUP2 PUSH2 0x9EE JUMP JUMPDEST DUP3 MSTORE POP POP JUMP JUMPDEST PUSH1 0x0 PUSH1 0xA0 DUP3 ADD SWAP1 POP PUSH2 0xA22 PUSH1 0x0 DUP4 ADD DUP9 PUSH2 0x99F JUMP JUMPDEST PUSH2 0xA2F PUSH1 0x20 DUP4 ADD DUP8 PUSH2 0x9C2 JUMP JUMPDEST PUSH2 0xA3C PUSH1 0x40 DUP4 ADD DUP7 PUSH2 0x9DF JUMP JUMPDEST PUSH2 0xA49 PUSH1 0x60 DUP4 ADD DUP6 PUSH2 0x9FE JUMP JUMPDEST PUSH2 0xA56 PUSH1 0x80 DUP4 ADD DUP5 PUSH2 0x9FE JUMP JUMPDEST SWAP7 SWAP6 POP POP POP POP POP POP JUMP JUMPDEST PUSH1 0x0 DUP2 MLOAD SWAP1 POP PUSH2 0xA6F DUP2 PUSH2 0x600 JUMP JUMPDEST SWAP3 SWAP2 POP POP JUMP JUMPDEST PUSH1 0x0 PUSH1 0x20 DUP3 DUP5 SUB SLT ISZERO PUSH2 0xA8B JUMPI PUSH2 0xA8A PUSH2 0x5F6 JUMP JUMPDEST JUMPDEST PUSH1 0x0 PUSH2 0xA99 DUP5 DUP3 DUP6 ADD PUSH2 0xA60 JUMP JUMPDEST SWAP2 POP POP SWAP3 SWAP2 POP POP JUMP INVALID LOG2 PUSH5 0x6970667358 0x22 SLT KECCAK256 RETURNDATACOPY SIGNEXTEND SWAP5 0xBD PUSH3 0x51A9E0 0xE1 LOG2 SAR 0x4F 0xE 0xC8 0x25 0xDA 0xF SWAP5 0xFB EXTCODESIZE PUSH7 0x6A1D57D1D3F93 0xFC 0xEA SUB 0xA8 PUSH5 0x736F6C6343 STOP ADDMOD ADDMOD STOP CALLER "},"gasEstimates":{"creation":{"codeDepositCost":"555200","executionCost":"infinite","totalCost":"infinite"},"external":{"addressToAmount(address)":"2881","enterRaffle()":"infinite","getEntranceFee()":"infinite","getOwner()":"infinite","getPlayers(uint256)":"4967","getVRFCoordinator()":"infinite","pickRandomWinner()":"infinite","rawFulfillRandomWords(uint256,uint256[])":"infinite"},"internal":{"fulfillRandomWords(uint256,uint256[] memory)":"13"}},"methodIdentifiers":{"addressToAmount(address)":"3c7e7d28","enterRaffle()":"2cfcc539","getEntranceFee()":"09bc33a7","getOwner()":"893d20e8","getPlayers(uint256)":"460e2049","getVRFCoordinator()":"a378f371","pickRandomWinner()":"898da229","rawFulfillRandomWords(uint256,uint256[])":"1fe543e3"}},"storageLayout":{"storage":[{"astId":167,"contract":"contracts/Raffle.sol:Raffle","label":"addressToAmount","offset":0,"slot":"0","type":"t_mapping(t_address,t_uint256)"},{"astId":170,"contract":"contracts/Raffle.sol:Raffle","label":"s_players","offset":0,"slot":"1","type":"t_array(t_address_payable)dyn_storage"}],"types":{"t_address":{"encoding":"inplace","label":"address","numberOfBytes":"20"},"t_address_payable":{"encoding":"inplace","label":"address payable","numberOfBytes":"20"},"t_array(t_address_payable)dyn_storage":{"base":"t_address_payable","encoding":"dynamic_array","label":"address payable[]","numberOfBytes":"32"},"t_mapping(t_address,t_uint256)":{"encoding":"mapping","key":"t_address","label":"mapping(address => uint256)","numberOfBytes":"32","value":"t_uint256"},"t_uint256":{"encoding":"inplace","label":"uint256","numberOfBytes":"32"}}},"userdoc":{"kind":"user","methods":{},"version":1}}}}