{
  "_format": "hh-sol-artifact-1",
  "contractName": "Raffle",
  "sourceName": "contracts/Raffle.sol",
  "abi": [
    {
      "inputs": [
        {
          "internalType": "uint256",
          "name": "enteranceFee",
          "type": "uint256"
        },
        {
          "internalType": "uint256",
          "name": "interval",
          "type": "uint256"
        },
        {
          "internalType": "address",
          "name": "vrfCoordinatorV2",
          "type": "address"
        },
        {
          "internalType": "uint64",
          "name": "subscriptionId",
          "type": "uint64"
        },
        {
          "internalType": "uint32",
          "name": "callbackGasLimit",
          "type": "uint32"
        },
        {
          "internalType": "bytes32",
          "name": "gasLane",
          "type": "bytes32"
        }
      ],
      "stateMutability": "nonpayable",
      "type": "constructor"
    },
    {
      "inputs": [
        {
          "internalType": "address",
          "name": "have",
          "type": "address"
        },
        {
          "internalType": "address",
          "name": "want",
          "type": "address"
        }
      ],
      "name": "OnlyCoordinatorCanFulfill",
      "type": "error"
    },
    {
      "inputs": [],
      "name": "Raffle__NotOpen",
      "type": "error"
    },
    {
      "inputs": [],
      "name": "Raffle__TransferFailed",
      "type": "error"
    },
    {
      "inputs": [
        {
          "internalType": "uint256",
          "name": "currentBalance",
          "type": "uint256"
        },
        {
          "internalType": "uint256",
          "name": "numPlayers",
          "type": "uint256"
        },
        {
          "internalType": "uint256",
          "name": "raffleState",
          "type": "uint256"
        }
      ],
      "name": "Raffle__UpkeepNotNeeded",
      "type": "error"
    },
    {
      "inputs": [],
      "name": "Raffle__notEnoughEthSent",
      "type": "error"
    },
    {
      "anonymous": false,
      "inputs": [
        {
          "indexed": true,
          "internalType": "address",
          "name": "players",
          "type": "address"
        }
      ],
      "name": "RaffleEnter",
      "type": "event"
    },
    {
      "anonymous": false,
      "inputs": [
        {
          "indexed": true,
          "internalType": "uint256",
          "name": "requestId",
          "type": "uint256"
        }
      ],
      "name": "RequestedRaffleWinner",
      "type": "event"
    },
    {
      "anonymous": false,
      "inputs": [
        {
          "indexed": true,
          "internalType": "address",
          "name": "winner",
          "type": "address"
        }
      ],
      "name": "WinnerPicked",
      "type": "event"
    },
    {
      "inputs": [
        {
          "internalType": "bytes",
          "name": "",
          "type": "bytes"
        }
      ],
      "name": "checkUpkeep",
      "outputs": [
        {
          "internalType": "bool",
          "name": "upkeepNeeded",
          "type": "bool"
        },
        {
          "internalType": "bytes",
          "name": "",
          "type": "bytes"
        }
      ],
      "stateMutability": "nonpayable",
      "type": "function"
    },
    {
      "inputs": [],
      "name": "enterRaffle",
      "outputs": [],
      "stateMutability": "payable",
      "type": "function"
    },
    {
      "inputs": [],
      "name": "getEntranceFee",
      "outputs": [
        {
          "internalType": "uint256",
          "name": "",
          "type": "uint256"
        }
      ],
      "stateMutability": "view",
      "type": "function"
    },
    {
      "inputs": [],
      "name": "getLatestTimeStamp",
      "outputs": [
        {
          "internalType": "uint256",
          "name": "",
          "type": "uint256"
        }
      ],
      "stateMutability": "view",
      "type": "function"
    },
    {
      "inputs": [],
      "name": "getNumWords",
      "outputs": [
        {
          "internalType": "uint256",
          "name": "",
          "type": "uint256"
        }
      ],
      "stateMutability": "pure",
      "type": "function"
    },
    {
      "inputs": [],
      "name": "getOwner",
      "outputs": [
        {
          "internalType": "address",
          "name": "",
          "type": "address"
        }
      ],
      "stateMutability": "view",
      "type": "function"
    },
    {
      "inputs": [
        {
          "internalType": "uint256",
          "name": "index",
          "type": "uint256"
        }
      ],
      "name": "getPlayers",
      "outputs": [
        {
          "internalType": "address",
          "name": "",
          "type": "address"
        }
      ],
      "stateMutability": "view",
      "type": "function"
    },
    {
      "inputs": [],
      "name": "getRaffleState",
      "outputs": [
        {
          "internalType": "enum Raffle.RaffleState",
          "name": "",
          "type": "uint8"
        }
      ],
      "stateMutability": "view",
      "type": "function"
    },
    {
      "inputs": [],
      "name": "getRecentWinner",
      "outputs": [
        {
          "internalType": "address",
          "name": "",
          "type": "address"
        }
      ],
      "stateMutability": "view",
      "type": "function"
    },
    {
      "inputs": [],
      "name": "getRequestConfirmation",
      "outputs": [
        {
          "internalType": "uint16",
          "name": "",
          "type": "uint16"
        }
      ],
      "stateMutability": "pure",
      "type": "function"
    },
    {
      "inputs": [],
      "name": "getVRFCoordinator",
      "outputs": [
        {
          "internalType": "contract VRFCoordinatorV2Interface",
          "name": "",
          "type": "address"
        }
      ],
      "stateMutability": "view",
      "type": "function"
    },
    {
      "inputs": [
        {
          "internalType": "bytes",
          "name": "",
          "type": "bytes"
        }
      ],
      "name": "performUpkeep",
      "outputs": [],
      "stateMutability": "nonpayable",
      "type": "function"
    },
    {
      "inputs": [
        {
          "internalType": "uint256",
          "name": "requestId",
          "type": "uint256"
        },
        {
          "internalType": "uint256[]",
          "name": "randomWords",
          "type": "uint256[]"
        }
      ],
      "name": "rawFulfillRandomWords",
      "outputs": [],
      "stateMutability": "nonpayable",
      "type": "function"
    },
    {
      "inputs": [],
      "name": "s_recentWinner",
      "outputs": [
        {
          "internalType": "address",
          "name": "",
          "type": "address"
        }
      ],
      "stateMutability": "view",
      "type": "function"
    }
  ],
  "bytecode": "0x6101806040523480156200001257600080fd5b5060405162001991380380620019918339818101604052810190620000389190620002d8565b838073ffffffffffffffffffffffffffffffffffffffff1660808173ffffffffffffffffffffffffffffffffffffffff1660601b81525050508560e081815250503373ffffffffffffffffffffffffffffffffffffffff1660a08173ffffffffffffffffffffffffffffffffffffffff1660601b815250508373ffffffffffffffffffffffffffffffffffffffff1660c08173ffffffffffffffffffffffffffffffffffffffff1660601b815250508267ffffffffffffffff166101008167ffffffffffffffff1660c01b815250508163ffffffff166101208163ffffffff1660e01b815250508061014081815250506000600160146101000a81548160ff0219169083600181111562000151576200015062000374565b5b021790555042600281905550846101608181525050505050505050620003a3565b600080fd5b6000819050919050565b6200018c8162000177565b81146200019857600080fd5b50565b600081519050620001ac8162000181565b92915050565b600073ffffffffffffffffffffffffffffffffffffffff82169050919050565b6000620001df82620001b2565b9050919050565b620001f181620001d2565b8114620001fd57600080fd5b50565b6000815190506200021181620001e6565b92915050565b600067ffffffffffffffff82169050919050565b620002368162000217565b81146200024257600080fd5b50565b60008151905062000256816200022b565b92915050565b600063ffffffff82169050919050565b62000277816200025c565b81146200028357600080fd5b50565b60008151905062000297816200026c565b92915050565b6000819050919050565b620002b2816200029d565b8114620002be57600080fd5b50565b600081519050620002d281620002a7565b92915050565b60008060008060008060c08789031215620002f857620002f762000172565b5b60006200030889828a016200019b565b96505060206200031b89828a016200019b565b95505060406200032e89828a0162000200565b94505060606200034189828a0162000245565b93505060806200035489828a0162000286565b92505060a06200036789828a01620002c1565b9150509295509295509295565b7f4e487b7100000000000000000000000000000000000000000000000000000000600052602160045260246000fd5b60805160601c60a05160601c60c05160601c60e0516101005160c01c6101205160e01c61014051610160516115646200042d6000396000610875015260006106a6015260006106ea015260006106c7015260008181610340015261043d01526000818161066a01526109310152600061090901526000818161037d01526103d101526115646000f3fe6080604052600436106100dd5760003560e01c8063473f1ddc1161007f5780638638b0c6116100595780638638b0c614610290578063893d20e8146102bb578063a378f371146102e6578063ca6a9ef814610311576100dd565b8063473f1ddc146101fc57806353a2c19a146102275780636e04ff0d14610252576100dd565b80632cfcc539116100bb5780632cfcc53914610161578063320229eb1461016b5780634585e33b14610196578063460e2049146101bf576100dd565b806309bc33a7146100e2578063115cbaf51461010d5780631fe543e314610138575b600080fd5b3480156100ee57600080fd5b506100f761033c565b6040516101049190610c50565b60405180910390f35b34801561011957600080fd5b50610122610364565b60405161012f9190610ce2565b60405180910390f35b34801561014457600080fd5b5061015f600480360381019061015a9190610e96565b61037b565b005b61016961043b565b005b34801561017757600080fd5b506101806105a9565b60405161018d9190610c50565b60405180910390f35b3480156101a257600080fd5b506101bd60048036038101906101b89190610f4d565b6105b3565b005b3480156101cb57600080fd5b506101e660048036038101906101e19190610f9a565b6107b2565b6040516101f39190611008565b60405180910390f35b34801561020857600080fd5b506102116107f9565b60405161021e9190611008565b60405180910390f35b34801561023357600080fd5b5061023c610823565b6040516102499190610c50565b60405180910390f35b34801561025e57600080fd5b50610279600480360381019061027491906110d8565b610832565b6040516102879291906111c4565b60405180910390f35b34801561029c57600080fd5b506102a56108df565b6040516102b29190611008565b60405180910390f35b3480156102c757600080fd5b506102d0610905565b6040516102dd9190611008565b60405180910390f35b3480156102f257600080fd5b506102fb61092d565b6040516103089190611253565b60405180910390f35b34801561031d57600080fd5b50610326610955565b604051610333919061128b565b60405180910390f35b60007f0000000000000000000000000000000000000000000000000000000000000000905090565b6000600160149054906101000a900460ff16905090565b7f000000000000000000000000000000000000000000000000000000000000000073ffffffffffffffffffffffffffffffffffffffff163373ffffffffffffffffffffffffffffffffffffffff161461042d57337f00000000000000000000000000000000000000000000000000000000000000006040517f1cf993f40000000000000000000000000000000000000000000000000000000081526004016104249291906112a6565b60405180910390fd5b610437828261095e565b5050565b7f00000000000000000000000000000000000000000000000000000000000000003411610494576040517f93a0491300000000000000000000000000000000000000000000000000000000815260040160405180910390fd5b6000339080600181540180825580915050600190039060005260206000200160009091909190916101000a81548173ffffffffffffffffffffffffffffffffffffffff021916908373ffffffffffffffffffffffffffffffffffffffff1602179055506000600181111561050b5761050a610c6b565b5b600160149054906101000a900460ff16600181111561052d5761052c610c6b565b5b14610564576040517f1425571c00000000000000000000000000000000000000000000000000000000815260040160405180910390fd5b3373ffffffffffffffffffffffffffffffffffffffff167f0805e1d667bddb8a95f0f09880cf94f403fb596ce79928d9f29b74203ba284d460405160405180910390a2565b6000600254905090565b60006105cd60405180602001604052806000815250610832565b5090508061063c5747600080549050600160149054906101000a900460ff1660018111156105fe576105fd610c6b565b5b6040517f584327aa000000000000000000000000000000000000000000000000000000008152600401610633939291906112cf565b60405180910390fd5b60018060146101000a81548160ff0219169083600181111561066157610660610c6b565b5b021790555060007f000000000000000000000000000000000000000000000000000000000000000073ffffffffffffffffffffffffffffffffffffffff16635d3b1d307f00000000000000000000000000000000000000000000000000000000000000007f000000000000000000000000000000000000000000000000000000000000000060037f000000000000000000000000000000000000000000000000000000000000000060016040518663ffffffff1660e01b815260040161072b959493929190611361565b602060405180830381600087803b15801561074557600080fd5b505af1158015610759573d6000803e3d6000fd5b505050506040513d601f19601f8201168201806040525081019061077d91906113c9565b9050807fcd6e45c8998311cab7e9d4385596cac867e20a0587194b954fa3a731c93ce78b60405160405180910390a250505050565b60008082815481106107c7576107c66113f6565b5b9060005260206000200160009054906101000a900473ffffffffffffffffffffffffffffffffffffffff169050919050565b6000600160009054906101000a900473ffffffffffffffffffffffffffffffffffffffff16905090565b6000600163ffffffff16905090565b600060606000600160149054906101000a900460ff16600181111561085a57610859610c6b565b5b6000600181111561086e5761086d610c6b565b5b14905060007f0000000000000000000000000000000000000000000000000000000000000000600254426108a29190611454565b119050600080600080549050119050600080471190508280156108c25750815b80156108cb5750805b80156108d45750835b955050505050915091565b600160009054906101000a900473ffffffffffffffffffffffffffffffffffffffff1681565b60007f0000000000000000000000000000000000000000000000000000000000000000905090565b60007f0000000000000000000000000000000000000000000000000000000000000000905090565b60006003905090565b6000808054905082600081518110610979576109786113f6565b5b602002602001015161098b91906114b7565b905060008082815481106109a2576109a16113f6565b5b9060005260206000200160009054906101000a900473ffffffffffffffffffffffffffffffffffffffff16905080600160006101000a81548173ffffffffffffffffffffffffffffffffffffffff021916908373ffffffffffffffffffffffffffffffffffffffff1602179055506000600160146101000a81548160ff02191690836001811115610a3657610a35610c6b565b5b0217905550600067ffffffffffffffff811115610a5657610a55610d53565b5b604051908082528060200260200182016040528015610a845781602001602082028036833780820191505090505b5060009080519060200190610a9a929190610b90565b50600060028190555060008173ffffffffffffffffffffffffffffffffffffffff1647604051610ac990611519565b60006040518083038185875af1925050503d8060008114610b06576040519150601f19603f3d011682016040523d82523d6000602084013e610b0b565b606091505b5050905080610b46576040517fa1d04b3900000000000000000000000000000000000000000000000000000000815260040160405180910390fd5b8173ffffffffffffffffffffffffffffffffffffffff167f5b690ec4a06fe979403046eaeea5b3ce38524683c3001f662c8b5a829632f7df60405160405180910390a25050505050565b828054828255906000526020600020908101928215610c09579160200282015b82811115610c085782518260006101000a81548173ffffffffffffffffffffffffffffffffffffffff021916908373ffffffffffffffffffffffffffffffffffffffff16021790555091602001919060010190610bb0565b5b509050610c169190610c1a565b5090565b5b80821115610c33576000816000905550600101610c1b565b5090565b6000819050919050565b610c4a81610c37565b82525050565b6000602082019050610c656000830184610c41565b92915050565b7f4e487b7100000000000000000000000000000000000000000000000000000000600052602160045260246000fd5b60028110610cab57610caa610c6b565b5b50565b6000819050610cbc82610c9a565b919050565b6000610ccc82610cae565b9050919050565b610cdc81610cc1565b82525050565b6000602082019050610cf76000830184610cd3565b92915050565b6000604051905090565b600080fd5b600080fd5b610d1a81610c37565b8114610d2557600080fd5b50565b600081359050610d3781610d11565b92915050565b600080fd5b6000601f19601f8301169050919050565b7f4e487b7100000000000000000000000000000000000000000000000000000000600052604160045260246000fd5b610d8b82610d42565b810181811067ffffffffffffffff82111715610daa57610da9610d53565b5b80604052505050565b6000610dbd610cfd565b9050610dc98282610d82565b919050565b600067ffffffffffffffff821115610de957610de8610d53565b5b602082029050602081019050919050565b600080fd5b6000610e12610e0d84610dce565b610db3565b90508083825260208201905060208402830185811115610e3557610e34610dfa565b5b835b81811015610e5e5780610e4a8882610d28565b845260208401935050602081019050610e37565b5050509392505050565b600082601f830112610e7d57610e7c610d3d565b5b8135610e8d848260208601610dff565b91505092915050565b60008060408385031215610ead57610eac610d07565b5b6000610ebb85828601610d28565b925050602083013567ffffffffffffffff811115610edc57610edb610d0c565b5b610ee885828601610e68565b9150509250929050565b600080fd5b60008083601f840112610f0d57610f0c610d3d565b5b8235905067ffffffffffffffff811115610f2a57610f29610ef2565b5b602083019150836001820283011115610f4657610f45610dfa565b5b9250929050565b60008060208385031215610f6457610f63610d07565b5b600083013567ffffffffffffffff811115610f8257610f81610d0c565b5b610f8e85828601610ef7565b92509250509250929050565b600060208284031215610fb057610faf610d07565b5b6000610fbe84828501610d28565b91505092915050565b600073ffffffffffffffffffffffffffffffffffffffff82169050919050565b6000610ff282610fc7565b9050919050565b61100281610fe7565b82525050565b600060208201905061101d6000830184610ff9565b92915050565b600080fd5b600067ffffffffffffffff82111561104357611042610d53565b5b61104c82610d42565b9050602081019050919050565b82818337600083830152505050565b600061107b61107684611028565b610db3565b90508281526020810184848401111561109757611096611023565b5b6110a2848285611059565b509392505050565b600082601f8301126110bf576110be610d3d565b5b81356110cf848260208601611068565b91505092915050565b6000602082840312156110ee576110ed610d07565b5b600082013567ffffffffffffffff81111561110c5761110b610d0c565b5b611118848285016110aa565b91505092915050565b60008115159050919050565b61113681611121565b82525050565b600081519050919050565b600082825260208201905092915050565b60005b8381101561117657808201518184015260208101905061115b565b83811115611185576000848401525b50505050565b60006111968261113c565b6111a08185611147565b93506111b0818560208601611158565b6111b981610d42565b840191505092915050565b60006040820190506111d9600083018561112d565b81810360208301526111eb818461118b565b90509392505050565b6000819050919050565b600061121961121461120f84610fc7565b6111f4565b610fc7565b9050919050565b600061122b826111fe565b9050919050565b600061123d82611220565b9050919050565b61124d81611232565b82525050565b60006020820190506112686000830184611244565b92915050565b600061ffff82169050919050565b6112858161126e565b82525050565b60006020820190506112a0600083018461127c565b92915050565b60006040820190506112bb6000830185610ff9565b6112c86020830184610ff9565b9392505050565b60006060820190506112e46000830186610c41565b6112f16020830185610c41565b6112fe6040830184610c41565b949350505050565b6000819050919050565b61131981611306565b82525050565b600067ffffffffffffffff82169050919050565b61133c8161131f565b82525050565b600063ffffffff82169050919050565b61135b81611342565b82525050565b600060a0820190506113766000830188611310565b6113836020830187611333565b611390604083018661127c565b61139d6060830185611352565b6113aa6080830184611352565b9695505050505050565b6000815190506113c381610d11565b92915050565b6000602082840312156113df576113de610d07565b5b60006113ed848285016113b4565b91505092915050565b7f4e487b7100000000000000000000000000000000000000000000000000000000600052603260045260246000fd5b7f4e487b7100000000000000000000000000000000000000000000000000000000600052601160045260246000fd5b600061145f82610c37565b915061146a83610c37565b92508282101561147d5761147c611425565b5b828203905092915050565b7f4e487b7100000000000000000000000000000000000000000000000000000000600052601260045260246000fd5b60006114c282610c37565b91506114cd83610c37565b9250826114dd576114dc611488565b5b828206905092915050565b600081905092915050565b50565b60006115036000836114e8565b915061150e826114f3565b600082019050919050565b6000611524826114f6565b915081905091905056fea26469706673582212202722b0d4d37f3f4d718bc581ac3f737d755a829ae8ecc71e5308d8798ece260e64736f6c63430008080033",
  "linkReferences": {},
  "deployedLinkReferences": {}
}