{
  "_format": "hh-sol-artifact-1",
  "contractName": "Raffle",
  "sourceName": "contracts/Raffle.sol",
  "abi": [
    {
      "inputs": [
        {
          "internalType": "uint256",
          "name": "enteranceFee",
          "type": "uint256"
        },
        {
          "internalType": "uint256",
          "name": "interval",
          "type": "uint256"
        },
        {
          "internalType": "address",
          "name": "vrfCoordinatorV2",
          "type": "address"
        },
        {
          "internalType": "uint64",
          "name": "subscriptionId",
          "type": "uint64"
        },
        {
          "internalType": "uint32",
          "name": "callbackGasLimit",
          "type": "uint32"
        },
        {
          "internalType": "bytes32",
          "name": "gasLane",
          "type": "bytes32"
        }
      ],
      "stateMutability": "nonpayable",
      "type": "constructor"
    },
    {
      "inputs": [
        {
          "internalType": "address",
          "name": "have",
          "type": "address"
        },
        {
          "internalType": "address",
          "name": "want",
          "type": "address"
        }
      ],
      "name": "OnlyCoordinatorCanFulfill",
      "type": "error"
    },
    {
      "inputs": [],
      "name": "Raffle__NotOpen",
      "type": "error"
    },
    {
      "inputs": [],
      "name": "Raffle__TransferFailed",
      "type": "error"
    },
    {
      "inputs": [
        {
          "internalType": "uint256",
          "name": "currentBalance",
          "type": "uint256"
        },
        {
          "internalType": "uint256",
          "name": "numPlayers",
          "type": "uint256"
        },
        {
          "internalType": "uint256",
          "name": "raffleState",
          "type": "uint256"
        }
      ],
      "name": "Raffle__UpkeepNotNeeded",
      "type": "error"
    },
    {
      "inputs": [],
      "name": "Raffle__notEnoughEthSent",
      "type": "error"
    },
    {
      "anonymous": false,
      "inputs": [
        {
          "indexed": true,
          "internalType": "address",
          "name": "players",
          "type": "address"
        }
      ],
      "name": "RaffleEnter",
      "type": "event"
    },
    {
      "anonymous": false,
      "inputs": [
        {
          "indexed": true,
          "internalType": "uint256",
          "name": "requestId",
          "type": "uint256"
        }
      ],
      "name": "RequestedRaffleWinner",
      "type": "event"
    },
    {
      "anonymous": false,
      "inputs": [
        {
          "indexed": true,
          "internalType": "address",
          "name": "winner",
          "type": "address"
        }
      ],
      "name": "WinnerPicked",
      "type": "event"
    },
    {
      "inputs": [
        {
          "internalType": "bytes",
          "name": "",
          "type": "bytes"
        }
      ],
      "name": "checkUpkeep",
      "outputs": [
        {
          "internalType": "bool",
          "name": "upkeepNeeded",
          "type": "bool"
        },
        {
          "internalType": "bytes",
          "name": "",
          "type": "bytes"
        }
      ],
      "stateMutability": "nonpayable",
      "type": "function"
    },
    {
      "inputs": [],
      "name": "enterRaffle",
      "outputs": [],
      "stateMutability": "payable",
      "type": "function"
    },
    {
      "inputs": [],
      "name": "getEntranceFee",
      "outputs": [
        {
          "internalType": "uint256",
          "name": "",
          "type": "uint256"
        }
      ],
      "stateMutability": "view",
      "type": "function"
    },
    {
      "inputs": [],
      "name": "getInterval",
      "outputs": [
        {
          "internalType": "uint256",
          "name": "",
          "type": "uint256"
        }
      ],
      "stateMutability": "view",
      "type": "function"
    },
    {
      "inputs": [],
      "name": "getLatestTimeStamp",
      "outputs": [
        {
          "internalType": "uint256",
          "name": "",
          "type": "uint256"
        }
      ],
      "stateMutability": "view",
      "type": "function"
    },
    {
      "inputs": [],
      "name": "getNumWords",
      "outputs": [
        {
          "internalType": "uint256",
          "name": "",
          "type": "uint256"
        }
      ],
      "stateMutability": "pure",
      "type": "function"
    },
    {
      "inputs": [],
      "name": "getOwner",
      "outputs": [
        {
          "internalType": "address",
          "name": "",
          "type": "address"
        }
      ],
      "stateMutability": "view",
      "type": "function"
    },
    {
      "inputs": [
        {
          "internalType": "uint256",
          "name": "index",
          "type": "uint256"
        }
      ],
      "name": "getPlayers",
      "outputs": [
        {
          "internalType": "address",
          "name": "",
          "type": "address"
        }
      ],
      "stateMutability": "view",
      "type": "function"
    },
    {
      "inputs": [],
      "name": "getRaffleState",
      "outputs": [
        {
          "internalType": "enum Raffle.RaffleState",
          "name": "",
          "type": "uint8"
        }
      ],
      "stateMutability": "view",
      "type": "function"
    },
    {
      "inputs": [],
      "name": "getRecentWinner",
      "outputs": [
        {
          "internalType": "address",
          "name": "",
          "type": "address"
        }
      ],
      "stateMutability": "view",
      "type": "function"
    },
    {
      "inputs": [],
      "name": "getRequestConfirmation",
      "outputs": [
        {
          "internalType": "uint16",
          "name": "",
          "type": "uint16"
        }
      ],
      "stateMutability": "pure",
      "type": "function"
    },
    {
      "inputs": [],
      "name": "getVRFCoordinator",
      "outputs": [
        {
          "internalType": "contract VRFCoordinatorV2Interface",
          "name": "",
          "type": "address"
        }
      ],
      "stateMutability": "view",
      "type": "function"
    },
    {
      "inputs": [
        {
          "internalType": "bytes",
          "name": "",
          "type": "bytes"
        }
      ],
      "name": "performUpkeep",
      "outputs": [],
      "stateMutability": "nonpayable",
      "type": "function"
    },
    {
      "inputs": [
        {
          "internalType": "uint256",
          "name": "requestId",
          "type": "uint256"
        },
        {
          "internalType": "uint256[]",
          "name": "randomWords",
          "type": "uint256[]"
        }
      ],
      "name": "rawFulfillRandomWords",
      "outputs": [],
      "stateMutability": "nonpayable",
      "type": "function"
    },
    {
      "inputs": [],
      "name": "s_recentWinner",
      "outputs": [
        {
          "internalType": "address",
          "name": "",
          "type": "address"
        }
      ],
      "stateMutability": "view",
      "type": "function"
    }
  ],
  "bytecode": "0x6101806040523480156200001257600080fd5b50604051620019f6380380620019f68339818101604052810190620000389190620002d8565b838073ffffffffffffffffffffffffffffffffffffffff1660808173ffffffffffffffffffffffffffffffffffffffff1660601b81525050508560e081815250503373ffffffffffffffffffffffffffffffffffffffff1660a08173ffffffffffffffffffffffffffffffffffffffff1660601b815250508373ffffffffffffffffffffffffffffffffffffffff1660c08173ffffffffffffffffffffffffffffffffffffffff1660601b815250508267ffffffffffffffff166101008167ffffffffffffffff1660c01b815250508163ffffffff166101208163ffffffff1660e01b815250508061014081815250506000600160146101000a81548160ff0219169083600181111562000151576200015062000374565b5b021790555042600281905550846101608181525050505050505050620003a3565b600080fd5b6000819050919050565b6200018c8162000177565b81146200019857600080fd5b50565b600081519050620001ac8162000181565b92915050565b600073ffffffffffffffffffffffffffffffffffffffff82169050919050565b6000620001df82620001b2565b9050919050565b620001f181620001d2565b8114620001fd57600080fd5b50565b6000815190506200021181620001e6565b92915050565b600067ffffffffffffffff82169050919050565b620002368162000217565b81146200024257600080fd5b50565b60008151905062000256816200022b565b92915050565b600063ffffffff82169050919050565b62000277816200025c565b81146200028357600080fd5b50565b60008151905062000297816200026c565b92915050565b6000819050919050565b620002b2816200029d565b8114620002be57600080fd5b50565b600081519050620002d281620002a7565b92915050565b60008060008060008060c08789031215620002f857620002f762000172565b5b60006200030889828a016200019b565b96505060206200031b89828a016200019b565b95505060406200032e89828a0162000200565b94505060606200034189828a0162000245565b93505060806200035489828a0162000286565b92505060a06200036789828a01620002c1565b9150509295509295509295565b7f4e487b7100000000000000000000000000000000000000000000000000000000600052602160045260246000fd5b60805160601c60a05160601c60c05160601c60e0516101005160c01c6101205160e01c61014051610160516115c262000434600039600081816108ab0152610967015260006106dc01526000610720015260006106fd01526000818161037601526104730152600081816106a0015261098f0152600061093f0152600081816103b3015261040701526115c26000f3fe6080604052600436106100e85760003560e01c8063473f1ddc1161008a578063893d20e811610059578063893d20e8146102c657806391ad27b4146102f1578063a378f3711461031c578063ca6a9ef814610347576100e8565b8063473f1ddc1461020757806353a2c19a146102325780636e04ff0d1461025d5780638638b0c61461029b576100e8565b80632cfcc539116100c65780632cfcc5391461016c578063320229eb146101765780634585e33b146101a1578063460e2049146101ca576100e8565b806309bc33a7146100ed578063115cbaf5146101185780631fe543e314610143575b600080fd5b3480156100f957600080fd5b50610102610372565b60405161010f9190610cae565b60405180910390f35b34801561012457600080fd5b5061012d61039a565b60405161013a9190610d40565b60405180910390f35b34801561014f57600080fd5b5061016a60048036038101906101659190610ef4565b6103b1565b005b610174610471565b005b34801561018257600080fd5b5061018b6105df565b6040516101989190610cae565b60405180910390f35b3480156101ad57600080fd5b506101c860048036038101906101c39190610fab565b6105e9565b005b3480156101d657600080fd5b506101f160048036038101906101ec9190610ff8565b6107e8565b6040516101fe9190611066565b60405180910390f35b34801561021357600080fd5b5061021c61082f565b6040516102299190611066565b60405180910390f35b34801561023e57600080fd5b50610247610859565b6040516102549190610cae565b60405180910390f35b34801561026957600080fd5b50610284600480360381019061027f9190611136565b610868565b604051610292929190611222565b60405180910390f35b3480156102a757600080fd5b506102b0610915565b6040516102bd9190611066565b60405180910390f35b3480156102d257600080fd5b506102db61093b565b6040516102e89190611066565b60405180910390f35b3480156102fd57600080fd5b50610306610963565b6040516103139190610cae565b60405180910390f35b34801561032857600080fd5b5061033161098b565b60405161033e91906112b1565b60405180910390f35b34801561035357600080fd5b5061035c6109b3565b60405161036991906112e9565b60405180910390f35b60007f0000000000000000000000000000000000000000000000000000000000000000905090565b6000600160149054906101000a900460ff16905090565b7f000000000000000000000000000000000000000000000000000000000000000073ffffffffffffffffffffffffffffffffffffffff163373ffffffffffffffffffffffffffffffffffffffff161461046357337f00000000000000000000000000000000000000000000000000000000000000006040517f1cf993f400000000000000000000000000000000000000000000000000000000815260040161045a929190611304565b60405180910390fd5b61046d82826109bc565b5050565b7f000000000000000000000000000000000000000000000000000000000000000034116104ca576040517f93a0491300000000000000000000000000000000000000000000000000000000815260040160405180910390fd5b6000339080600181540180825580915050600190039060005260206000200160009091909190916101000a81548173ffffffffffffffffffffffffffffffffffffffff021916908373ffffffffffffffffffffffffffffffffffffffff1602179055506000600181111561054157610540610cc9565b5b600160149054906101000a900460ff16600181111561056357610562610cc9565b5b1461059a576040517f1425571c00000000000000000000000000000000000000000000000000000000815260040160405180910390fd5b3373ffffffffffffffffffffffffffffffffffffffff167f0805e1d667bddb8a95f0f09880cf94f403fb596ce79928d9f29b74203ba284d460405160405180910390a2565b6000600254905090565b600061060360405180602001604052806000815250610868565b509050806106725747600080549050600160149054906101000a900460ff16600181111561063457610633610cc9565b5b6040517f584327aa0000000000000000000000000000000000000000000000000000000081526004016106699392919061132d565b60405180910390fd5b60018060146101000a81548160ff0219169083600181111561069757610696610cc9565b5b021790555060007f000000000000000000000000000000000000000000000000000000000000000073ffffffffffffffffffffffffffffffffffffffff16635d3b1d307f00000000000000000000000000000000000000000000000000000000000000007f000000000000000000000000000000000000000000000000000000000000000060037f000000000000000000000000000000000000000000000000000000000000000060016040518663ffffffff1660e01b81526004016107619594939291906113bf565b602060405180830381600087803b15801561077b57600080fd5b505af115801561078f573d6000803e3d6000fd5b505050506040513d601f19601f820116820180604052508101906107b39190611427565b9050807fcd6e45c8998311cab7e9d4385596cac867e20a0587194b954fa3a731c93ce78b60405160405180910390a250505050565b60008082815481106107fd576107fc611454565b5b9060005260206000200160009054906101000a900473ffffffffffffffffffffffffffffffffffffffff169050919050565b6000600160009054906101000a900473ffffffffffffffffffffffffffffffffffffffff16905090565b6000600163ffffffff16905090565b600060606000600160149054906101000a900460ff1660018111156108905761088f610cc9565b5b600060018111156108a4576108a3610cc9565b5b14905060007f0000000000000000000000000000000000000000000000000000000000000000600254426108d891906114b2565b119050600080600080549050119050600080471190508280156108f85750815b80156109015750805b801561090a5750835b955050505050915091565b600160009054906101000a900473ffffffffffffffffffffffffffffffffffffffff1681565b60007f0000000000000000000000000000000000000000000000000000000000000000905090565b60007f0000000000000000000000000000000000000000000000000000000000000000905090565b60007f0000000000000000000000000000000000000000000000000000000000000000905090565b60006003905090565b60008080549050826000815181106109d7576109d6611454565b5b60200260200101516109e99190611515565b90506000808281548110610a00576109ff611454565b5b9060005260206000200160009054906101000a900473ffffffffffffffffffffffffffffffffffffffff16905080600160006101000a81548173ffffffffffffffffffffffffffffffffffffffff021916908373ffffffffffffffffffffffffffffffffffffffff1602179055506000600160146101000a81548160ff02191690836001811115610a9457610a93610cc9565b5b0217905550600067ffffffffffffffff811115610ab457610ab3610db1565b5b604051908082528060200260200182016040528015610ae25781602001602082028036833780820191505090505b5060009080519060200190610af8929190610bee565b50600060028190555060008173ffffffffffffffffffffffffffffffffffffffff1647604051610b2790611577565b60006040518083038185875af1925050503d8060008114610b64576040519150601f19603f3d011682016040523d82523d6000602084013e610b69565b606091505b5050905080610ba4576040517fa1d04b3900000000000000000000000000000000000000000000000000000000815260040160405180910390fd5b8173ffffffffffffffffffffffffffffffffffffffff167f5b690ec4a06fe979403046eaeea5b3ce38524683c3001f662c8b5a829632f7df60405160405180910390a25050505050565b828054828255906000526020600020908101928215610c67579160200282015b82811115610c665782518260006101000a81548173ffffffffffffffffffffffffffffffffffffffff021916908373ffffffffffffffffffffffffffffffffffffffff16021790555091602001919060010190610c0e565b5b509050610c749190610c78565b5090565b5b80821115610c91576000816000905550600101610c79565b5090565b6000819050919050565b610ca881610c95565b82525050565b6000602082019050610cc36000830184610c9f565b92915050565b7f4e487b7100000000000000000000000000000000000000000000000000000000600052602160045260246000fd5b60028110610d0957610d08610cc9565b5b50565b6000819050610d1a82610cf8565b919050565b6000610d2a82610d0c565b9050919050565b610d3a81610d1f565b82525050565b6000602082019050610d556000830184610d31565b92915050565b6000604051905090565b600080fd5b600080fd5b610d7881610c95565b8114610d8357600080fd5b50565b600081359050610d9581610d6f565b92915050565b600080fd5b6000601f19601f8301169050919050565b7f4e487b7100000000000000000000000000000000000000000000000000000000600052604160045260246000fd5b610de982610da0565b810181811067ffffffffffffffff82111715610e0857610e07610db1565b5b80604052505050565b6000610e1b610d5b565b9050610e278282610de0565b919050565b600067ffffffffffffffff821115610e4757610e46610db1565b5b602082029050602081019050919050565b600080fd5b6000610e70610e6b84610e2c565b610e11565b90508083825260208201905060208402830185811115610e9357610e92610e58565b5b835b81811015610ebc5780610ea88882610d86565b845260208401935050602081019050610e95565b5050509392505050565b600082601f830112610edb57610eda610d9b565b5b8135610eeb848260208601610e5d565b91505092915050565b60008060408385031215610f0b57610f0a610d65565b5b6000610f1985828601610d86565b925050602083013567ffffffffffffffff811115610f3a57610f39610d6a565b5b610f4685828601610ec6565b9150509250929050565b600080fd5b60008083601f840112610f6b57610f6a610d9b565b5b8235905067ffffffffffffffff811115610f8857610f87610f50565b5b602083019150836001820283011115610fa457610fa3610e58565b5b9250929050565b60008060208385031215610fc257610fc1610d65565b5b600083013567ffffffffffffffff811115610fe057610fdf610d6a565b5b610fec85828601610f55565b92509250509250929050565b60006020828403121561100e5761100d610d65565b5b600061101c84828501610d86565b91505092915050565b600073ffffffffffffffffffffffffffffffffffffffff82169050919050565b600061105082611025565b9050919050565b61106081611045565b82525050565b600060208201905061107b6000830184611057565b92915050565b600080fd5b600067ffffffffffffffff8211156110a1576110a0610db1565b5b6110aa82610da0565b9050602081019050919050565b82818337600083830152505050565b60006110d96110d484611086565b610e11565b9050828152602081018484840111156110f5576110f4611081565b5b6111008482856110b7565b509392505050565b600082601f83011261111d5761111c610d9b565b5b813561112d8482602086016110c6565b91505092915050565b60006020828403121561114c5761114b610d65565b5b600082013567ffffffffffffffff81111561116a57611169610d6a565b5b61117684828501611108565b91505092915050565b60008115159050919050565b6111948161117f565b82525050565b600081519050919050565b600082825260208201905092915050565b60005b838110156111d45780820151818401526020810190506111b9565b838111156111e3576000848401525b50505050565b60006111f48261119a565b6111fe81856111a5565b935061120e8185602086016111b6565b61121781610da0565b840191505092915050565b6000604082019050611237600083018561118b565b818103602083015261124981846111e9565b90509392505050565b6000819050919050565b600061127761127261126d84611025565b611252565b611025565b9050919050565b60006112898261125c565b9050919050565b600061129b8261127e565b9050919050565b6112ab81611290565b82525050565b60006020820190506112c660008301846112a2565b92915050565b600061ffff82169050919050565b6112e3816112cc565b82525050565b60006020820190506112fe60008301846112da565b92915050565b60006040820190506113196000830185611057565b6113266020830184611057565b9392505050565b60006060820190506113426000830186610c9f565b61134f6020830185610c9f565b61135c6040830184610c9f565b949350505050565b6000819050919050565b61137781611364565b82525050565b600067ffffffffffffffff82169050919050565b61139a8161137d565b82525050565b600063ffffffff82169050919050565b6113b9816113a0565b82525050565b600060a0820190506113d4600083018861136e565b6113e16020830187611391565b6113ee60408301866112da565b6113fb60608301856113b0565b61140860808301846113b0565b9695505050505050565b60008151905061142181610d6f565b92915050565b60006020828403121561143d5761143c610d65565b5b600061144b84828501611412565b91505092915050565b7f4e487b7100000000000000000000000000000000000000000000000000000000600052603260045260246000fd5b7f4e487b7100000000000000000000000000000000000000000000000000000000600052601160045260246000fd5b60006114bd82610c95565b91506114c883610c95565b9250828210156114db576114da611483565b5b828203905092915050565b7f4e487b7100000000000000000000000000000000000000000000000000000000600052601260045260246000fd5b600061152082610c95565b915061152b83610c95565b92508261153b5761153a6114e6565b5b828206905092915050565b600081905092915050565b50565b6000611561600083611546565b915061156c82611551565b600082019050919050565b600061158282611554565b915081905091905056fea2646970667358221220c8aa53c4d9baa669dc76a286592dfcbe352bd8fd30c925ea71f37fa784426d0964736f6c63430008080033",
  "linkReferences": {},
  "deployedLinkReferences": {}
}