{
  "_format": "hh-sol-artifact-1",
  "contractName": "Raffle",
  "sourceName": "contracts/Raffle.sol",
  "abi": [
    {
      "inputs": [
        {
          "internalType": "uint256",
          "name": "enteranceFee",
          "type": "uint256"
        }
      ],
      "stateMutability": "nonpayable",
      "type": "constructor"
    },
    {
      "inputs": [],
      "name": "Raffle__notEnoughEthSent",
      "type": "error"
    },
    {
      "anonymous": false,
      "inputs": [
        {
          "indexed": true,
          "internalType": "address",
          "name": "players",
          "type": "address"
        }
      ],
      "name": "RaffleEnter",
      "type": "event"
    },
    {
      "inputs": [
        {
          "internalType": "address",
          "name": "",
          "type": "address"
        }
      ],
      "name": "addressToAmount",
      "outputs": [
        {
          "internalType": "uint256",
          "name": "",
          "type": "uint256"
        }
      ],
      "stateMutability": "view",
      "type": "function"
    },
    {
      "inputs": [],
      "name": "enterRaffle",
      "outputs": [],
      "stateMutability": "payable",
      "type": "function"
    },
    {
      "inputs": [],
      "name": "getEntranceFee",
      "outputs": [
        {
          "internalType": "uint256",
          "name": "",
          "type": "uint256"
        }
      ],
      "stateMutability": "view",
      "type": "function"
    },
    {
      "inputs": [],
      "name": "getOwner",
      "outputs": [
        {
          "internalType": "address",
          "name": "",
          "type": "address"
        }
      ],
      "stateMutability": "view",
      "type": "function"
    },
    {
      "inputs": [
        {
          "internalType": "uint256",
          "name": "index",
          "type": "uint256"
        }
      ],
      "name": "getPlayers",
      "outputs": [
        {
          "internalType": "address",
          "name": "",
          "type": "address"
        }
      ],
      "stateMutability": "view",
      "type": "function"
    }
  ],
  "bytecode": "0x60c060405234801561001057600080fd5b5060405161076438038061076483398181016040528101906100329190610103565b61004c678b148bcb767c1b4f60c01b6100c560201b60201c565b61006667571284187555459960c01b6100c560201b60201c565b8060808181525050610088679dd622a8b4a59ea860c01b6100c560201b60201c565b3373ffffffffffffffffffffffffffffffffffffffff1660a08173ffffffffffffffffffffffffffffffffffffffff1660601b8152505050610130565b50565b600080fd5b6000819050919050565b6100e0816100cd565b81146100eb57600080fd5b50565b6000815190506100fd816100d7565b92915050565b600060208284031215610119576101186100c8565b5b6000610127848285016100ee565b91505092915050565b60805160a05160601c61060561015f600039600061043201526000818161016901526101cb01526106056000f3fe60806040526004361061004a5760003560e01c806309bc33a71461004f5780632cfcc5391461007a5780633c7e7d2814610084578063460e2049146100c1578063893d20e8146100fe575b600080fd5b34801561005b57600080fd5b50610064610129565b6040516100719190610472565b60405180910390f35b61008261018d565b005b34801561009057600080fd5b506100ab60048036038101906100a691906104f0565b610356565b6040516100b89190610472565b60405180910390f35b3480156100cd57600080fd5b506100e860048036038101906100e39190610549565b61036e565b6040516100f59190610585565b60405180910390f35b34801561010a57600080fd5b506101136103f2565b6040516101209190610585565b60405180910390f35b600061013f67eaef822582e517e060c01b610456565b61015367af836f44d8512aa760c01b610456565b61016767545ea0219fb997ad60c01b610456565b7f0000000000000000000000000000000000000000000000000000000000000000905090565b6101a1672ef87b383742810a60c01b610456565b6101b567049ce7af430e5f9560c01b610456565b6101c9673bc0227e563feb1e60c01b610456565b7f0000000000000000000000000000000000000000000000000000000000000000341161024a5761020467312359bfe3538afa60c01b610456565b61021867d27fceb4a30f8e9260c01b610456565b6040517f93a0491300000000000000000000000000000000000000000000000000000000815260040160405180910390fd5b61025e67fddf99bbeb13263760c01b610456565b6102726720ddc66da9f1695060c01b610456565b6102866771f034d2495827bd60c01b610456565b6001339080600181540180825580915050600190039060005260206000200160009091909190916101000a81548173ffffffffffffffffffffffffffffffffffffffff021916908373ffffffffffffffffffffffffffffffffffffffff1602179055506102fd673201ace6fbcb421a60c01b610456565b6103116762d3efb11a32887760c01b610456565b3373ffffffffffffffffffffffffffffffffffffffff167f0805e1d667bddb8a95f0f09880cf94f403fb596ce79928d9f29b74203ba284d460405160405180910390a2565b60006020528060005260406000206000915090505481565b6000610384678d821252c458292260c01b610456565b61039867ac209d6671265a6760c01b610456565b6103ac67ab6d1da6b9cc89cf60c01b610456565b600182815481106103c0576103bf6105a0565b5b9060005260206000200160009054906101000a900473ffffffffffffffffffffffffffffffffffffffff169050919050565b600061040867991802e238c5927260c01b610456565b61041c679092d30a956f98f860c01b610456565b6104306732085ce86596d02d60c01b610456565b7f0000000000000000000000000000000000000000000000000000000000000000905090565b50565b6000819050919050565b61046c81610459565b82525050565b60006020820190506104876000830184610463565b92915050565b600080fd5b600073ffffffffffffffffffffffffffffffffffffffff82169050919050565b60006104bd82610492565b9050919050565b6104cd816104b2565b81146104d857600080fd5b50565b6000813590506104ea816104c4565b92915050565b6000602082840312156105065761050561048d565b5b6000610514848285016104db565b91505092915050565b61052681610459565b811461053157600080fd5b50565b6000813590506105438161051d565b92915050565b60006020828403121561055f5761055e61048d565b5b600061056d84828501610534565b91505092915050565b61057f816104b2565b82525050565b600060208201905061059a6000830184610576565b92915050565b7f4e487b7100000000000000000000000000000000000000000000000000000000600052603260045260246000fdfea264697066735822122026539263bf27a74c51be7a0f39ff3d79b66dd2f3784e8d458bf87af4690a009464736f6c63430008080033",
  "linkReferences": {},
  "deployedLinkReferences": {}
}