{
  "_format": "hh-sol-artifact-1",
  "contractName": "Raffle",
  "sourceName": "contracts/Raffle.sol",
  "abi": [
    {
      "inputs": [
        {
          "internalType": "uint256",
          "name": "enteranceFee",
          "type": "uint256"
        },
        {
          "internalType": "uint256",
          "name": "interval",
          "type": "uint256"
        },
        {
          "internalType": "address",
          "name": "vrfCoordinatorV2",
          "type": "address"
        },
        {
          "internalType": "uint64",
          "name": "subscriptionId",
          "type": "uint64"
        },
        {
          "internalType": "uint32",
          "name": "callbackGasLimit",
          "type": "uint32"
        },
        {
          "internalType": "bytes32",
          "name": "gasLane",
          "type": "bytes32"
        }
      ],
      "stateMutability": "nonpayable",
      "type": "constructor"
    },
    {
      "inputs": [
        {
          "internalType": "address",
          "name": "have",
          "type": "address"
        },
        {
          "internalType": "address",
          "name": "want",
          "type": "address"
        }
      ],
      "name": "OnlyCoordinatorCanFulfill",
      "type": "error"
    },
    {
      "inputs": [],
      "name": "Raffle__NotOpen",
      "type": "error"
    },
    {
      "inputs": [],
      "name": "Raffle__TransferFailed",
      "type": "error"
    },
    {
      "inputs": [
        {
          "internalType": "uint256",
          "name": "currentBalance",
          "type": "uint256"
        },
        {
          "internalType": "uint256",
          "name": "numPlayers",
          "type": "uint256"
        },
        {
          "internalType": "uint256",
          "name": "raffleState",
          "type": "uint256"
        }
      ],
      "name": "Raffle__UpkeepNotNeeded",
      "type": "error"
    },
    {
      "inputs": [],
      "name": "Raffle__notEnoughEthSent",
      "type": "error"
    },
    {
      "anonymous": false,
      "inputs": [
        {
          "indexed": true,
          "internalType": "address",
          "name": "players",
          "type": "address"
        }
      ],
      "name": "RaffleEnter",
      "type": "event"
    },
    {
      "anonymous": false,
      "inputs": [
        {
          "indexed": true,
          "internalType": "uint256",
          "name": "requestId",
          "type": "uint256"
        }
      ],
      "name": "RequestedRaffleWinner",
      "type": "event"
    },
    {
      "anonymous": false,
      "inputs": [
        {
          "indexed": true,
          "internalType": "address",
          "name": "winner",
          "type": "address"
        }
      ],
      "name": "WinnerPicked",
      "type": "event"
    },
    {
      "inputs": [
        {
          "internalType": "bytes",
          "name": "",
          "type": "bytes"
        }
      ],
      "name": "checkUpkeep",
      "outputs": [
        {
          "internalType": "bool",
          "name": "upkeepNeeded",
          "type": "bool"
        },
        {
          "internalType": "bytes",
          "name": "",
          "type": "bytes"
        }
      ],
      "stateMutability": "nonpayable",
      "type": "function"
    },
    {
      "inputs": [],
      "name": "enterRaffle",
      "outputs": [],
      "stateMutability": "payable",
      "type": "function"
    },
    {
      "inputs": [],
      "name": "getCallbackGasLimit",
      "outputs": [
        {
          "internalType": "uint32",
          "name": "",
          "type": "uint32"
        }
      ],
      "stateMutability": "view",
      "type": "function"
    },
    {
      "inputs": [],
      "name": "getEntranceFee",
      "outputs": [
        {
          "internalType": "uint256",
          "name": "",
          "type": "uint256"
        }
      ],
      "stateMutability": "view",
      "type": "function"
    },
    {
      "inputs": [],
      "name": "getGasLane",
      "outputs": [
        {
          "internalType": "bytes32",
          "name": "",
          "type": "bytes32"
        }
      ],
      "stateMutability": "view",
      "type": "function"
    },
    {
      "inputs": [],
      "name": "getInterval",
      "outputs": [
        {
          "internalType": "uint256",
          "name": "",
          "type": "uint256"
        }
      ],
      "stateMutability": "view",
      "type": "function"
    },
    {
      "inputs": [],
      "name": "getLatestTimeStamp",
      "outputs": [
        {
          "internalType": "uint256",
          "name": "",
          "type": "uint256"
        }
      ],
      "stateMutability": "view",
      "type": "function"
    },
    {
      "inputs": [],
      "name": "getNumWords",
      "outputs": [
        {
          "internalType": "uint256",
          "name": "",
          "type": "uint256"
        }
      ],
      "stateMutability": "pure",
      "type": "function"
    },
    {
      "inputs": [],
      "name": "getOwner",
      "outputs": [
        {
          "internalType": "address",
          "name": "",
          "type": "address"
        }
      ],
      "stateMutability": "view",
      "type": "function"
    },
    {
      "inputs": [
        {
          "internalType": "uint256",
          "name": "index",
          "type": "uint256"
        }
      ],
      "name": "getPlayers",
      "outputs": [
        {
          "internalType": "address",
          "name": "",
          "type": "address"
        }
      ],
      "stateMutability": "view",
      "type": "function"
    },
    {
      "inputs": [],
      "name": "getRaffleState",
      "outputs": [
        {
          "internalType": "enum Raffle.RaffleState",
          "name": "",
          "type": "uint8"
        }
      ],
      "stateMutability": "view",
      "type": "function"
    },
    {
      "inputs": [],
      "name": "getRecentWinner",
      "outputs": [
        {
          "internalType": "address",
          "name": "",
          "type": "address"
        }
      ],
      "stateMutability": "view",
      "type": "function"
    },
    {
      "inputs": [],
      "name": "getRequestConfirmation",
      "outputs": [
        {
          "internalType": "uint16",
          "name": "",
          "type": "uint16"
        }
      ],
      "stateMutability": "pure",
      "type": "function"
    },
    {
      "inputs": [],
      "name": "getSubscriptionId",
      "outputs": [
        {
          "internalType": "uint64",
          "name": "",
          "type": "uint64"
        }
      ],
      "stateMutability": "view",
      "type": "function"
    },
    {
      "inputs": [],
      "name": "getVRFCoordinator",
      "outputs": [
        {
          "internalType": "contract VRFCoordinatorV2Interface",
          "name": "",
          "type": "address"
        }
      ],
      "stateMutability": "view",
      "type": "function"
    },
    {
      "inputs": [
        {
          "internalType": "bytes",
          "name": "",
          "type": "bytes"
        }
      ],
      "name": "performUpkeep",
      "outputs": [],
      "stateMutability": "nonpayable",
      "type": "function"
    },
    {
      "inputs": [
        {
          "internalType": "uint256",
          "name": "requestId",
          "type": "uint256"
        },
        {
          "internalType": "uint256[]",
          "name": "randomWords",
          "type": "uint256[]"
        }
      ],
      "name": "rawFulfillRandomWords",
      "outputs": [],
      "stateMutability": "nonpayable",
      "type": "function"
    },
    {
      "inputs": [],
      "name": "s_recentWinner",
      "outputs": [
        {
          "internalType": "address",
          "name": "",
          "type": "address"
        }
      ],
      "stateMutability": "view",
      "type": "function"
    }
  ],
  "bytecode": "0x6101806040523480156200001257600080fd5b5060405162001b7738038062001b778339818101604052810190620000389190620002d8565b838073ffffffffffffffffffffffffffffffffffffffff1660808173ffffffffffffffffffffffffffffffffffffffff1660601b81525050508560e081815250503373ffffffffffffffffffffffffffffffffffffffff1660a08173ffffffffffffffffffffffffffffffffffffffff1660601b815250508373ffffffffffffffffffffffffffffffffffffffff1660c08173ffffffffffffffffffffffffffffffffffffffff1660601b815250508267ffffffffffffffff166101008167ffffffffffffffff1660c01b815250508163ffffffff166101208163ffffffff1660e01b815250508061014081815250506000600160146101000a81548160ff0219169083600181111562000151576200015062000374565b5b021790555042600281905550846101608181525050505050505050620003a3565b600080fd5b6000819050919050565b6200018c8162000177565b81146200019857600080fd5b50565b600081519050620001ac8162000181565b92915050565b600073ffffffffffffffffffffffffffffffffffffffff82169050919050565b6000620001df82620001b2565b9050919050565b620001f181620001d2565b8114620001fd57600080fd5b50565b6000815190506200021181620001e6565b92915050565b600067ffffffffffffffff82169050919050565b620002368162000217565b81146200024257600080fd5b50565b60008151905062000256816200022b565b92915050565b600063ffffffff82169050919050565b62000277816200025c565b81146200028357600080fd5b50565b60008151905062000297816200026c565b92915050565b6000819050919050565b620002b2816200029d565b8114620002be57600080fd5b50565b600081519050620002d281620002a7565b92915050565b60008060008060008060c08789031215620002f857620002f762000172565b5b60006200030889828a016200019b565b96505060206200031b89828a016200019b565b95505060406200032e89828a0162000200565b94505060606200034189828a0162000245565b93505060806200035489828a0162000286565b92505060a06200036789828a01620002c1565b9150509295509295509295565b7f4e487b7100000000000000000000000000000000000000000000000000000000600052602160045260246000fd5b60805160601c60a05160601c60c05160601c60e0516101005160c01c6101205160e01c610140516101605161172e620004496000396000818161094e0152610a0a01526000818161077f0152610a5a0152600081816107c30152610ab30152600081816107a00152610a8b01526000818161041801526105150152600081816107430152610a32015260006109e201526000818161045501526104a9015261172e6000f3fe6080604052600436106101095760003560e01c80636e04ff0d11610095578063a378f37111610064578063a378f3711461033d578063c19dd76b14610368578063ca6a9ef814610393578063de3d9fb7146103be578063de8be8e7146103e957610109565b80636e04ff0d1461027e5780638638b0c6146102bc578063893d20e8146102e757806391ad27b41461031257610109565b8063320229eb116100dc578063320229eb146101975780634585e33b146101c2578063460e2049146101eb578063473f1ddc1461022857806353a2c19a1461025357610109565b806309bc33a71461010e578063115cbaf5146101395780631fe543e3146101645780632cfcc5391461018d575b600080fd5b34801561011a57600080fd5b50610123610414565b6040516101309190610dc9565b60405180910390f35b34801561014557600080fd5b5061014e61043c565b60405161015b9190610e5b565b60405180910390f35b34801561017057600080fd5b5061018b6004803603810190610186919061100f565b610453565b005b610195610513565b005b3480156101a357600080fd5b506101ac610682565b6040516101b99190610dc9565b60405180910390f35b3480156101ce57600080fd5b506101e960048036038101906101e491906110c6565b61068c565b005b3480156101f757600080fd5b50610212600480360381019061020d9190611113565b61088b565b60405161021f9190611181565b60405180910390f35b34801561023457600080fd5b5061023d6108d2565b60405161024a9190611181565b60405180910390f35b34801561025f57600080fd5b506102686108fc565b6040516102759190610dc9565b60405180910390f35b34801561028a57600080fd5b506102a560048036038101906102a09190611251565b61090b565b6040516102b392919061133d565b60405180910390f35b3480156102c857600080fd5b506102d16109b8565b6040516102de9190611181565b60405180910390f35b3480156102f357600080fd5b506102fc6109de565b6040516103099190611181565b60405180910390f35b34801561031e57600080fd5b50610327610a06565b6040516103349190610dc9565b60405180910390f35b34801561034957600080fd5b50610352610a2e565b60405161035f91906113cc565b60405180910390f35b34801561037457600080fd5b5061037d610a56565b60405161038a9190611400565b60405180910390f35b34801561039f57600080fd5b506103a8610a7e565b6040516103b59190611438565b60405180910390f35b3480156103ca57600080fd5b506103d3610a87565b6040516103e09190611476565b60405180910390f35b3480156103f557600080fd5b506103fe610aaf565b60405161040b91906114b0565b60405180910390f35b60007f0000000000000000000000000000000000000000000000000000000000000000905090565b6000600160149054906101000a900460ff16905090565b7f000000000000000000000000000000000000000000000000000000000000000073ffffffffffffffffffffffffffffffffffffffff163373ffffffffffffffffffffffffffffffffffffffff161461050557337f00000000000000000000000000000000000000000000000000000000000000006040517f1cf993f40000000000000000000000000000000000000000000000000000000081526004016104fc9291906114cb565b60405180910390fd5b61050f8282610ad7565b5050565b7f000000000000000000000000000000000000000000000000000000000000000034101561056d576040517f93a0491300000000000000000000000000000000000000000000000000000000815260040160405180910390fd5b6000339080600181540180825580915050600190039060005260206000200160009091909190916101000a81548173ffffffffffffffffffffffffffffffffffffffff021916908373ffffffffffffffffffffffffffffffffffffffff160217905550600060018111156105e4576105e3610de4565b5b600160149054906101000a900460ff16600181111561060657610605610de4565b5b1461063d576040517f1425571c00000000000000000000000000000000000000000000000000000000815260040160405180910390fd5b3373ffffffffffffffffffffffffffffffffffffffff167f0805e1d667bddb8a95f0f09880cf94f403fb596ce79928d9f29b74203ba284d460405160405180910390a2565b6000600254905090565b60006106a66040518060200160405280600081525061090b565b509050806107155747600080549050600160149054906101000a900460ff1660018111156106d7576106d6610de4565b5b6040517f584327aa00000000000000000000000000000000000000000000000000000000815260040161070c939291906114f4565b60405180910390fd5b60018060146101000a81548160ff0219169083600181111561073a57610739610de4565b5b021790555060007f000000000000000000000000000000000000000000000000000000000000000073ffffffffffffffffffffffffffffffffffffffff16635d3b1d307f00000000000000000000000000000000000000000000000000000000000000007f000000000000000000000000000000000000000000000000000000000000000060037f000000000000000000000000000000000000000000000000000000000000000060016040518663ffffffff1660e01b815260040161080495949392919061152b565b602060405180830381600087803b15801561081e57600080fd5b505af1158015610832573d6000803e3d6000fd5b505050506040513d601f19601f820116820180604052508101906108569190611593565b9050807fcd6e45c8998311cab7e9d4385596cac867e20a0587194b954fa3a731c93ce78b60405160405180910390a250505050565b60008082815481106108a05761089f6115c0565b5b9060005260206000200160009054906101000a900473ffffffffffffffffffffffffffffffffffffffff169050919050565b6000600160009054906101000a900473ffffffffffffffffffffffffffffffffffffffff16905090565b6000600163ffffffff16905090565b600060606000600160149054906101000a900460ff16600181111561093357610932610de4565b5b6000600181111561094757610946610de4565b5b14905060007f00000000000000000000000000000000000000000000000000000000000000006002544261097b919061161e565b1190506000806000805490501190506000804711905082801561099b5750815b80156109a45750805b80156109ad5750835b955050505050915091565b600160009054906101000a900473ffffffffffffffffffffffffffffffffffffffff1681565b60007f0000000000000000000000000000000000000000000000000000000000000000905090565b60007f0000000000000000000000000000000000000000000000000000000000000000905090565b60007f0000000000000000000000000000000000000000000000000000000000000000905090565b60007f0000000000000000000000000000000000000000000000000000000000000000905090565b60006003905090565b60007f0000000000000000000000000000000000000000000000000000000000000000905090565b60007f0000000000000000000000000000000000000000000000000000000000000000905090565b6000808054905082600081518110610af257610af16115c0565b5b6020026020010151610b049190611681565b90506000808281548110610b1b57610b1a6115c0565b5b9060005260206000200160009054906101000a900473ffffffffffffffffffffffffffffffffffffffff16905080600160006101000a81548173ffffffffffffffffffffffffffffffffffffffff021916908373ffffffffffffffffffffffffffffffffffffffff1602179055506000600160146101000a81548160ff02191690836001811115610baf57610bae610de4565b5b0217905550600067ffffffffffffffff811115610bcf57610bce610ecc565b5b604051908082528060200260200182016040528015610bfd5781602001602082028036833780820191505090505b5060009080519060200190610c13929190610d09565b50600060028190555060008173ffffffffffffffffffffffffffffffffffffffff1647604051610c42906116e3565b60006040518083038185875af1925050503d8060008114610c7f576040519150601f19603f3d011682016040523d82523d6000602084013e610c84565b606091505b5050905080610cbf576040517fa1d04b3900000000000000000000000000000000000000000000000000000000815260040160405180910390fd5b8173ffffffffffffffffffffffffffffffffffffffff167f5b690ec4a06fe979403046eaeea5b3ce38524683c3001f662c8b5a829632f7df60405160405180910390a25050505050565b828054828255906000526020600020908101928215610d82579160200282015b82811115610d815782518260006101000a81548173ffffffffffffffffffffffffffffffffffffffff021916908373ffffffffffffffffffffffffffffffffffffffff16021790555091602001919060010190610d29565b5b509050610d8f9190610d93565b5090565b5b80821115610dac576000816000905550600101610d94565b5090565b6000819050919050565b610dc381610db0565b82525050565b6000602082019050610dde6000830184610dba565b92915050565b7f4e487b7100000000000000000000000000000000000000000000000000000000600052602160045260246000fd5b60028110610e2457610e23610de4565b5b50565b6000819050610e3582610e13565b919050565b6000610e4582610e27565b9050919050565b610e5581610e3a565b82525050565b6000602082019050610e706000830184610e4c565b92915050565b6000604051905090565b600080fd5b600080fd5b610e9381610db0565b8114610e9e57600080fd5b50565b600081359050610eb081610e8a565b92915050565b600080fd5b6000601f19601f8301169050919050565b7f4e487b7100000000000000000000000000000000000000000000000000000000600052604160045260246000fd5b610f0482610ebb565b810181811067ffffffffffffffff82111715610f2357610f22610ecc565b5b80604052505050565b6000610f36610e76565b9050610f428282610efb565b919050565b600067ffffffffffffffff821115610f6257610f61610ecc565b5b602082029050602081019050919050565b600080fd5b6000610f8b610f8684610f47565b610f2c565b90508083825260208201905060208402830185811115610fae57610fad610f73565b5b835b81811015610fd75780610fc38882610ea1565b845260208401935050602081019050610fb0565b5050509392505050565b600082601f830112610ff657610ff5610eb6565b5b8135611006848260208601610f78565b91505092915050565b6000806040838503121561102657611025610e80565b5b600061103485828601610ea1565b925050602083013567ffffffffffffffff81111561105557611054610e85565b5b61106185828601610fe1565b9150509250929050565b600080fd5b60008083601f84011261108657611085610eb6565b5b8235905067ffffffffffffffff8111156110a3576110a261106b565b5b6020830191508360018202830111156110bf576110be610f73565b5b9250929050565b600080602083850312156110dd576110dc610e80565b5b600083013567ffffffffffffffff8111156110fb576110fa610e85565b5b61110785828601611070565b92509250509250929050565b60006020828403121561112957611128610e80565b5b600061113784828501610ea1565b91505092915050565b600073ffffffffffffffffffffffffffffffffffffffff82169050919050565b600061116b82611140565b9050919050565b61117b81611160565b82525050565b60006020820190506111966000830184611172565b92915050565b600080fd5b600067ffffffffffffffff8211156111bc576111bb610ecc565b5b6111c582610ebb565b9050602081019050919050565b82818337600083830152505050565b60006111f46111ef846111a1565b610f2c565b9050828152602081018484840111156112105761120f61119c565b5b61121b8482856111d2565b509392505050565b600082601f83011261123857611237610eb6565b5b81356112488482602086016111e1565b91505092915050565b60006020828403121561126757611266610e80565b5b600082013567ffffffffffffffff81111561128557611284610e85565b5b61129184828501611223565b91505092915050565b60008115159050919050565b6112af8161129a565b82525050565b600081519050919050565b600082825260208201905092915050565b60005b838110156112ef5780820151818401526020810190506112d4565b838111156112fe576000848401525b50505050565b600061130f826112b5565b61131981856112c0565b93506113298185602086016112d1565b61133281610ebb565b840191505092915050565b600060408201905061135260008301856112a6565b81810360208301526113648184611304565b90509392505050565b6000819050919050565b600061139261138d61138884611140565b61136d565b611140565b9050919050565b60006113a482611377565b9050919050565b60006113b682611399565b9050919050565b6113c6816113ab565b82525050565b60006020820190506113e160008301846113bd565b92915050565b6000819050919050565b6113fa816113e7565b82525050565b600060208201905061141560008301846113f1565b92915050565b600061ffff82169050919050565b6114328161141b565b82525050565b600060208201905061144d6000830184611429565b92915050565b600067ffffffffffffffff82169050919050565b61147081611453565b82525050565b600060208201905061148b6000830184611467565b92915050565b600063ffffffff82169050919050565b6114aa81611491565b82525050565b60006020820190506114c560008301846114a1565b92915050565b60006040820190506114e06000830185611172565b6114ed6020830184611172565b9392505050565b60006060820190506115096000830186610dba565b6115166020830185610dba565b6115236040830184610dba565b949350505050565b600060a08201905061154060008301886113f1565b61154d6020830187611467565b61155a6040830186611429565b61156760608301856114a1565b61157460808301846114a1565b9695505050505050565b60008151905061158d81610e8a565b92915050565b6000602082840312156115a9576115a8610e80565b5b60006115b78482850161157e565b91505092915050565b7f4e487b7100000000000000000000000000000000000000000000000000000000600052603260045260246000fd5b7f4e487b7100000000000000000000000000000000000000000000000000000000600052601160045260246000fd5b600061162982610db0565b915061163483610db0565b925082821015611647576116466115ef565b5b828203905092915050565b7f4e487b7100000000000000000000000000000000000000000000000000000000600052601260045260246000fd5b600061168c82610db0565b915061169783610db0565b9250826116a7576116a6611652565b5b828206905092915050565b600081905092915050565b50565b60006116cd6000836116b2565b91506116d8826116bd565b600082019050919050565b60006116ee826116c0565b915081905091905056fea264697066735822122064a291d3b1d4b3789eb2492b35f8d57cf9edbad957f07fe2510284d636712e5064736f6c63430008080033",
  "linkReferences": {},
  "deployedLinkReferences": {}
}