{
  "_format": "hh-sol-artifact-1",
  "contractName": "Raffle",
  "sourceName": "contracts/Raffle.sol",
  "abi": [
    {
      "inputs": [
        {
          "internalType": "uint256",
          "name": "enteranceFee",
          "type": "uint256"
        },
        {
          "internalType": "uint256",
          "name": "interval",
          "type": "uint256"
        },
        {
          "internalType": "address",
          "name": "vrfCoordinatorV2",
          "type": "address"
        },
        {
          "internalType": "uint64",
          "name": "subscriptionId",
          "type": "uint64"
        },
        {
          "internalType": "uint32",
          "name": "callbackGasLimit",
          "type": "uint32"
        },
        {
          "internalType": "bytes32",
          "name": "gasLane",
          "type": "bytes32"
        }
      ],
      "stateMutability": "nonpayable",
      "type": "constructor"
    },
    {
      "inputs": [
        {
          "internalType": "address",
          "name": "have",
          "type": "address"
        },
        {
          "internalType": "address",
          "name": "want",
          "type": "address"
        }
      ],
      "name": "OnlyCoordinatorCanFulfill",
      "type": "error"
    },
    {
      "inputs": [],
      "name": "Raffle__NotOpen",
      "type": "error"
    },
    {
      "inputs": [],
      "name": "Raffle__TransferFailed",
      "type": "error"
    },
    {
      "inputs": [
        {
          "internalType": "uint256",
          "name": "currentBalance",
          "type": "uint256"
        },
        {
          "internalType": "uint256",
          "name": "numPlayers",
          "type": "uint256"
        },
        {
          "internalType": "uint256",
          "name": "raffleState",
          "type": "uint256"
        }
      ],
      "name": "Raffle__UpkeepNotNeeded",
      "type": "error"
    },
    {
      "inputs": [],
      "name": "Raffle__notEnoughEthSent",
      "type": "error"
    },
    {
      "anonymous": false,
      "inputs": [
        {
          "indexed": true,
          "internalType": "address",
          "name": "players",
          "type": "address"
        }
      ],
      "name": "RaffleEnter",
      "type": "event"
    },
    {
      "anonymous": false,
      "inputs": [
        {
          "indexed": true,
          "internalType": "uint256",
          "name": "requestId",
          "type": "uint256"
        }
      ],
      "name": "RequestedRaffleWinner",
      "type": "event"
    },
    {
      "anonymous": false,
      "inputs": [
        {
          "indexed": true,
          "internalType": "address",
          "name": "winner",
          "type": "address"
        }
      ],
      "name": "WinnerPicked",
      "type": "event"
    },
    {
      "inputs": [
        {
          "internalType": "bytes",
          "name": "",
          "type": "bytes"
        }
      ],
      "name": "checkUpkeep",
      "outputs": [
        {
          "internalType": "bool",
          "name": "upkeepNeeded",
          "type": "bool"
        },
        {
          "internalType": "bytes",
          "name": "",
          "type": "bytes"
        }
      ],
      "stateMutability": "view",
      "type": "function"
    },
    {
      "inputs": [],
      "name": "enterRaffle",
      "outputs": [],
      "stateMutability": "payable",
      "type": "function"
    },
    {
      "inputs": [],
      "name": "getCallbackGasLimit",
      "outputs": [
        {
          "internalType": "uint32",
          "name": "",
          "type": "uint32"
        }
      ],
      "stateMutability": "view",
      "type": "function"
    },
    {
      "inputs": [],
      "name": "getEntranceFee",
      "outputs": [
        {
          "internalType": "uint256",
          "name": "",
          "type": "uint256"
        }
      ],
      "stateMutability": "view",
      "type": "function"
    },
    {
      "inputs": [],
      "name": "getGasLane",
      "outputs": [
        {
          "internalType": "bytes32",
          "name": "",
          "type": "bytes32"
        }
      ],
      "stateMutability": "view",
      "type": "function"
    },
    {
      "inputs": [],
      "name": "getInterval",
      "outputs": [
        {
          "internalType": "uint256",
          "name": "",
          "type": "uint256"
        }
      ],
      "stateMutability": "view",
      "type": "function"
    },
    {
      "inputs": [],
      "name": "getLatestTimeStamp",
      "outputs": [
        {
          "internalType": "uint256",
          "name": "",
          "type": "uint256"
        }
      ],
      "stateMutability": "view",
      "type": "function"
    },
    {
      "inputs": [],
      "name": "getNumWords",
      "outputs": [
        {
          "internalType": "uint256",
          "name": "",
          "type": "uint256"
        }
      ],
      "stateMutability": "pure",
      "type": "function"
    },
    {
      "inputs": [],
      "name": "getOwner",
      "outputs": [
        {
          "internalType": "address",
          "name": "",
          "type": "address"
        }
      ],
      "stateMutability": "view",
      "type": "function"
    },
    {
      "inputs": [
        {
          "internalType": "uint256",
          "name": "index",
          "type": "uint256"
        }
      ],
      "name": "getPlayers",
      "outputs": [
        {
          "internalType": "address",
          "name": "",
          "type": "address"
        }
      ],
      "stateMutability": "view",
      "type": "function"
    },
    {
      "inputs": [],
      "name": "getRaffleState",
      "outputs": [
        {
          "internalType": "enum Raffle.RaffleState",
          "name": "",
          "type": "uint8"
        }
      ],
      "stateMutability": "view",
      "type": "function"
    },
    {
      "inputs": [],
      "name": "getRecentWinner",
      "outputs": [
        {
          "internalType": "address",
          "name": "",
          "type": "address"
        }
      ],
      "stateMutability": "view",
      "type": "function"
    },
    {
      "inputs": [],
      "name": "getRequestConfirmation",
      "outputs": [
        {
          "internalType": "uint16",
          "name": "",
          "type": "uint16"
        }
      ],
      "stateMutability": "pure",
      "type": "function"
    },
    {
      "inputs": [],
      "name": "getSubscriptionId",
      "outputs": [
        {
          "internalType": "uint64",
          "name": "",
          "type": "uint64"
        }
      ],
      "stateMutability": "view",
      "type": "function"
    },
    {
      "inputs": [],
      "name": "getVRFCoordinator",
      "outputs": [
        {
          "internalType": "contract VRFCoordinatorV2Interface",
          "name": "",
          "type": "address"
        }
      ],
      "stateMutability": "view",
      "type": "function"
    },
    {
      "inputs": [
        {
          "internalType": "bytes",
          "name": "",
          "type": "bytes"
        }
      ],
      "name": "performUpkeep",
      "outputs": [],
      "stateMutability": "nonpayable",
      "type": "function"
    },
    {
      "inputs": [
        {
          "internalType": "uint256",
          "name": "requestId",
          "type": "uint256"
        },
        {
          "internalType": "uint256[]",
          "name": "randomWords",
          "type": "uint256[]"
        }
      ],
      "name": "rawFulfillRandomWords",
      "outputs": [],
      "stateMutability": "nonpayable",
      "type": "function"
    },
    {
      "inputs": [],
      "name": "s_recentWinner",
      "outputs": [
        {
          "internalType": "address",
          "name": "",
          "type": "address"
        }
      ],
      "stateMutability": "view",
      "type": "function"
    }
  ],
  "bytecode": "0x6101806040523480156200001257600080fd5b5060405162001bb238038062001bb28339818101604052810190620000389190620002d8565b838073ffffffffffffffffffffffffffffffffffffffff1660808173ffffffffffffffffffffffffffffffffffffffff1660601b81525050508560e081815250503373ffffffffffffffffffffffffffffffffffffffff1660a08173ffffffffffffffffffffffffffffffffffffffff1660601b815250508373ffffffffffffffffffffffffffffffffffffffff1660c08173ffffffffffffffffffffffffffffffffffffffff1660601b815250508267ffffffffffffffff166101008167ffffffffffffffff1660c01b815250508163ffffffff166101208163ffffffff1660e01b815250508061014081815250506000600160146101000a81548160ff0219169083600181111562000151576200015062000374565b5b021790555042600281905550846101608181525050505050505050620003a3565b600080fd5b6000819050919050565b6200018c8162000177565b81146200019857600080fd5b50565b600081519050620001ac8162000181565b92915050565b600073ffffffffffffffffffffffffffffffffffffffff82169050919050565b6000620001df82620001b2565b9050919050565b620001f181620001d2565b8114620001fd57600080fd5b50565b6000815190506200021181620001e6565b92915050565b600067ffffffffffffffff82169050919050565b620002368162000217565b81146200024257600080fd5b50565b60008151905062000256816200022b565b92915050565b600063ffffffff82169050919050565b62000277816200025c565b81146200028357600080fd5b50565b60008151905062000297816200026c565b92915050565b6000819050919050565b620002b2816200029d565b8114620002be57600080fd5b50565b600081519050620002d281620002a7565b92915050565b60008060008060008060c08789031215620002f857620002f762000172565b5b60006200030889828a016200019b565b96505060206200031b89828a016200019b565b95505060406200032e89828a0162000200565b94505060606200034189828a0162000245565b93505060806200035489828a0162000286565b92505060a06200036789828a01620002c1565b9150509295509295509295565b7f4e487b7100000000000000000000000000000000000000000000000000000000600052602160045260246000fd5b60805160601c60a05160601c60c05160601c60e0516101005160c01c6101205160e01c6101405161016051611769620004496000396000818161094e0152610a4501526000818161077f0152610a950152600081816107c30152610aee0152600081816107a00152610ac601526000818161041801526105150152600081816107430152610a6d01526000610a1d01526000818161045501526104a901526117696000f3fe6080604052600436106101095760003560e01c80636e04ff0d11610095578063a378f37111610064578063a378f3711461033d578063c19dd76b14610368578063ca6a9ef814610393578063de3d9fb7146103be578063de8be8e7146103e957610109565b80636e04ff0d1461027e5780638638b0c6146102bc578063893d20e8146102e757806391ad27b41461031257610109565b8063320229eb116100dc578063320229eb146101975780634585e33b146101c2578063460e2049146101eb578063473f1ddc1461022857806353a2c19a1461025357610109565b806309bc33a71461010e578063115cbaf5146101395780631fe543e3146101645780632cfcc5391461018d575b600080fd5b34801561011a57600080fd5b50610123610414565b6040516101309190610e04565b60405180910390f35b34801561014557600080fd5b5061014e61043c565b60405161015b9190610e96565b60405180910390f35b34801561017057600080fd5b5061018b6004803603810190610186919061104a565b610453565b005b610195610513565b005b3480156101a357600080fd5b506101ac610682565b6040516101b99190610e04565b60405180910390f35b3480156101ce57600080fd5b506101e960048036038101906101e49190611101565b61068c565b005b3480156101f757600080fd5b50610212600480360381019061020d919061114e565b61088b565b60405161021f91906111bc565b60405180910390f35b34801561023457600080fd5b5061023d6108d2565b60405161024a91906111bc565b60405180910390f35b34801561025f57600080fd5b506102686108fc565b6040516102759190610e04565b60405180910390f35b34801561028a57600080fd5b506102a560048036038101906102a0919061128c565b61090b565b6040516102b3929190611378565b60405180910390f35b3480156102c857600080fd5b506102d16109f3565b6040516102de91906111bc565b60405180910390f35b3480156102f357600080fd5b506102fc610a19565b60405161030991906111bc565b60405180910390f35b34801561031e57600080fd5b50610327610a41565b6040516103349190610e04565b60405180910390f35b34801561034957600080fd5b50610352610a69565b60405161035f9190611407565b60405180910390f35b34801561037457600080fd5b5061037d610a91565b60405161038a919061143b565b60405180910390f35b34801561039f57600080fd5b506103a8610ab9565b6040516103b59190611473565b60405180910390f35b3480156103ca57600080fd5b506103d3610ac2565b6040516103e091906114b1565b60405180910390f35b3480156103f557600080fd5b506103fe610aea565b60405161040b91906114eb565b60405180910390f35b60007f0000000000000000000000000000000000000000000000000000000000000000905090565b6000600160149054906101000a900460ff16905090565b7f000000000000000000000000000000000000000000000000000000000000000073ffffffffffffffffffffffffffffffffffffffff163373ffffffffffffffffffffffffffffffffffffffff161461050557337f00000000000000000000000000000000000000000000000000000000000000006040517f1cf993f40000000000000000000000000000000000000000000000000000000081526004016104fc929190611506565b60405180910390fd5b61050f8282610b12565b5050565b7f000000000000000000000000000000000000000000000000000000000000000034101561056d576040517f93a0491300000000000000000000000000000000000000000000000000000000815260040160405180910390fd5b6000339080600181540180825580915050600190039060005260206000200160009091909190916101000a81548173ffffffffffffffffffffffffffffffffffffffff021916908373ffffffffffffffffffffffffffffffffffffffff160217905550600060018111156105e4576105e3610e1f565b5b600160149054906101000a900460ff16600181111561060657610605610e1f565b5b1461063d576040517f1425571c00000000000000000000000000000000000000000000000000000000815260040160405180910390fd5b3373ffffffffffffffffffffffffffffffffffffffff167f0805e1d667bddb8a95f0f09880cf94f403fb596ce79928d9f29b74203ba284d460405160405180910390a2565b6000600254905090565b60006106a66040518060200160405280600081525061090b565b509050806107155747600080549050600160149054906101000a900460ff1660018111156106d7576106d6610e1f565b5b6040517f584327aa00000000000000000000000000000000000000000000000000000000815260040161070c9392919061152f565b60405180910390fd5b60018060146101000a81548160ff0219169083600181111561073a57610739610e1f565b5b021790555060007f000000000000000000000000000000000000000000000000000000000000000073ffffffffffffffffffffffffffffffffffffffff16635d3b1d307f00000000000000000000000000000000000000000000000000000000000000007f000000000000000000000000000000000000000000000000000000000000000060037f000000000000000000000000000000000000000000000000000000000000000060016040518663ffffffff1660e01b8152600401610804959493929190611566565b602060405180830381600087803b15801561081e57600080fd5b505af1158015610832573d6000803e3d6000fd5b505050506040513d601f19601f8201168201806040525081019061085691906115ce565b9050807fcd6e45c8998311cab7e9d4385596cac867e20a0587194b954fa3a731c93ce78b60405160405180910390a250505050565b60008082815481106108a05761089f6115fb565b5b9060005260206000200160009054906101000a900473ffffffffffffffffffffffffffffffffffffffff169050919050565b6000600160009054906101000a900473ffffffffffffffffffffffffffffffffffffffff16905090565b6000600163ffffffff16905090565b600060606000600160149054906101000a900460ff16600181111561093357610932610e1f565b5b6000600181111561094757610946610e1f565b5b14905060007f00000000000000000000000000000000000000000000000000000000000000006002544261097b9190611659565b1190506000806000805490501190506000804711905082801561099b5750815b80156109a45750805b80156109ad5750835b9550856040518060400160405280600381526020017f30783000000000000000000000000000000000000000000000000000000000008152509550955050505050915091565b600160009054906101000a900473ffffffffffffffffffffffffffffffffffffffff1681565b60007f0000000000000000000000000000000000000000000000000000000000000000905090565b60007f0000000000000000000000000000000000000000000000000000000000000000905090565b60007f0000000000000000000000000000000000000000000000000000000000000000905090565b60007f0000000000000000000000000000000000000000000000000000000000000000905090565b60006003905090565b60007f0000000000000000000000000000000000000000000000000000000000000000905090565b60007f0000000000000000000000000000000000000000000000000000000000000000905090565b6000808054905082600081518110610b2d57610b2c6115fb565b5b6020026020010151610b3f91906116bc565b90506000808281548110610b5657610b556115fb565b5b9060005260206000200160009054906101000a900473ffffffffffffffffffffffffffffffffffffffff16905080600160006101000a81548173ffffffffffffffffffffffffffffffffffffffff021916908373ffffffffffffffffffffffffffffffffffffffff1602179055506000600160146101000a81548160ff02191690836001811115610bea57610be9610e1f565b5b0217905550600067ffffffffffffffff811115610c0a57610c09610f07565b5b604051908082528060200260200182016040528015610c385781602001602082028036833780820191505090505b5060009080519060200190610c4e929190610d44565b50600060028190555060008173ffffffffffffffffffffffffffffffffffffffff1647604051610c7d9061171e565b60006040518083038185875af1925050503d8060008114610cba576040519150601f19603f3d011682016040523d82523d6000602084013e610cbf565b606091505b5050905080610cfa576040517fa1d04b3900000000000000000000000000000000000000000000000000000000815260040160405180910390fd5b8173ffffffffffffffffffffffffffffffffffffffff167f5b690ec4a06fe979403046eaeea5b3ce38524683c3001f662c8b5a829632f7df60405160405180910390a25050505050565b828054828255906000526020600020908101928215610dbd579160200282015b82811115610dbc5782518260006101000a81548173ffffffffffffffffffffffffffffffffffffffff021916908373ffffffffffffffffffffffffffffffffffffffff16021790555091602001919060010190610d64565b5b509050610dca9190610dce565b5090565b5b80821115610de7576000816000905550600101610dcf565b5090565b6000819050919050565b610dfe81610deb565b82525050565b6000602082019050610e196000830184610df5565b92915050565b7f4e487b7100000000000000000000000000000000000000000000000000000000600052602160045260246000fd5b60028110610e5f57610e5e610e1f565b5b50565b6000819050610e7082610e4e565b919050565b6000610e8082610e62565b9050919050565b610e9081610e75565b82525050565b6000602082019050610eab6000830184610e87565b92915050565b6000604051905090565b600080fd5b600080fd5b610ece81610deb565b8114610ed957600080fd5b50565b600081359050610eeb81610ec5565b92915050565b600080fd5b6000601f19601f8301169050919050565b7f4e487b7100000000000000000000000000000000000000000000000000000000600052604160045260246000fd5b610f3f82610ef6565b810181811067ffffffffffffffff82111715610f5e57610f5d610f07565b5b80604052505050565b6000610f71610eb1565b9050610f7d8282610f36565b919050565b600067ffffffffffffffff821115610f9d57610f9c610f07565b5b602082029050602081019050919050565b600080fd5b6000610fc6610fc184610f82565b610f67565b90508083825260208201905060208402830185811115610fe957610fe8610fae565b5b835b818110156110125780610ffe8882610edc565b845260208401935050602081019050610feb565b5050509392505050565b600082601f83011261103157611030610ef1565b5b8135611041848260208601610fb3565b91505092915050565b6000806040838503121561106157611060610ebb565b5b600061106f85828601610edc565b925050602083013567ffffffffffffffff8111156110905761108f610ec0565b5b61109c8582860161101c565b9150509250929050565b600080fd5b60008083601f8401126110c1576110c0610ef1565b5b8235905067ffffffffffffffff8111156110de576110dd6110a6565b5b6020830191508360018202830111156110fa576110f9610fae565b5b9250929050565b6000806020838503121561111857611117610ebb565b5b600083013567ffffffffffffffff81111561113657611135610ec0565b5b611142858286016110ab565b92509250509250929050565b60006020828403121561116457611163610ebb565b5b600061117284828501610edc565b91505092915050565b600073ffffffffffffffffffffffffffffffffffffffff82169050919050565b60006111a68261117b565b9050919050565b6111b68161119b565b82525050565b60006020820190506111d160008301846111ad565b92915050565b600080fd5b600067ffffffffffffffff8211156111f7576111f6610f07565b5b61120082610ef6565b9050602081019050919050565b82818337600083830152505050565b600061122f61122a846111dc565b610f67565b90508281526020810184848401111561124b5761124a6111d7565b5b61125684828561120d565b509392505050565b600082601f83011261127357611272610ef1565b5b813561128384826020860161121c565b91505092915050565b6000602082840312156112a2576112a1610ebb565b5b600082013567ffffffffffffffff8111156112c0576112bf610ec0565b5b6112cc8482850161125e565b91505092915050565b60008115159050919050565b6112ea816112d5565b82525050565b600081519050919050565b600082825260208201905092915050565b60005b8381101561132a57808201518184015260208101905061130f565b83811115611339576000848401525b50505050565b600061134a826112f0565b61135481856112fb565b935061136481856020860161130c565b61136d81610ef6565b840191505092915050565b600060408201905061138d60008301856112e1565b818103602083015261139f818461133f565b90509392505050565b6000819050919050565b60006113cd6113c86113c38461117b565b6113a8565b61117b565b9050919050565b60006113df826113b2565b9050919050565b60006113f1826113d4565b9050919050565b611401816113e6565b82525050565b600060208201905061141c60008301846113f8565b92915050565b6000819050919050565b61143581611422565b82525050565b6000602082019050611450600083018461142c565b92915050565b600061ffff82169050919050565b61146d81611456565b82525050565b60006020820190506114886000830184611464565b92915050565b600067ffffffffffffffff82169050919050565b6114ab8161148e565b82525050565b60006020820190506114c660008301846114a2565b92915050565b600063ffffffff82169050919050565b6114e5816114cc565b82525050565b600060208201905061150060008301846114dc565b92915050565b600060408201905061151b60008301856111ad565b61152860208301846111ad565b9392505050565b60006060820190506115446000830186610df5565b6115516020830185610df5565b61155e6040830184610df5565b949350505050565b600060a08201905061157b600083018861142c565b61158860208301876114a2565b6115956040830186611464565b6115a260608301856114dc565b6115af60808301846114dc565b9695505050505050565b6000815190506115c881610ec5565b92915050565b6000602082840312156115e4576115e3610ebb565b5b60006115f2848285016115b9565b91505092915050565b7f4e487b7100000000000000000000000000000000000000000000000000000000600052603260045260246000fd5b7f4e487b7100000000000000000000000000000000000000000000000000000000600052601160045260246000fd5b600061166482610deb565b915061166f83610deb565b9250828210156116825761168161162a565b5b828203905092915050565b7f4e487b7100000000000000000000000000000000000000000000000000000000600052601260045260246000fd5b60006116c782610deb565b91506116d283610deb565b9250826116e2576116e161168d565b5b828206905092915050565b600081905092915050565b50565b60006117086000836116ed565b9150611713826116f8565b600082019050919050565b6000611729826116fb565b915081905091905056fea264697066735822122089e9068ecd7e556fa13c1659a6f32c74cacf5c51b4b1223c429644e3f8c3ad4164736f6c63430008080033",
  "linkReferences": {},
  "deployedLinkReferences": {}
}