{
  "_format": "hh-sol-artifact-1",
  "contractName": "Raffle",
  "sourceName": "contracts/Raffle.sol",
  "abi": [
    {
      "inputs": [
        {
          "internalType": "uint256",
          "name": "enteranceFee",
          "type": "uint256"
        },
        {
          "internalType": "address",
          "name": "vrfCoordinatorV2",
          "type": "address"
        },
        {
          "internalType": "uint64",
          "name": "subscriptionId",
          "type": "uint64"
        },
        {
          "internalType": "uint32",
          "name": "callbackGasLimit",
          "type": "uint32"
        },
        {
          "internalType": "bytes32",
          "name": "gasLane",
          "type": "bytes32"
        }
      ],
      "stateMutability": "nonpayable",
      "type": "constructor"
    },
    {
      "inputs": [
        {
          "internalType": "address",
          "name": "have",
          "type": "address"
        },
        {
          "internalType": "address",
          "name": "want",
          "type": "address"
        }
      ],
      "name": "OnlyCoordinatorCanFulfill",
      "type": "error"
    },
    {
      "inputs": [],
      "name": "Raffle__TransferFailed",
      "type": "error"
    },
    {
      "inputs": [],
      "name": "Raffle__notEnoughEthSent",
      "type": "error"
    },
    {
      "anonymous": false,
      "inputs": [
        {
          "indexed": true,
          "internalType": "address",
          "name": "players",
          "type": "address"
        }
      ],
      "name": "RaffleEnter",
      "type": "event"
    },
    {
      "anonymous": false,
      "inputs": [
        {
          "indexed": true,
          "internalType": "uint256",
          "name": "requestId",
          "type": "uint256"
        }
      ],
      "name": "RequestedRaffleWinner",
      "type": "event"
    },
    {
      "anonymous": false,
      "inputs": [
        {
          "indexed": true,
          "internalType": "address",
          "name": "winner",
          "type": "address"
        }
      ],
      "name": "WinnerPicked",
      "type": "event"
    },
    {
      "inputs": [],
      "name": "enterRaffle",
      "outputs": [],
      "stateMutability": "payable",
      "type": "function"
    },
    {
      "inputs": [],
      "name": "getEntranceFee",
      "outputs": [
        {
          "internalType": "uint256",
          "name": "",
          "type": "uint256"
        }
      ],
      "stateMutability": "view",
      "type": "function"
    },
    {
      "inputs": [],
      "name": "getOwner",
      "outputs": [
        {
          "internalType": "address",
          "name": "",
          "type": "address"
        }
      ],
      "stateMutability": "view",
      "type": "function"
    },
    {
      "inputs": [
        {
          "internalType": "uint256",
          "name": "index",
          "type": "uint256"
        }
      ],
      "name": "getPlayers",
      "outputs": [
        {
          "internalType": "address",
          "name": "",
          "type": "address"
        }
      ],
      "stateMutability": "view",
      "type": "function"
    },
    {
      "inputs": [],
      "name": "getRecentWinner",
      "outputs": [
        {
          "internalType": "address",
          "name": "",
          "type": "address"
        }
      ],
      "stateMutability": "view",
      "type": "function"
    },
    {
      "inputs": [],
      "name": "getVRFCoordinator",
      "outputs": [
        {
          "internalType": "contract VRFCoordinatorV2Interface",
          "name": "",
          "type": "address"
        }
      ],
      "stateMutability": "view",
      "type": "function"
    },
    {
      "inputs": [],
      "name": "pickRandomWinner",
      "outputs": [],
      "stateMutability": "nonpayable",
      "type": "function"
    },
    {
      "inputs": [
        {
          "internalType": "uint256",
          "name": "requestId",
          "type": "uint256"
        },
        {
          "internalType": "uint256[]",
          "name": "randomWords",
          "type": "uint256[]"
        }
      ],
      "name": "rawFulfillRandomWords",
      "outputs": [],
      "stateMutability": "nonpayable",
      "type": "function"
    },
    {
      "inputs": [],
      "name": "s_recentWinner",
      "outputs": [
        {
          "internalType": "address",
          "name": "",
          "type": "address"
        }
      ],
      "stateMutability": "view",
      "type": "function"
    }
  ],
  "bytecode": "0x6101606040523480156200001257600080fd5b50604051620010ae380380620010ae833981810160405281019062000038919062000299565b838073ffffffffffffffffffffffffffffffffffffffff1660808173ffffffffffffffffffffffffffffffffffffffff1660601b81525050508460e081815250503373ffffffffffffffffffffffffffffffffffffffff1660a08173ffffffffffffffffffffffffffffffffffffffff1660601b815250508373ffffffffffffffffffffffffffffffffffffffff1660c08173ffffffffffffffffffffffffffffffffffffffff1660601b815250508267ffffffffffffffff166101008167ffffffffffffffff1660c01b815250508163ffffffff166101208163ffffffff1660e01b81525050806101408181525050505050505062000321565b600080fd5b6000819050919050565b6200014d8162000138565b81146200015957600080fd5b50565b6000815190506200016d8162000142565b92915050565b600073ffffffffffffffffffffffffffffffffffffffff82169050919050565b6000620001a08262000173565b9050919050565b620001b28162000193565b8114620001be57600080fd5b50565b600081519050620001d281620001a7565b92915050565b600067ffffffffffffffff82169050919050565b620001f781620001d8565b81146200020357600080fd5b50565b6000815190506200021781620001ec565b92915050565b600063ffffffff82169050919050565b62000238816200021d565b81146200024457600080fd5b50565b60008151905062000258816200022d565b92915050565b6000819050919050565b62000273816200025e565b81146200027f57600080fd5b50565b600081519050620002938162000268565b92915050565b600080600080600060a08688031215620002b857620002b762000133565b5b6000620002c8888289016200015c565b9550506020620002db88828901620001c1565b9450506040620002ee8882890162000206565b9350506060620003018882890162000247565b9250506080620003148882890162000282565b9150509295509295909350565b60805160601c60a05160601c60c05160601c60e0516101005160c01c6101205160e01c61014051610d0e620003a060003960006104d101526000610515015260006104f20152600081816101ed01526102d301526000818161049501526105de0152600061046d01526000818161021301526102670152610d0e6000f3fe6080604052600436106100865760003560e01c8063473f1ddc11610059578063473f1ddc146101265780638638b0c614610151578063893d20e81461017c578063898da229146101a7578063a378f371146101be57610086565b806309bc33a71461008b5780631fe543e3146100b65780632cfcc539146100df578063460e2049146100e9575b600080fd5b34801561009757600080fd5b506100a06101e9565b6040516100ad91906107ba565b60405180910390f35b3480156100c257600080fd5b506100dd60048036038101906100d8919061096e565b610211565b005b6100e76102d1565b005b3480156100f557600080fd5b50610110600480360381019061010b91906109ca565b6103d2565b60405161011d9190610a38565b60405180910390f35b34801561013257600080fd5b5061013b610419565b6040516101489190610a38565b60405180910390f35b34801561015d57600080fd5b50610166610443565b6040516101739190610a38565b60405180910390f35b34801561018857600080fd5b50610191610469565b60405161019e9190610a38565b60405180910390f35b3480156101b357600080fd5b506101bc610491565b005b3480156101ca57600080fd5b506101d36105da565b6040516101e09190610ab2565b60405180910390f35b60007f0000000000000000000000000000000000000000000000000000000000000000905090565b7f000000000000000000000000000000000000000000000000000000000000000073ffffffffffffffffffffffffffffffffffffffff163373ffffffffffffffffffffffffffffffffffffffff16146102c357337f00000000000000000000000000000000000000000000000000000000000000006040517f1cf993f40000000000000000000000000000000000000000000000000000000081526004016102ba929190610acd565b60405180910390fd5b6102cd8282610602565b5050565b7f0000000000000000000000000000000000000000000000000000000000000000341161032a576040517f93a0491300000000000000000000000000000000000000000000000000000000815260040160405180910390fd5b6000339080600181540180825580915050600190039060005260206000200160009091909190916101000a81548173ffffffffffffffffffffffffffffffffffffffff021916908373ffffffffffffffffffffffffffffffffffffffff1602179055503373ffffffffffffffffffffffffffffffffffffffff167f0805e1d667bddb8a95f0f09880cf94f403fb596ce79928d9f29b74203ba284d460405160405180910390a2565b60008082815481106103e7576103e6610af6565b5b9060005260206000200160009054906101000a900473ffffffffffffffffffffffffffffffffffffffff169050919050565b6000600160009054906101000a900473ffffffffffffffffffffffffffffffffffffffff16905090565b600160009054906101000a900473ffffffffffffffffffffffffffffffffffffffff1681565b60007f0000000000000000000000000000000000000000000000000000000000000000905090565b60007f000000000000000000000000000000000000000000000000000000000000000073ffffffffffffffffffffffffffffffffffffffff16635d3b1d307f00000000000000000000000000000000000000000000000000000000000000007f000000000000000000000000000000000000000000000000000000000000000060037f000000000000000000000000000000000000000000000000000000000000000060016040518663ffffffff1660e01b8152600401610556959493929190610b9d565b602060405180830381600087803b15801561057057600080fd5b505af1158015610584573d6000803e3d6000fd5b505050506040513d601f19601f820116820180604052508101906105a89190610c05565b9050807fcd6e45c8998311cab7e9d4385596cac867e20a0587194b954fa3a731c93ce78b60405160405180910390a250565b60007f0000000000000000000000000000000000000000000000000000000000000000905090565b600080805490508260008151811061061d5761061c610af6565b5b602002602001015161062f9190610c61565b9050600080828154811061064657610645610af6565b5b9060005260206000200160009054906101000a900473ffffffffffffffffffffffffffffffffffffffff16905080600160006101000a81548173ffffffffffffffffffffffffffffffffffffffff021916908373ffffffffffffffffffffffffffffffffffffffff16021790555060008173ffffffffffffffffffffffffffffffffffffffff16476040516106da90610cc3565b60006040518083038185875af1925050503d8060008114610717576040519150601f19603f3d011682016040523d82523d6000602084013e61071c565b606091505b5050905080610757576040517fa1d04b3900000000000000000000000000000000000000000000000000000000815260040160405180910390fd5b8173ffffffffffffffffffffffffffffffffffffffff167f5b690ec4a06fe979403046eaeea5b3ce38524683c3001f662c8b5a829632f7df60405160405180910390a25050505050565b6000819050919050565b6107b4816107a1565b82525050565b60006020820190506107cf60008301846107ab565b92915050565b6000604051905090565b600080fd5b600080fd5b6107f2816107a1565b81146107fd57600080fd5b50565b60008135905061080f816107e9565b92915050565b600080fd5b6000601f19601f8301169050919050565b7f4e487b7100000000000000000000000000000000000000000000000000000000600052604160045260246000fd5b6108638261081a565b810181811067ffffffffffffffff821117156108825761088161082b565b5b80604052505050565b60006108956107d5565b90506108a1828261085a565b919050565b600067ffffffffffffffff8211156108c1576108c061082b565b5b602082029050602081019050919050565b600080fd5b60006108ea6108e5846108a6565b61088b565b9050808382526020820190506020840283018581111561090d5761090c6108d2565b5b835b8181101561093657806109228882610800565b84526020840193505060208101905061090f565b5050509392505050565b600082601f83011261095557610954610815565b5b81356109658482602086016108d7565b91505092915050565b60008060408385031215610985576109846107df565b5b600061099385828601610800565b925050602083013567ffffffffffffffff8111156109b4576109b36107e4565b5b6109c085828601610940565b9150509250929050565b6000602082840312156109e0576109df6107df565b5b60006109ee84828501610800565b91505092915050565b600073ffffffffffffffffffffffffffffffffffffffff82169050919050565b6000610a22826109f7565b9050919050565b610a3281610a17565b82525050565b6000602082019050610a4d6000830184610a29565b92915050565b6000819050919050565b6000610a78610a73610a6e846109f7565b610a53565b6109f7565b9050919050565b6000610a8a82610a5d565b9050919050565b6000610a9c82610a7f565b9050919050565b610aac81610a91565b82525050565b6000602082019050610ac76000830184610aa3565b92915050565b6000604082019050610ae26000830185610a29565b610aef6020830184610a29565b9392505050565b7f4e487b7100000000000000000000000000000000000000000000000000000000600052603260045260246000fd5b6000819050919050565b610b3881610b25565b82525050565b600067ffffffffffffffff82169050919050565b610b5b81610b3e565b82525050565b600061ffff82169050919050565b610b7881610b61565b82525050565b600063ffffffff82169050919050565b610b9781610b7e565b82525050565b600060a082019050610bb26000830188610b2f565b610bbf6020830187610b52565b610bcc6040830186610b6f565b610bd96060830185610b8e565b610be66080830184610b8e565b9695505050505050565b600081519050610bff816107e9565b92915050565b600060208284031215610c1b57610c1a6107df565b5b6000610c2984828501610bf0565b91505092915050565b7f4e487b7100000000000000000000000000000000000000000000000000000000600052601260045260246000fd5b6000610c6c826107a1565b9150610c77836107a1565b925082610c8757610c86610c32565b5b828206905092915050565b600081905092915050565b50565b6000610cad600083610c92565b9150610cb882610c9d565b600082019050919050565b6000610cce82610ca0565b915081905091905056fea2646970667358221220ea75f30b90fa1d912df83159e8aa2015807fb58cdc3097cf3f9b41bf32b6340164736f6c63430008080033",
  "linkReferences": {},
  "deployedLinkReferences": {}
}